{
  "_format": "hh-sol-artifact-1",
  "contractName": "WalletFactory",
  "sourceName": "contracts/WalletFactory.sol",
  "abi": [
    {
      "inputs": [
        {
          "internalType": "address",
          "name": "_policyEngine",
          "type": "address"
        },
        {
          "internalType": "address",
          "name": "_trustRegistry",
          "type": "address"
        },
        {
          "internalType": "address",
          "name": "_intentAttestation",
          "type": "address"
        },
        {
          "internalType": "address",
          "name": "_settlementCoordinator",
          "type": "address"
        }
      ],
      "stateMutability": "nonpayable",
      "type": "constructor"
    },
    {
      "anonymous": false,
      "inputs": [
        {
          "indexed": true,
          "internalType": "address",
          "name": "owner",
          "type": "address"
        },
        {
          "indexed": true,
          "internalType": "address",
          "name": "walletAddress",
          "type": "address"
        }
      ],
      "name": "WalletCreated",
      "type": "event"
    },
    {
      "inputs": [
        {
          "internalType": "uint256",
          "name": "",
          "type": "uint256"
        }
      ],
      "name": "allWallets",
      "outputs": [
        {
          "internalType": "address",
          "name": "",
          "type": "address"
        }
      ],
      "stateMutability": "view",
      "type": "function"
    },
    {
      "inputs": [],
      "name": "createWallet",
      "outputs": [
        {
          "internalType": "address",
          "name": "",
          "type": "address"
        }
      ],
      "stateMutability": "nonpayable",
      "type": "function"
    },
    {
      "inputs": [
        {
          "internalType": "address",
          "name": "owner",
          "type": "address"
        }
      ],
      "name": "getWallets",
      "outputs": [
        {
          "internalType": "address[]",
          "name": "",
          "type": "address[]"
        }
      ],
      "stateMutability": "view",
      "type": "function"
    },
    {
      "inputs": [],
      "name": "intentAttestation",
      "outputs": [
        {
          "internalType": "address",
          "name": "",
          "type": "address"
        }
      ],
      "stateMutability": "view",
      "type": "function"
    },
    {
      "inputs": [
        {
          "internalType": "address",
          "name": "",
          "type": "address"
        },
        {
          "internalType": "uint256",
          "name": "",
          "type": "uint256"
        }
      ],
      "name": "ownerWallets",
      "outputs": [
        {
          "internalType": "address",
          "name": "",
          "type": "address"
        }
      ],
      "stateMutability": "view",
      "type": "function"
    },
    {
      "inputs": [],
      "name": "policyEngine",
      "outputs": [
        {
          "internalType": "address",
          "name": "",
          "type": "address"
        }
      ],
      "stateMutability": "view",
      "type": "function"
    },
    {
      "inputs": [],
      "name": "settlementCoordinator",
      "outputs": [
        {
          "internalType": "address",
          "name": "",
          "type": "address"
        }
      ],
      "stateMutability": "view",
      "type": "function"
    },
    {
      "inputs": [],
      "name": "totalWallets",
      "outputs": [
        {
          "internalType": "uint256",
          "name": "",
          "type": "uint256"
        }
      ],
      "stateMutability": "view",
      "type": "function"
    },
    {
      "inputs": [],
      "name": "trustRegistry",
      "outputs": [
        {
          "internalType": "address",
          "name": "",
          "type": "address"
        }
      ],
      "stateMutability": "view",
      "type": "function"
    }
  ],
  "bytecode": "0x61010060405234801561001157600080fd5b50604051611cd2380380611cd28339810160408190526100309161006e565b6001600160a01b0393841660805291831660a052821660c0521660e0526100c2565b80516001600160a01b038116811461006957600080fd5b919050565b6000806000806080858703121561008457600080fd5b61008d85610052565b935061009b60208601610052565b92506100a960408601610052565b91506100b760608601610052565b905092959194509250565b60805160a05160c05160e051611bbc610116600039600060e201526000818161011c01526101f701526000818161018e015281816101d6015261028101526000818161015601526101b50152611bbc6000f3fe608060405234801561001057600080fd5b50600436106100935760003560e01c806381f252ab1161006657806381f252ab146101175780638cf8350f1461013e578063927399a514610151578063977d2c45146101785780639b8354271461018957600080fd5b806311ebbf2414610098578063422c29a4146100bd5780634e2f2c99146100dd5780637ead6caf14610104575b600080fd5b6100a06101b0565b6040516001600160a01b0390911681526020015b60405180910390f35b6100d06100cb366004610482565b610383565b6040516100b491906104a4565b6100a07f000000000000000000000000000000000000000000000000000000000000000081565b6100a06101123660046104f1565b6103f7565b6100a07f000000000000000000000000000000000000000000000000000000000000000081565b6100a061014c36600461051b565b61042f565b6100a07f000000000000000000000000000000000000000000000000000000000000000081565b6001546040519081526020016100b4565b6100a07f000000000000000000000000000000000000000000000000000000000000000081565b6000807f00000000000000000000000000000000000000000000000000000000000000007f00000000000000000000000000000000000000000000000000000000000000007f000000000000000000000000000000000000000000000000000000000000000060405161022290610459565b6001600160a01b03938416815291831660208301529091166040820152606001604051809103906000f08015801561025e573d6000803e3d6000fd5b50604051639da8be2160e01b81526001600160a01b0380831660048301529192507f000000000000000000000000000000000000000000000000000000000000000090911690639da8be2190602401600060405180830381600087803b1580156102c757600080fd5b505af11580156102db573d6000803e3d6000fd5b50503360008181526020818152604080832080546001818101835591855292842090920180546001600160a01b0389166001600160a01b03199182168117909255835480850185559385527fb10e2d527612073b26eecdfd717e6a320cf44b4afac2b0732d9fcbe2b7fa0cf690930180549093168117909255519094509192507f5b03bfed1c14a02bdeceb5fa582eb1a5765fc0bc64ca0e6af4c20afc9487f08191a3919050565b6001600160a01b038116600090815260208181526040918290208054835181840281018401909452808452606093928301828280156103eb57602002820191906000526020600020905b81546001600160a01b031681526001909101906020018083116103cd575b50505050509050919050565b6000602052816000526040600020818154811061041357600080fd5b6000918252602090912001546001600160a01b03169150829050565b6001818154811061043f57600080fd5b6000918252602090912001546001600160a01b0316905081565b6116528061053583390190565b80356001600160a01b038116811461047d57600080fd5b919050565b60006020828403121561049457600080fd5b61049d82610466565b9392505050565b6020808252825182820181905260009190848201906040850190845b818110156104e55783516001600160a01b0316835292840192918401916001016104c0565b50909695505050505050565b6000806040838503121561050457600080fd5b61050d83610466565b946020939093013593505050565b60006020828403121561052d57600080fd5b503591905056fe6101006040523480156200001257600080fd5b5060405162001652380380620016528339810160408190526200003591620000cb565b336080526001600160a01b0383811660a05282811660c081905290821660e052604051639da8be2160e01b8152306004820152639da8be2190602401600060405180830381600087803b1580156200008c57600080fd5b505af1158015620000a1573d6000803e3d6000fd5b5050505050505062000115565b80516001600160a01b0381168114620000c657600080fd5b919050565b600080600060608486031215620000e157600080fd5b620000ec84620000ae565b9250620000fc60208501620000ae565b91506200010c60408501620000ae565b90509250925092565b60805160a05160c05160e0516114af620001a3600039600081816101db01528181610446015261084f0152600081816102a5015281816105d401528181610ad30152610d9c01526000818161025b015281816104da01526108e30152600081816102270152818161036c01528181610751015281816107d4015281816109f90152610bd301526114af6000f3fe6080604052600436106100f75760003560e01c8063927399a51161008a578063b6290d7c11610059578063b6290d7c146102e7578063e453a37d14610311578063e7c7d0d414610336578063ee2638c41461034c57600080fd5b8063927399a5146102495780639298bbb31461027d5780639b835427146102935780639b89fbe3146102c757600080fd5b806375c2b9bd116100c657806375c2b9bd1461017a578063793a2b02146101a557806381f252ab146101c95780638da5cb5b1461021557600080fd5b806314a94e8514610103578063159d77ac146101255780632e75686a146101455780633477e1c51461016557600080fd5b366100fe57005b600080fd5b34801561010f57600080fd5b5061012361011e366004610e75565b610361565b005b34801561013157600080fd5b50610123610140366004610ed9565b610746565b34801561015157600080fd5b50610123610160366004610e75565b6107c9565b34801561017157600080fd5b506101236109ee565b34801561018657600080fd5b5061018f610b3a565b60405161019c9190610f42565b60405180910390f35b3480156101b157600080fd5b506101bb60015481565b60405190815260200161019c565b3480156101d557600080fd5b506101fd7f000000000000000000000000000000000000000000000000000000000000000081565b6040516001600160a01b03909116815260200161019c565b34801561022157600080fd5b506101fd7f000000000000000000000000000000000000000000000000000000000000000081565b34801561025557600080fd5b506101fd7f000000000000000000000000000000000000000000000000000000000000000081565b34801561028957600080fd5b506101bb60005481565b34801561029f57600080fd5b506101fd7f000000000000000000000000000000000000000000000000000000000000000081565b3480156102d357600080fd5b506101236102e2366004610f5c565b610bc8565b3480156102f357600080fd5b506003546103019060ff1681565b604051901515815260200161019c565b34801561031d57600080fd5b50610326610ccb565b60405161019c9493929190610fa8565b34801561034257600080fd5b506101bb60045481565b34801561035857600080fd5b506101bb610d84565b336001600160a01b037f000000000000000000000000000000000000000000000000000000000000000016146103b25760405162461bcd60e51b81526004016103a990610fd9565b60405180910390fd5b60035460ff166103d45760405162461bcd60e51b81526004016103a990611004565b6001600160a01b03851661042a5760405162461bcd60e51b815260206004820152601e60248201527f4152433430323a207a65726f206164647265737320726563697069656e74000060448201526064016103a9565b60405163b88fbd2d60e01b8152600481018290523060248201527f00000000000000000000000000000000000000000000000000000000000000006001600160a01b03169063b88fbd2d90604401602060405180830381865afa158015610495573d6000803e3d6000fd5b505050506040513d601f19601f820116820180604052508101906104b99190611050565b6104d55760405162461bcd60e51b81526004016103a99061106b565b6000807f00000000000000000000000000000000000000000000000000000000000000006001600160a01b031663c9b3f8ad3087878a6001546040518663ffffffff1660e01b815260040161052e9594939291906110d6565b600060405180830381865afa15801561054b573d6000803e3d6000fd5b505050506040513d6000823e601f3d908101601f191682016040526105739190810190611125565b915091508161065257866001600160a01b03167fd9eaf3c2f71ea752cf13126c74e56ce8bc542abebf264694523495ea7ddac55887836040516105b79291906111e5565b60405180910390a260405163d8f6171d60e01b81523060048201527f00000000000000000000000000000000000000000000000000000000000000006001600160a01b03169063d8f6171d90602401600060405180830381600087803b15801561062057600080fd5b505af1158015610634573d6000803e3d6000fd5b505050508060405162461bcd60e51b81526004016103a99190610f42565b866001600160a01b03167f2b3c6604ff1b7c691d7811592b52251b1e3335a6bcd446f7c845c33c7c837655878787876040516106919493929190611206565b60405180910390a26000876001600160a01b03168760405160006040518083038185875af1925050503d80600081146106e6576040519150601f19603f3d011682016040523d82523d6000602084013e6106eb565b606091505b505090508061073c5760405162461bcd60e51b815260206004820152601760248201527f4152433430323a207472616e73666572206661696c656400000000000000000060448201526064016103a9565b5050505050505050565b336001600160a01b037f0000000000000000000000000000000000000000000000000000000000000000161461078e5760405162461bcd60e51b81526004016103a990610fd9565b60008190556040518181527f58722cff4cfeaed2eb7043b72ff6922d9843ac754c33e201627de9bffd23b97a9060200160405180910390a150565b336001600160a01b037f000000000000000000000000000000000000000000000000000000000000000016146108115760405162461bcd60e51b81526004016103a990610fd9565b60035460ff166108335760405162461bcd60e51b81526004016103a990611004565b60405163b88fbd2d60e01b8152600481018290523060248201527f00000000000000000000000000000000000000000000000000000000000000006001600160a01b03169063b88fbd2d90604401602060405180830381865afa15801561089e573d6000803e3d6000fd5b505050506040513d601f19601f820116820180604052508101906108c29190611050565b6108de5760405162461bcd60e51b81526004016103a99061106b565b6000807f00000000000000000000000000000000000000000000000000000000000000006001600160a01b031663c9b3f8ad3087878a6001546040518663ffffffff1660e01b81526004016109379594939291906110d6565b600060405180830381865afa158015610954573d6000803e3d6000fd5b505050506040513d6000823e601f3d908101601f1916820160405261097c9190810190611125565b915091508181906109a05760405162461bcd60e51b81526004016103a99190610f42565b5060408051878152602081018590526001600160a01b038916917f056d47bffa7c2cbd89d97598edfaacedc5a898dcd47487959943f507c38bd4d0910160405180910390a250505050505050565b336001600160a01b037f00000000000000000000000000000000000000000000000000000000000000001614610a365760405162461bcd60e51b81526004016103a990610fd9565b60035460ff16610a585760405162461bcd60e51b81526004016103a990611004565b60018054600091829055604080516020810190915291825290600290610a7e90826112bc565b506003805460ff1916905560405142815281907fcc6590861f6ca0cdac2283eec9e3d822129a66efb8ddf2bf4b239af6c168295f9060200160405180910390a2604051634234128760e01b81523060048201527f00000000000000000000000000000000000000000000000000000000000000006001600160a01b031690634234128790602401600060405180830381600087803b158015610b1f57600080fd5b505af1158015610b33573d6000803e3d6000fd5b5050505050565b60028054610b4790611231565b80601f0160208091040260200160405190810160405280929190818152602001828054610b7390611231565b8015610bc05780601f10610b9557610100808354040283529160200191610bc0565b820191906000526020600020905b815481529060010190602001808311610ba357829003601f168201915b505050505081565b336001600160a01b037f00000000000000000000000000000000000000000000000000000000000000001614610c105760405162461bcd60e51b81526004016103a990610fd9565b60035460ff1615610c635760405162461bcd60e51b815260206004820152601c60248201527f4152433430323a20636f6e7465787420616c7265616479206f70656e0000000060448201526064016103a9565b60018390556002610c7582848361137c565b506003805460ff1916600117905542600481905560405184917fdde1929d79fef15cb9b8ed0bae129bca92a432de095cce47d10096cdc0fc1ba491610cbe91869186919061143c565b60405180910390a2505050565b600060606000806001546002600454600360009054906101000a900460ff16828054610cf690611231565b80601f0160208091040260200160405190810160405280929190818152602001828054610d2290611231565b8015610d6f5780601f10610d4457610100808354040283529160200191610d6f565b820191906000526020600020905b815481529060010190602001808311610d5257829003601f168201915b50505050509250935093509350935090919293565b604051630d47875d60e41b81523060048201526000907f00000000000000000000000000000000000000000000000000000000000000006001600160a01b03169063d47875d090602401602060405180830381865afa158015610deb573d6000803e3d6000fd5b505050506040513d601f19601f82011682018060405250810190610e0f9190611460565b905090565b6001600160a01b0381168114610e2957600080fd5b50565b60008083601f840112610e3e57600080fd5b50813567ffffffffffffffff811115610e5657600080fd5b602083019150836020828501011115610e6e57600080fd5b9250929050565b600080600080600060808688031215610e8d57600080fd5b8535610e9881610e14565b945060208601359350604086013567ffffffffffffffff811115610ebb57600080fd5b610ec788828901610e2c565b96999598509660600135949350505050565b600060208284031215610eeb57600080fd5b5035919050565b60005b83811015610f0d578181015183820152602001610ef5565b50506000910152565b60008151808452610f2e816020860160208601610ef2565b601f01601f19169290920160200192915050565b602081526000610f556020830184610f16565b9392505050565b600080600060408486031215610f7157600080fd5b83359250602084013567ffffffffffffffff811115610f8f57600080fd5b610f9b86828701610e2c565b9497909650939450505050565b848152608060208201526000610fc16080830186610f16565b60408301949094525090151560609091015292915050565b60208082526011908201527020a9219a18191d103737ba1037bbb732b960791b604082015260600190565b60208082526019908201527f4152433430323a206e6f2061637469766520636f6e7465787400000000000000604082015260600190565b8051801515811461104b57600080fd5b919050565b60006020828403121561106257600080fd5b610f558261103b565b60208082526022908201527f4152433430323a20696e76616c696420696e74656e742061747465737461746960408201526137b760f11b606082015260800190565b81835281816020850137506000828201602090810191909152601f909101601f19169091010190565b6001600160a01b03861681526080602082018190526000906110fb90830186886110ad565b604083019490945250606001529392505050565b634e487b7160e01b600052604160045260246000fd5b6000806040838503121561113857600080fd5b6111418361103b565b9150602083015167ffffffffffffffff8082111561115e57600080fd5b818501915085601f83011261117257600080fd5b8151818111156111845761118461110f565b604051601f8201601f19908116603f011681019083821181831017156111ac576111ac61110f565b816040528281528860208487010111156111c557600080fd5b6111d6836020830160208801610ef2565b80955050505050509250929050565b8281526040602082015260006111fe6040830184610f16565b949350505050565b8481526060602082015260006112206060830185876110ad565b905082604083015295945050505050565b600181811c9082168061124557607f821691505b60208210810361126557634e487b7160e01b600052602260045260246000fd5b50919050565b601f8211156112b7576000816000526020600020601f850160051c810160208610156112945750805b601f850160051c820191505b818110156112b3578281556001016112a0565b5050505b505050565b815167ffffffffffffffff8111156112d6576112d661110f565b6112ea816112e48454611231565b8461126b565b602080601f83116001811461131f57600084156113075750858301515b600019600386901b1c1916600185901b1785556112b3565b600085815260208120601f198616915b8281101561134e5788860151825594840194600190910190840161132f565b508582101561136c5787850151600019600388901b60f8161c191681555b5050505050600190811b01905550565b67ffffffffffffffff8311156113945761139461110f565b6113a8836113a28354611231565b8361126b565b6000601f8411600181146113dc57600085156113c45750838201355b600019600387901b1c1916600186901b178355610b33565b600083815260209020601f19861690835b8281101561140d57868501358255602094850194600190920191016113ed565b508682101561142a5760001960f88860031b161c19848701351681555b505060018560011b0183555050505050565b6040815260006114506040830185876110ad565b9050826020830152949350505050565b60006020828403121561147257600080fd5b505191905056fea26469706673582212202fb7d240423a5a16a945d87e1ee5d23052ef45b68f85db1391fc9cf0d0643e5b64736f6c63430008180033a26469706673582212201d99d9ec739d6cf2607c96046e08114da14e63ccb3b1abb8f4f791fb821e32bf64736f6c63430008180033",
  "linkReferences": {},
  "deployedLinkReferences": {}
}