{
  "_format": "hh-sol-artifact-1",
  "contractName": "TrustRegistry",
  "sourceName": "contracts/TrustRegistry.sol",
  "abi": [
    {
      "inputs": [],
      "stateMutability": "nonpayable",
      "type": "constructor"
    },
    {
      "anonymous": false,
      "inputs": [
        {
          "indexed": true,
          "internalType": "address",
          "name": "oldOwner",
          "type": "address"
        },
        {
          "indexed": true,
          "internalType": "address",
          "name": "newOwner",
          "type": "address"
        }
      ],
      "name": "OwnershipTransferred",
      "type": "event"
    },
    {
      "anonymous": false,
      "inputs": [
        {
          "indexed": true,
          "internalType": "address",
          "name": "wallet",
          "type": "address"
        },
        {
          "indexed": false,
          "internalType": "uint256",
          "name": "oldScore",
          "type": "uint256"
        },
        {
          "indexed": false,
          "internalType": "uint256",
          "name": "newScore",
          "type": "uint256"
        },
        {
          "indexed": false,
          "internalType": "string",
          "name": "reason",
          "type": "string"
        }
      ],
      "name": "ScoreUpdated",
      "type": "event"
    },
    {
      "anonymous": false,
      "inputs": [
        {
          "indexed": true,
          "internalType": "address",
          "name": "updater",
          "type": "address"
        }
      ],
      "name": "UpdaterAdded",
      "type": "event"
    },
    {
      "anonymous": false,
      "inputs": [
        {
          "indexed": true,
          "internalType": "address",
          "name": "updater",
          "type": "address"
        }
      ],
      "name": "UpdaterRemoved",
      "type": "event"
    },
    {
      "anonymous": false,
      "inputs": [
        {
          "indexed": true,
          "internalType": "address",
          "name": "wallet",
          "type": "address"
        },
        {
          "indexed": false,
          "internalType": "uint256",
          "name": "score",
          "type": "uint256"
        }
      ],
      "name": "WalletInitialized",
      "type": "event"
    },
    {
      "inputs": [],
      "name": "DECREMENT",
      "outputs": [
        {
          "internalType": "uint256",
          "name": "",
          "type": "uint256"
        }
      ],
      "stateMutability": "view",
      "type": "function"
    },
    {
      "inputs": [],
      "name": "INCREMENT",
      "outputs": [
        {
          "internalType": "uint256",
          "name": "",
          "type": "uint256"
        }
      ],
      "stateMutability": "view",
      "type": "function"
    },
    {
      "inputs": [],
      "name": "INITIAL_SCORE",
      "outputs": [
        {
          "internalType": "uint256",
          "name": "",
          "type": "uint256"
        }
      ],
      "stateMutability": "view",
      "type": "function"
    },
    {
      "inputs": [],
      "name": "MAX_SCORE",
      "outputs": [
        {
          "internalType": "uint256",
          "name": "",
          "type": "uint256"
        }
      ],
      "stateMutability": "view",
      "type": "function"
    },
    {
      "inputs": [
        {
          "internalType": "address",
          "name": "updater",
          "type": "address"
        }
      ],
      "name": "addUpdater",
      "outputs": [],
      "stateMutability": "nonpayable",
      "type": "function"
    },
    {
      "inputs": [
        {
          "internalType": "address",
          "name": "wallet",
          "type": "address"
        }
      ],
      "name": "getScore",
      "outputs": [
        {
          "internalType": "uint256",
          "name": "",
          "type": "uint256"
        }
      ],
      "stateMutability": "view",
      "type": "function"
    },
    {
      "inputs": [
        {
          "internalType": "address",
          "name": "wallet",
          "type": "address"
        }
      ],
      "name": "getTrustLevel",
      "outputs": [
        {
          "internalType": "string",
          "name": "",
          "type": "string"
        }
      ],
      "stateMutability": "view",
      "type": "function"
    },
    {
      "inputs": [
        {
          "internalType": "address",
          "name": "wallet",
          "type": "address"
        }
      ],
      "name": "initWallet",
      "outputs": [],
      "stateMutability": "nonpayable",
      "type": "function"
    },
    {
      "inputs": [
        {
          "internalType": "address",
          "name": "",
          "type": "address"
        }
      ],
      "name": "isAuthorizedUpdater",
      "outputs": [
        {
          "internalType": "bool",
          "name": "",
          "type": "bool"
        }
      ],
      "stateMutability": "view",
      "type": "function"
    },
    {
      "inputs": [],
      "name": "owner",
      "outputs": [
        {
          "internalType": "address",
          "name": "",
          "type": "address"
        }
      ],
      "stateMutability": "view",
      "type": "function"
    },
    {
      "inputs": [
        {
          "internalType": "address",
          "name": "wallet",
          "type": "address"
        }
      ],
      "name": "recordAnomaly",
      "outputs": [],
      "stateMutability": "nonpayable",
      "type": "function"
    },
    {
      "inputs": [
        {
          "internalType": "address",
          "name": "wallet",
          "type": "address"
        }
      ],
      "name": "recordSuccess",
      "outputs": [],
      "stateMutability": "nonpayable",
      "type": "function"
    },
    {
      "inputs": [
        {
          "internalType": "address",
          "name": "updater",
          "type": "address"
        }
      ],
      "name": "removeUpdater",
      "outputs": [],
      "stateMutability": "nonpayable",
      "type": "function"
    },
    {
      "inputs": [],
      "name": "renounceOwnership",
      "outputs": [],
      "stateMutability": "nonpayable",
      "type": "function"
    },
    {
      "inputs": [
        {
          "internalType": "address",
          "name": "newOwner",
          "type": "address"
        }
      ],
      "name": "transferOwnership",
      "outputs": [],
      "stateMutability": "nonpayable",
      "type": "function"
    }
  ],
  "bytecode": "0x608060405234801561001057600080fd5b50600380546001600160a01b031916339081179091556000908152600260205260409020805460ff19166001179055610a708061004e6000396000f3fe608060405234801561001057600080fd5b50600436106100f55760003560e01c80639da8be2111610097578063d47875d011610066578063d47875d0146101fa578063d8f6171d1461020d578063de33037314610220578063f2fde38b1461022857600080fd5b80639da8be21146101a4578063a2534c97146101b7578063b865bccc146101bf578063ce7f0cc3146101f257600080fd5b806343d24a5e116100d357806343d24a5e1461013e5780636a4b783d14610151578063715018a6146101715780638da5cb5b1461017957600080fd5b806304b07a5e146100fa57806327ff62231461010f578063423412871461012b575b600080fd5b61010d6101083660046108fd565b61023b565b005b6101186103e881565b6040519081526020015b60405180910390f35b61010d6101393660046108fd565b6102b7565b61010d61014c3660046108fd565b6103fe565b61016461015f3660046108fd565b610474565b604051610122919061092d565b61010d6105b9565b60035461018c906001600160a01b031681565b6040516001600160a01b039091168152602001610122565b61010d6101b23660046108fd565b610631565b610118601481565b6101e26101cd3660046108fd565b60026020526000908152604090205460ff1681565b6040519015158152602001610122565b610118600581565b6101186102083660046108fd565b6106b9565b61010d61021b3660046108fd565b6106fd565b610118606481565b61010d6102363660046108fd565b61082b565b6003546001600160a01b0316331461026e5760405162461bcd60e51b81526004016102659061097c565b60405180910390fd5b6001600160a01b038116600081815260026020526040808220805460ff19169055517f209d819a9ec655e89f2b2b9d65c8a78879b45a8f20d1941d69c5fe6dc21bcb629190a250565b3360009081526002602052604090205460ff166102e65760405162461bcd60e51b8152600401610265906109b3565b6001600160a01b03811660009081526001602052604090205460ff16610337576001600160a01b0381166000908152600160208181526040808420805460ff19169093179092558290529020606490555b6001600160a01b038116600090815260208190526040812054906103e861035f600584610a0e565b116103745761036f600583610a0e565b610378565b6103e85b6001600160a01b0384166000818152602081905260409081902083905551919250907f7e2add12a328a86680ec5cfd32c70eaa4590ecb9df3e614e146da05d547a5e30906103f190859085909182526020820152606060408201819052600790820152667375636365737360c81b608082015260a00190565b60405180910390a2505050565b6003546001600160a01b031633146104285760405162461bcd60e51b81526004016102659061097c565b6001600160a01b038116600081815260026020526040808220805460ff19166001179055517f23a38f89c31ff6329bf86f3863cfa2ad8fc1462c40dbf907dbbebb8f9cb237ec9190a250565b6001600160a01b038116600090815260208181526040808320546001909252909120546060919060ff166104cc57505060408051808201909152600c81526b70726f626174696f6e61727960a01b6020820152919050565b60648110156104ff57505060408051808201909152600c81526b70726f626174696f6e61727960a01b6020820152919050565b61012c81101561053157505060408051808201909152600a8152691c995cdd1c9a58dd195960b21b6020820152919050565b6102588110156105615750506040805180820190915260088152671cdd185b99185c9960c21b6020820152919050565b610320811015610591575050604080518082019091526008815267195b195d985d195960c21b6020820152919050565b505060408051808201909152600a8152696175746f6e6f6d6f757360b01b6020820152919050565b6003546001600160a01b031633146105e35760405162461bcd60e51b81526004016102659061097c565b600380546001600160a01b031981169091556040516001600160a01b039091169060009082907f8be0079c531659141344cd1fd0a4f28419497f9722a3daafe3b4186f6b6457e0908390a350565b6001600160a01b03811660009081526001602052604090205460ff166106b6576001600160a01b0381166000818152600160208181526040808420805460ff19169093179092558281529181902060649081905590519081527f3f669bad8f962150ec44776b24d84ea7746740070e5b124889da3a3dc42135b9910160405180910390a25b50565b6001600160a01b03811660009081526001602052604081205460ff166106e157506000919050565b506001600160a01b031660009081526020819052604090205490565b3360009081526002602052604090205460ff1661072c5760405162461bcd60e51b8152600401610265906109b3565b6001600160a01b03811660009081526001602052604090205460ff1661077d576001600160a01b0381166000908152600160208181526040808420805460ff19169093179092558290529020606490555b6001600160a01b03811660009081526020819052604081205490601482106107af576107aa601483610a27565b6107b2565b60005b6001600160a01b0384166000818152602081905260409081902083905551919250907f7e2add12a328a86680ec5cfd32c70eaa4590ecb9df3e614e146da05d547a5e30906103f19085908590918252602082015260606040820181905260079082015266616e6f6d616c7960c81b608082015260a00190565b6003546001600160a01b031633146108555760405162461bcd60e51b81526004016102659061097c565b6001600160a01b0381166108ab5760405162461bcd60e51b815260206004820152601b60248201527f547275737452656769737472793a207a65726f206164647265737300000000006044820152606401610265565b600380546001600160a01b038381166001600160a01b0319831681179093556040519116919082907f8be0079c531659141344cd1fd0a4f28419497f9722a3daafe3b4186f6b6457e090600090a35050565b60006020828403121561090f57600080fd5b81356001600160a01b038116811461092657600080fd5b9392505050565b60006020808352835180602085015260005b8181101561095b5785810183015185820160400152820161093f565b506000604082860101526040601f19601f8301168501019250505092915050565b60208082526018908201527f547275737452656769737472793a206e6f74206f776e65720000000000000000604082015260600190565b60208082526025908201527f547275737452656769737472793a206e6f7420617574686f72697a65642075706040820152643230ba32b960d91b606082015260800190565b634e487b7160e01b600052601160045260246000fd5b80820180821115610a2157610a216109f8565b92915050565b81810381811115610a2157610a216109f856fea264697066735822122041e05a81abe15e570ee2270d6b82dc9ef73a22ec6141e99dd8b9a9c3b373242764736f6c63430008180033",
  "linkReferences": {},
  "deployedLinkReferences": {}
}