{
  "_format": "hh-sol-artifact-1",
  "contractName": "IntentAttestation",
  "sourceName": "contracts/IntentAttestation.sol",
  "abi": [
    {
      "anonymous": false,
      "inputs": [
        {
          "indexed": true,
          "internalType": "bytes32",
          "name": "attestationId",
          "type": "bytes32"
        },
        {
          "indexed": true,
          "internalType": "address",
          "name": "wallet",
          "type": "address"
        },
        {
          "indexed": false,
          "internalType": "string",
          "name": "action",
          "type": "string"
        },
        {
          "indexed": false,
          "internalType": "address",
          "name": "recipient",
          "type": "address"
        },
        {
          "indexed": false,
          "internalType": "uint256",
          "name": "amount",
          "type": "uint256"
        }
      ],
      "name": "AttestationCreated",
      "type": "event"
    },
    {
      "inputs": [
        {
          "internalType": "bytes32",
          "name": "attestationId",
          "type": "bytes32"
        },
        {
          "internalType": "string",
          "name": "action",
          "type": "string"
        },
        {
          "internalType": "string",
          "name": "reason",
          "type": "string"
        },
        {
          "internalType": "address",
          "name": "recipient",
          "type": "address"
        },
        {
          "internalType": "uint256",
          "name": "amount",
          "type": "uint256"
        }
      ],
      "name": "attest",
      "outputs": [],
      "stateMutability": "nonpayable",
      "type": "function"
    },
    {
      "inputs": [
        {
          "internalType": "bytes32",
          "name": "attestationId",
          "type": "bytes32"
        }
      ],
      "name": "getAttestation",
      "outputs": [
        {
          "internalType": "bytes32",
          "name": "id",
          "type": "bytes32"
        },
        {
          "internalType": "address",
          "name": "wallet",
          "type": "address"
        },
        {
          "internalType": "string",
          "name": "action",
          "type": "string"
        },
        {
          "internalType": "string",
          "name": "reason",
          "type": "string"
        },
        {
          "internalType": "address",
          "name": "recipient",
          "type": "address"
        },
        {
          "internalType": "uint256",
          "name": "amount",
          "type": "uint256"
        },
        {
          "internalType": "uint256",
          "name": "timestamp",
          "type": "uint256"
        }
      ],
      "stateMutability": "view",
      "type": "function"
    },
    {
      "inputs": [
        {
          "internalType": "bytes32",
          "name": "attestationId",
          "type": "bytes32"
        },
        {
          "internalType": "address",
          "name": "wallet",
          "type": "address"
        }
      ],
      "name": "verify",
      "outputs": [
        {
          "internalType": "bool",
          "name": "",
          "type": "bool"
        }
      ],
      "stateMutability": "view",
      "type": "function"
    }
  ],
  "bytecode": "0x608060405234801561001057600080fd5b506108a3806100206000396000f3fe608060405234801561001057600080fd5b50600436106100415760003560e01c80631d13551514610046578063a3112a641461005b578063b88fbd2d1461008a575b600080fd5b61005961005436600461054b565b6100ad565b005b61006e6100693660046105df565b6102c8565b604051610081979695949392919061063e565b60405180910390f35b61009d610098366004610697565b6104a5565b6040519015158152602001610081565b60008781526001602052604090205460ff161561011b5760405162461bcd60e51b815260206004820152602160248201527f496e74656e744174746573746174696f6e3a20616c72656164792065786973746044820152607360f81b60648201526084015b60405180910390fd5b6040518060e00160405280888152602001336001600160a01b0316815260200187878080601f016020809104026020016040519081016040528093929190818152602001838380828437600092019190915250505090825250604080516020601f88018190048102820181019092528681529181019190879087908190840183828082843760009201829052509385525050506001600160a01b038581166020808501919091526040808501879052426060909501949094528b83528281529183902084518155918401516001830180546001600160a01b031916919092161790559082015160028201906102109082610764565b50606082015160038201906102259082610764565b5060808201516004820180546001600160a01b0319166001600160a01b0390921691909117905560a0820151600582015560c090910151600690910155600087815260016020819052604091829020805460ff1916909117905551339088907f36c9f3f48cacf608221439144a5ceb32e0f8c83697f52dcc17c1ce5bfeaed092906102b7908a908a9088908890610824565b60405180910390a350505050505050565b6000818152600160205260408120548190606090819083908190819060ff166103335760405162461bcd60e51b815260206004820152601c60248201527f496e74656e744174746573746174696f6e3a206e6f7420666f756e64000000006044820152606401610112565b6000888152602081905260409020805460018201546004830154600584015460068501546002860180546001600160a01b03958616959194600389019492169290859061037f906106d9565b80601f01602080910402602001604051908101604052809291908181526020018280546103ab906106d9565b80156103f85780601f106103cd576101008083540402835291602001916103f8565b820191906000526020600020905b8154815290600101906020018083116103db57829003601f168201915b5050505050945083805461040b906106d9565b80601f0160208091040260200160405190810160405280929190818152602001828054610437906106d9565b80156104845780601f1061045957610100808354040283529160200191610484565b820191906000526020600020905b81548152906001019060200180831161046757829003601f168201915b50505050509350975097509750975097509750975050919395979092949650565b60008281526001602052604081205460ff1680156104df57506000838152602081905260409020600101546001600160a01b038381169116145b9392505050565b60008083601f8401126104f857600080fd5b50813567ffffffffffffffff81111561051057600080fd5b60208301915083602082850101111561052857600080fd5b9250929050565b80356001600160a01b038116811461054657600080fd5b919050565b600080600080600080600060a0888a03121561056657600080fd5b87359650602088013567ffffffffffffffff8082111561058557600080fd5b6105918b838c016104e6565b909850965060408a01359150808211156105aa57600080fd5b506105b78a828b016104e6565b90955093506105ca90506060890161052f565b91506080880135905092959891949750929550565b6000602082840312156105f157600080fd5b5035919050565b6000815180845260005b8181101561061e57602081850181015186830182015201610602565b506000602082860101526020601f19601f83011685010191505092915050565b878152600060018060a01b03808916602084015260e0604084015261066660e08401896105f8565b838103606085015261067881896105f8565b91909616608084015260a08301949094525060c0015295945050505050565b600080604083850312156106aa57600080fd5b823591506106ba6020840161052f565b90509250929050565b634e487b7160e01b600052604160045260246000fd5b600181811c908216806106ed57607f821691505b60208210810361070d57634e487b7160e01b600052602260045260246000fd5b50919050565b601f82111561075f576000816000526020600020601f850160051c8101602086101561073c5750805b601f850160051c820191505b8181101561075b57828155600101610748565b5050505b505050565b815167ffffffffffffffff81111561077e5761077e6106c3565b6107928161078c84546106d9565b84610713565b602080601f8311600181146107c757600084156107af5750858301515b600019600386901b1c1916600185901b17855561075b565b600085815260208120601f198616915b828110156107f6578886015182559484019460019091019084016107d7565b50858210156108145787850151600019600388901b60f8161c191681555b5050505050600190811b01905550565b6060815283606082015283856080830137600060808583018101919091526001600160a01b039390931660208201526040810191909152601f909201601f19169091010191905056fea2646970667358221220260d14262724d7acd28fbdec5f20307128843d663daa97a54b8f2fc37dc988b564736f6c63430008180033",
  "linkReferences": {},
  "deployedLinkReferences": {}
}