{
  "_format": "hh-sol-artifact-1",
  "contractName": "SettlementCoordinator",
  "sourceName": "contracts/SettlementCoordinator.sol",
  "abi": [
    {
      "anonymous": false,
      "inputs": [
        {
          "indexed": true,
          "internalType": "bytes32",
          "name": "proposalId",
          "type": "bytes32"
        }
      ],
      "name": "ProposalAccepted",
      "type": "event"
    },
    {
      "anonymous": false,
      "inputs": [
        {
          "indexed": true,
          "internalType": "bytes32",
          "name": "proposalId",
          "type": "bytes32"
        },
        {
          "indexed": true,
          "internalType": "address",
          "name": "from",
          "type": "address"
        },
        {
          "indexed": true,
          "internalType": "address",
          "name": "to",
          "type": "address"
        },
        {
          "indexed": false,
          "internalType": "uint256",
          "name": "amount",
          "type": "uint256"
        }
      ],
      "name": "ProposalCreated",
      "type": "event"
    },
    {
      "anonymous": false,
      "inputs": [
        {
          "indexed": true,
          "internalType": "bytes32",
          "name": "proposalId",
          "type": "bytes32"
        },
        {
          "indexed": false,
          "internalType": "uint256",
          "name": "amount",
          "type": "uint256"
        }
      ],
      "name": "ProposalExecuted",
      "type": "event"
    },
    {
      "anonymous": false,
      "inputs": [
        {
          "indexed": true,
          "internalType": "bytes32",
          "name": "proposalId",
          "type": "bytes32"
        }
      ],
      "name": "ProposalExpired",
      "type": "event"
    },
    {
      "anonymous": false,
      "inputs": [
        {
          "indexed": true,
          "internalType": "bytes32",
          "name": "proposalId",
          "type": "bytes32"
        },
        {
          "indexed": false,
          "internalType": "string",
          "name": "reason",
          "type": "string"
        }
      ],
      "name": "ProposalRejected",
      "type": "event"
    },
    {
      "inputs": [
        {
          "internalType": "bytes32",
          "name": "proposalId",
          "type": "bytes32"
        }
      ],
      "name": "accept",
      "outputs": [],
      "stateMutability": "nonpayable",
      "type": "function"
    },
    {
      "inputs": [
        {
          "internalType": "bytes32",
          "name": "proposalId",
          "type": "bytes32"
        }
      ],
      "name": "checkExpiry",
      "outputs": [],
      "stateMutability": "nonpayable",
      "type": "function"
    },
    {
      "inputs": [
        {
          "internalType": "bytes32",
          "name": "proposalId",
          "type": "bytes32"
        }
      ],
      "name": "execute",
      "outputs": [],
      "stateMutability": "payable",
      "type": "function"
    },
    {
      "inputs": [
        {
          "internalType": "bytes32",
          "name": "proposalId",
          "type": "bytes32"
        }
      ],
      "name": "getProposal",
      "outputs": [
        {
          "internalType": "address",
          "name": "fromWallet",
          "type": "address"
        },
        {
          "internalType": "address",
          "name": "toWallet",
          "type": "address"
        },
        {
          "internalType": "uint256",
          "name": "amount",
          "type": "uint256"
        },
        {
          "internalType": "bytes32",
          "name": "intentId",
          "type": "bytes32"
        },
        {
          "internalType": "uint256",
          "name": "expiresAt",
          "type": "uint256"
        },
        {
          "internalType": "enum SettlementCoordinator.ProposalStatus",
          "name": "status",
          "type": "uint8"
        },
        {
          "internalType": "string",
          "name": "rejectionReason",
          "type": "string"
        }
      ],
      "stateMutability": "view",
      "type": "function"
    },
    {
      "inputs": [
        {
          "internalType": "address",
          "name": "fromWallet",
          "type": "address"
        },
        {
          "internalType": "address",
          "name": "toWallet",
          "type": "address"
        },
        {
          "internalType": "uint256",
          "name": "amount",
          "type": "uint256"
        },
        {
          "internalType": "bytes32",
          "name": "intentId",
          "type": "bytes32"
        },
        {
          "internalType": "uint256",
          "name": "expiresAt",
          "type": "uint256"
        }
      ],
      "name": "propose",
      "outputs": [
        {
          "internalType": "bytes32",
          "name": "proposalId",
          "type": "bytes32"
        }
      ],
      "stateMutability": "nonpayable",
      "type": "function"
    },
    {
      "inputs": [
        {
          "internalType": "bytes32",
          "name": "proposalId",
          "type": "bytes32"
        },
        {
          "internalType": "string",
          "name": "reason",
          "type": "string"
        }
      ],
      "name": "reject",
      "outputs": [],
      "stateMutability": "nonpayable",
      "type": "function"
    }
  ],
  "bytecode": "0x608060405234801561001057600080fd5b50610fb1806100206000396000f3fe6080604052600436106100555760003560e01c8063430694cf1461005a5780635df9758c146100965780637864848e146100b8578063a1df190e146100e6578063e4725ba114610106578063e751f27114610126575b600080fd5b34801561006657600080fd5b5061007a610075366004610ab4565b610139565b60405161008d9796959493929190610ae3565b60405180910390f35b3480156100a257600080fd5b506100b66100b1366004610ab4565b61026a565b005b3480156100c457600080fd5b506100d86100d3366004610ba7565b610375565b60405190815260200161008d565b3480156100f257600080fd5b506100b6610101366004610bf4565b6105c2565b34801561011257600080fd5b506100b6610121366004610ab4565b6106bc565b6100b6610134366004610ab4565b6107e9565b6000818152600160205260408120548190819081908190819060609060ff1661017d5760405162461bcd60e51b815260040161017490610c70565b60405180910390fd5b60008881526020819052604090206001810154600282015460038301546004840154600585015460068601546007870180546001600160a01b03978816979096169560ff9092169181906101d090610ca5565b80601f01602080910402602001604051908101604052809291908181526020018280546101fc90610ca5565b80156102495780601f1061021e57610100808354040283529160200191610249565b820191906000526020600020905b81548152906001019060200180831161022c57829003601f168201915b50505050509050975097509750975097509750975050919395979092949650565b60008181526020818152604080832060019092529091205460ff166102a15760405162461bcd60e51b815260040161017490610c70565b6000600682015460ff1660048111156102bc576102bc610acd565b146102d95760405162461bcd60e51b815260040161017490610cdf565b806005015442116103375760405162461bcd60e51b815260206004820152602260248201527f536574746c656d656e74436f6f7264696e61746f723a206e6f74206578706972604482015261195960f21b6064820152608401610174565b60068101805460ff1916600417905560405182907f58f98006a7f2f253f8ae8f8b7cec9008ca05359633561cd7c22f3005682d4a5590600090a25050565b6040516bffffffffffffffffffffffff19606087811b8216602084015286901b166034820152604881018490526068810183905242608882015260009060a80160408051601f1981840301815291815281516020928301206000818152600190935291205490915060ff161561043c5760405162461bcd60e51b815260206004820152602660248201527f536574746c656d656e74436f6f7264696e61746f723a2070726f706f73616c2060448201526565786973747360d01b6064820152608401610174565b604051806101000160405280828152602001876001600160a01b03168152602001866001600160a01b031681526020018581526020018481526020018381526020016000600481111561049157610491610acd565b81526040805160208181018352600080835293810191909152848352828152918190208351815591830151600180840180546001600160a01b039384166001600160a01b0319918216179091559285015160028501805491909316931692909217905560608301516003830155608083015160048084019190915560a0840151600584015560c08401516006840180549193909260ff1990921691849081111561053d5761053d610acd565b021790555060e082015160078201906105569082610d87565b505050600081815260016020818152604092839020805460ff191690921790915590518581526001600160a01b03878116929089169184917f1c45a9f89466c8846aa80a030a358beaf4e0c93475215ede8282a140a9339c64910160405180910390a495945050505050565b60008381526020818152604080832060019092529091205460ff166105f95760405162461bcd60e51b815260040161017490610c70565b6000600682015460ff16600481111561061457610614610acd565b146106315760405162461bcd60e51b815260040161017490610cdf565b60028101546001600160a01b0316331461065d5760405162461bcd60e51b815260040161017490610e47565b60068101805460ff191660021790556007810161067b838583610e8b565b50837febe3a04753891955f03c6d0877f7bf85641e9ea84d7d0db932d44d5fda30b70d84846040516106ae929190610f4c565b60405180910390a250505050565b60008181526020818152604080832060019092529091205460ff166106f35760405162461bcd60e51b815260040161017490610c70565b6000600682015460ff16600481111561070e5761070e610acd565b1461072b5760405162461bcd60e51b815260040161017490610cdf565b806005015442111561077f5760405162461bcd60e51b815260206004820152601e60248201527f536574746c656d656e74436f6f7264696e61746f723a206578706972656400006044820152606401610174565b60028101546001600160a01b031633146107ab5760405162461bcd60e51b815260040161017490610e47565b60068101805460ff1916600117905560405182907f942e1b58e86195262137610a19da111b7d2263eb4b95d67a856e77abc0ad683490600090a25050565b60008181526020818152604080832060019092529091205460ff166108205760405162461bcd60e51b815260040161017490610c70565b6001600682015460ff16600481111561083b5761083b610acd565b146108945760405162461bcd60e51b815260206004820152602360248201527f536574746c656d656e74436f6f7264696e61746f723a206e6f742061636365706044820152621d195960ea1b6064820152608401610174565b80600501544211156108e85760405162461bcd60e51b815260206004820152601e60248201527f536574746c656d656e74436f6f7264696e61746f723a206578706972656400006044820152606401610174565b60018101546001600160a01b0316331461094e5760405162461bcd60e51b815260206004820152602160248201527f536574746c656d656e74436f6f7264696e61746f723a206e6f742073656e64656044820152603960f91b6064820152608401610174565b806003015434146109ad5760405162461bcd60e51b815260206004820152602360248201527f536574746c656d656e74436f6f7264696e61746f723a2077726f6e6720616d6f6044820152621d5b9d60ea1b6064820152608401610174565b60068101805460ff1916600390811790915581015460405190815282907f120985525cfb78f6c03f96986f9687f49caf81e29350d21fa052e8c0df211ebb9060200160405180910390a2600281015460038201546040516000926001600160a01b031691908381818185875af1925050503d8060008114610a4a576040519150601f19603f3d011682016040523d82523d6000602084013e610a4f565b606091505b5050905080610aaf5760405162461bcd60e51b815260206004820152602660248201527f536574746c656d656e74436f6f7264696e61746f723a207472616e736665722060448201526519985a5b195960d21b6064820152608401610174565b505050565b600060208284031215610ac657600080fd5b5035919050565b634e487b7160e01b600052602160045260246000fd5b600060018060a01b03808a1683526020818a16602085015288604085015287606085015286608085015260058610610b2b57634e487b7160e01b600052602160045260246000fd5b8560a085015260e060c0850152845191508160e085015260005b82811015610b625785810182015185820161010001528101610b45565b5050610100600081838601015280601f19601f8401168501019250505098975050505050505050565b80356001600160a01b0381168114610ba257600080fd5b919050565b600080600080600060a08688031215610bbf57600080fd5b610bc886610b8b565b9450610bd660208701610b8b565b94979496505050506040830135926060810135926080909101359150565b600080600060408486031215610c0957600080fd5b83359250602084013567ffffffffffffffff80821115610c2857600080fd5b818601915086601f830112610c3c57600080fd5b813581811115610c4b57600080fd5b876020828501011115610c5d57600080fd5b6020830194508093505050509250925092565b6020808252818101527f536574746c656d656e74436f6f7264696e61746f723a206e6f7420666f756e64604082015260600190565b600181811c90821680610cb957607f821691505b602082108103610cd957634e487b7160e01b600052602260045260246000fd5b50919050565b60208082526022908201527f536574746c656d656e74436f6f7264696e61746f723a206e6f742070656e64696040820152616e6760f01b606082015260800190565b634e487b7160e01b600052604160045260246000fd5b601f821115610aaf576000816000526020600020601f850160051c81016020861015610d605750805b601f850160051c820191505b81811015610d7f57828155600101610d6c565b505050505050565b815167ffffffffffffffff811115610da157610da1610d21565b610db581610daf8454610ca5565b84610d37565b602080601f831160018114610dea5760008415610dd25750858301515b600019600386901b1c1916600185901b178555610d7f565b600085815260208120601f198616915b82811015610e1957888601518255948401946001909101908401610dfa565b5085821015610e375787850151600019600388901b60f8161c191681555b5050505050600190811b01905550565b60208082526024908201527f536574746c656d656e74436f6f7264696e61746f723a206e6f742072656369706040820152631a595b9d60e21b606082015260800190565b67ffffffffffffffff831115610ea357610ea3610d21565b610eb783610eb18354610ca5565b83610d37565b6000601f841160018114610eeb5760008515610ed35750838201355b600019600387901b1c1916600186901b178355610f45565b600083815260209020601f19861690835b82811015610f1c5786850135825560209485019460019092019101610efc565b5086821015610f395760001960f88860031b161c19848701351681555b505060018560011b0183555b5050505050565b60208152816020820152818360408301376000818301604090810191909152601f909201601f1916010191905056fea2646970667358221220992f31321fa8117cfe063fd06ec4ffa676f2b224817c307d07c7af55f88b973664736f6c63430008180033",
  "linkReferences": {},
  "deployedLinkReferences": {}
}