{
  "_format": "hh-sol-artifact-1",
  "contractName": "PolicyEngine",
  "sourceName": "contracts/PolicyEngine.sol",
  "abi": [
    {
      "anonymous": false,
      "inputs": [
        {
          "indexed": true,
          "internalType": "address",
          "name": "wallet",
          "type": "address"
        },
        {
          "indexed": false,
          "internalType": "string",
          "name": "category",
          "type": "string"
        },
        {
          "indexed": false,
          "internalType": "uint256",
          "name": "limitPerTx",
          "type": "uint256"
        }
      ],
      "name": "CategoryLimitSet",
      "type": "event"
    },
    {
      "anonymous": false,
      "inputs": [
        {
          "indexed": true,
          "internalType": "address",
          "name": "wallet",
          "type": "address"
        },
        {
          "indexed": false,
          "internalType": "bytes32",
          "name": "policyHash",
          "type": "bytes32"
        }
      ],
      "name": "PolicySet",
      "type": "event"
    },
    {
      "inputs": [
        {
          "internalType": "address",
          "name": "",
          "type": "address"
        },
        {
          "internalType": "string",
          "name": "",
          "type": "string"
        }
      ],
      "name": "categoryLimits",
      "outputs": [
        {
          "internalType": "uint256",
          "name": "",
          "type": "uint256"
        }
      ],
      "stateMutability": "view",
      "type": "function"
    },
    {
      "inputs": [
        {
          "internalType": "address",
          "name": "wallet",
          "type": "address"
        }
      ],
      "name": "getPolicy",
      "outputs": [
        {
          "internalType": "bytes32",
          "name": "",
          "type": "bytes32"
        },
        {
          "internalType": "bytes",
          "name": "",
          "type": "bytes"
        }
      ],
      "stateMutability": "view",
      "type": "function"
    },
    {
      "inputs": [
        {
          "internalType": "address",
          "name": "wallet",
          "type": "address"
        },
        {
          "internalType": "address",
          "name": "owner",
          "type": "address"
        }
      ],
      "name": "registerWallet",
      "outputs": [],
      "stateMutability": "nonpayable",
      "type": "function"
    },
    {
      "inputs": [
        {
          "internalType": "string",
          "name": "category",
          "type": "string"
        },
        {
          "internalType": "uint256",
          "name": "limitPerTx",
          "type": "uint256"
        }
      ],
      "name": "setCategoryLimit",
      "outputs": [],
      "stateMutability": "nonpayable",
      "type": "function"
    },
    {
      "inputs": [
        {
          "internalType": "address",
          "name": "wallet",
          "type": "address"
        },
        {
          "internalType": "string",
          "name": "category",
          "type": "string"
        },
        {
          "internalType": "uint256",
          "name": "limitPerTx",
          "type": "uint256"
        }
      ],
      "name": "setCategoryLimitFor",
      "outputs": [],
      "stateMutability": "nonpayable",
      "type": "function"
    },
    {
      "inputs": [
        {
          "internalType": "bytes32",
          "name": "policyHash",
          "type": "bytes32"
        },
        {
          "internalType": "bytes",
          "name": "policyData",
          "type": "bytes"
        }
      ],
      "name": "setPolicy",
      "outputs": [],
      "stateMutability": "nonpayable",
      "type": "function"
    },
    {
      "inputs": [
        {
          "internalType": "address",
          "name": "wallet",
          "type": "address"
        },
        {
          "internalType": "string",
          "name": "category",
          "type": "string"
        },
        {
          "internalType": "uint256",
          "name": "amount",
          "type": "uint256"
        },
        {
          "internalType": "bytes32",
          "name": "",
          "type": "bytes32"
        }
      ],
      "name": "validateSpend",
      "outputs": [
        {
          "internalType": "bool",
          "name": "valid",
          "type": "bool"
        },
        {
          "internalType": "string",
          "name": "reason",
          "type": "string"
        }
      ],
      "stateMutability": "view",
      "type": "function"
    },
    {
      "inputs": [
        {
          "internalType": "address",
          "name": "",
          "type": "address"
        }
      ],
      "name": "walletOwners",
      "outputs": [
        {
          "internalType": "address",
          "name": "",
          "type": "address"
        }
      ],
      "stateMutability": "view",
      "type": "function"
    }
  ],
  "bytecode": "0x608060405234801561001057600080fd5b50610afc806100206000396000f3fe608060405234801561001057600080fd5b50600436106100885760003560e01c8063a8e9379a1161005b578063a8e9379a1461014e578063b15c743a1461018f578063c9b3f8ad146101a2578063d15d5e08146101c357600080fd5b8063098fbe9b1461008d5780633791dc6a146100dc5780634f9975a5146100fd5780639679372514610112575b600080fd5b6100c961009b3660046105a9565b6001602090815260009283526040909220815180830184018051928152908401929093019190912091525481565b6040519081526020015b60405180910390f35b6100ef6100ea36600461066b565b6101d6565b6040516100d39291906106d3565b61011061010b36600461073d565b610291565b005b610110610120366004610789565b6001600160a01b03918216600090815260026020526040902080546001600160a01b03191691909216179055565b61017761015c36600461066b565b6002602052600090815260409020546001600160a01b031681565b6040516001600160a01b0390911681526020016100d3565b61011061019d3660046107bc565b610307565b6101b56101b0366004610808565b6103b6565b6040516100d392919061086d565b6101106101d1366004610888565b61046e565b6001600160a01b038116600090815260208190526040812080546001820180546060939291908190610207906108e2565b80601f0160208091040260200160405190810160405280929190818152602001828054610233906108e2565b80156102805780601f1061025557610100808354040283529160200191610280565b820191906000526020600020905b81548152906001019060200180831161026357829003601f168201915b505050505090509250925050915091565b336000908152600160205260409081902090518291906102b4908690869061091c565b9081526040519081900360200181209190915533907f844891fdaecb602b3a217b24d12ce10a0b56d973e6c938e4ebd8035757ab1418906102fa9086908690869061092c565b60405180910390a2505050565b604051806060016040528084815260200183838080601f016020809104026020016040519081016040528093929190818152602001838380828437600092018290525093855250504260209384015250338152808252604090208251815590820151600182019061037890826109b6565b50604091820151600291909101555183815233907f053c16c21cccdb49bf267bb56fcf981eee54706d8c3de260e601cc5421efffbb906020016102fa565b6001600160a01b038516600090815260016020526040808220905160609183916103e3908990899061091c565b908152602001604051809103902054905080600003610421576000604051806060016040528060258152602001610aa2602591399250925050610464565b8085111561044e5760006040518060600160405280602b8152602001610a77602b91399250925050610464565b5050604080516020810190915260008152600191505b9550959350505050565b6001600160a01b038481166000908152600260205260409020541633148061049e57506001600160a01b03841633145b6104ee5760405162461bcd60e51b815260206004820152601c60248201527f506f6c696379456e67696e653a206e6f7420617574686f72697a656400000000604482015260640160405180910390fd5b6001600160a01b03841660009081526001602052604090819020905182919061051a908690869061091c565b908152602001604051809103902081905550836001600160a01b03167f844891fdaecb602b3a217b24d12ce10a0b56d973e6c938e4ebd8035757ab14188484846040516105699392919061092c565b60405180910390a250505050565b80356001600160a01b038116811461058e57600080fd5b919050565b634e487b7160e01b600052604160045260246000fd5b600080604083850312156105bc57600080fd5b6105c583610577565b9150602083013567ffffffffffffffff808211156105e257600080fd5b818501915085601f8301126105f657600080fd5b81358181111561060857610608610593565b604051601f8201601f19908116603f0116810190838211818310171561063057610630610593565b8160405282815288602084870101111561064957600080fd5b8260208601602083013760006020848301015280955050505050509250929050565b60006020828403121561067d57600080fd5b61068682610577565b9392505050565b6000815180845260005b818110156106b357602081850181015186830182015201610697565b506000602082860101526020601f19601f83011685010191505092915050565b8281526040602082015260006106ec604083018461068d565b949350505050565b60008083601f84011261070657600080fd5b50813567ffffffffffffffff81111561071e57600080fd5b60208301915083602082850101111561073657600080fd5b9250929050565b60008060006040848603121561075257600080fd5b833567ffffffffffffffff81111561076957600080fd5b610775868287016106f4565b909790965060209590950135949350505050565b6000806040838503121561079c57600080fd5b6107a583610577565b91506107b360208401610577565b90509250929050565b6000806000604084860312156107d157600080fd5b83359250602084013567ffffffffffffffff8111156107ef57600080fd5b6107fb868287016106f4565b9497909650939450505050565b60008060008060006080868803121561082057600080fd5b61082986610577565b9450602086013567ffffffffffffffff81111561084557600080fd5b610851888289016106f4565b9699909850959660408101359660609091013595509350505050565b82151581526040602082015260006106ec604083018461068d565b6000806000806060858703121561089e57600080fd5b6108a785610577565b9350602085013567ffffffffffffffff8111156108c357600080fd5b6108cf878288016106f4565b9598909750949560400135949350505050565b600181811c908216806108f657607f821691505b60208210810361091657634e487b7160e01b600052602260045260246000fd5b50919050565b8183823760009101908152919050565b604081528260408201528284606083013760006060848301015260006060601f19601f8601168301019050826020830152949350505050565b601f8211156109b1576000816000526020600020601f850160051c8101602086101561098e5750805b601f850160051c820191505b818110156109ad5782815560010161099a565b5050505b505050565b815167ffffffffffffffff8111156109d0576109d0610593565b6109e4816109de84546108e2565b84610965565b602080601f831160018114610a195760008415610a015750858301515b600019600386901b1c1916600185901b1785556109ad565b600085815260208120601f198616915b82811015610a4857888601518255948401946001909101908401610a29565b5085821015610a665787850151600019600388901b60f8161c191681555b5050505050600190811b0190555056fe506f6c696379456e67696e653a20616d6f756e7420657863656564732063617465676f7279206c696d6974506f6c696379456e67696e653a2063617465676f7279206e6f7420636f6e66696775726564a26469706673582212200636715809cdbb734eb93c7e5e8aab6f15c93e5c4ccda5e8023c4966fb91719e64736f6c63430008180033",
  "linkReferences": {},
  "deployedLinkReferences": {}
}