{"contracts/TrustRegistry.sol":{"TrustRegistry":{"abi":[{"inputs":[],"stateMutability":"nonpayable","type":"constructor"},{"anonymous":false,"inputs":[{"indexed":true,"internalType":"address","name":"oldOwner","type":"address"},{"indexed":true,"internalType":"address","name":"newOwner","type":"address"}],"name":"OwnershipTransferred","type":"event"},{"anonymous":false,"inputs":[{"indexed":true,"internalType":"address","name":"wallet","type":"address"},{"indexed":false,"internalType":"uint256","name":"oldScore","type":"uint256"},{"indexed":false,"internalType":"uint256","name":"newScore","type":"uint256"},{"indexed":false,"internalType":"string","name":"reason","type":"string"}],"name":"ScoreUpdated","type":"event"},{"anonymous":false,"inputs":[{"indexed":true,"internalType":"address","name":"updater","type":"address"}],"name":"UpdaterAdded","type":"event"},{"anonymous":false,"inputs":[{"indexed":true,"internalType":"address","name":"updater","type":"address"}],"name":"UpdaterRemoved","type":"event"},{"anonymous":false,"inputs":[{"indexed":true,"internalType":"address","name":"wallet","type":"address"},{"indexed":false,"internalType":"uint256","name":"score","type":"uint256"}],"name":"WalletInitialized","type":"event"},{"inputs":[],"name":"DECREMENT","outputs":[{"internalType":"uint256","name":"","type":"uint256"}],"stateMutability":"view","type":"function"},{"inputs":[],"name":"INCREMENT","outputs":[{"internalType":"uint256","name":"","type":"uint256"}],"stateMutability":"view","type":"function"},{"inputs":[],"name":"INITIAL_SCORE","outputs":[{"internalType":"uint256","name":"","type":"uint256"}],"stateMutability":"view","type":"function"},{"inputs":[],"name":"MAX_SCORE","outputs":[{"internalType":"uint256","name":"","type":"uint256"}],"stateMutability":"view","type":"function"},{"inputs":[{"internalType":"address","name":"updater","type":"address"}],"name":"addUpdater","outputs":[],"stateMutability":"nonpayable","type":"function"},{"inputs":[{"internalType":"address","name":"wallet","type":"address"}],"name":"getScore","outputs":[{"internalType":"uint256","name":"","type":"uint256"}],"stateMutability":"view","type":"function"},{"inputs":[{"internalType":"address","name":"wallet","type":"address"}],"name":"getTrustLevel","outputs":[{"internalType":"string","name":"","type":"string"}],"stateMutability":"view","type":"function"},{"inputs":[{"internalType":"address","name":"wallet","type":"address"}],"name":"initWallet","outputs":[],"stateMutability":"nonpayable","type":"function"},{"inputs":[{"internalType":"address","name":"","type":"address"}],"name":"isAuthorizedUpdater","outputs":[{"internalType":"bool","name":"","type":"bool"}],"stateMutability":"view","type":"function"},{"inputs":[],"name":"owner","outputs":[{"internalType":"address","name":"","type":"address"}],"stateMutability":"view","type":"function"},{"inputs":[{"internalType":"address","name":"wallet","type":"address"}],"name":"recordAnomaly","outputs":[],"stateMutability":"nonpayable","type":"function"},{"inputs":[{"internalType":"address","name":"wallet","type":"address"}],"name":"recordSuccess","outputs":[],"stateMutability":"nonpayable","type":"function"},{"inputs":[{"internalType":"address","name":"updater","type":"address"}],"name":"removeUpdater","outputs":[],"stateMutability":"nonpayable","type":"function"},{"inputs":[],"name":"renounceOwnership","outputs":[],"stateMutability":"nonpayable","type":"function"},{"inputs":[{"internalType":"address","name":"newOwner","type":"address"}],"name":"transferOwnership","outputs":[],"stateMutability":"nonpayable","type":"function"}],"evm":{"bytecode":{"linkReferences":{},"object":"608060405234801561001057600080fd5b50600380546001600160a01b031916339081179091556000908152600260205260409020805460ff19166001179055610a708061004e6000396000f3fe608060405234801561001057600080fd5b50600436106100f55760003560e01c80639da8be2111610097578063d47875d011610066578063d47875d0146101fa578063d8f6171d1461020d578063de33037314610220578063f2fde38b1461022857600080fd5b80639da8be21146101a4578063a2534c97146101b7578063b865bccc146101bf578063ce7f0cc3146101f257600080fd5b806343d24a5e116100d357806343d24a5e1461013e5780636a4b783d14610151578063715018a6146101715780638da5cb5b1461017957600080fd5b806304b07a5e146100fa57806327ff62231461010f578063423412871461012b575b600080fd5b61010d6101083660046108fd565b61023b565b005b6101186103e881565b6040519081526020015b60405180910390f35b61010d6101393660046108fd565b6102b7565b61010d61014c3660046108fd565b6103fe565b61016461015f3660046108fd565b610474565b604051610122919061092d565b61010d6105b9565b60035461018c906001600160a01b031681565b6040516001600160a01b039091168152602001610122565b61010d6101b23660046108fd565b610631565b610118601481565b6101e26101cd3660046108fd565b60026020526000908152604090205460ff1681565b6040519015158152602001610122565b610118600581565b6101186102083660046108fd565b6106b9565b61010d61021b3660046108fd565b6106fd565b610118606481565b61010d6102363660046108fd565b61082b565b6003546001600160a01b0316331461026e5760405162461bcd60e51b81526004016102659061097c565b60405180910390fd5b6001600160a01b038116600081815260026020526040808220805460ff19169055517f209d819a9ec655e89f2b2b9d65c8a78879b45a8f20d1941d69c5fe6dc21bcb629190a250565b3360009081526002602052604090205460ff166102e65760405162461bcd60e51b8152600401610265906109b3565b6001600160a01b03811660009081526001602052604090205460ff16610337576001600160a01b0381166000908152600160208181526040808420805460ff19169093179092558290529020606490555b6001600160a01b038116600090815260208190526040812054906103e861035f600584610a0e565b116103745761036f600583610a0e565b610378565b6103e85b6001600160a01b0384166000818152602081905260409081902083905551919250907f7e2add12a328a86680ec5cfd32c70eaa4590ecb9df3e614e146da05d547a5e30906103f190859085909182526020820152606060408201819052600790820152667375636365737360c81b608082015260a00190565b60405180910390a2505050565b6003546001600160a01b031633146104285760405162461bcd60e51b81526004016102659061097c565b6001600160a01b038116600081815260026020526040808220805460ff19166001179055517f23a38f89c31ff6329bf86f3863cfa2ad8fc1462c40dbf907dbbebb8f9cb237ec9190a250565b6001600160a01b038116600090815260208181526040808320546001909252909120546060919060ff166104cc57505060408051808201909152600c81526b70726f626174696f6e61727960a01b6020820152919050565b60648110156104ff57505060408051808201909152600c81526b70726f626174696f6e61727960a01b6020820152919050565b61012c81101561053157505060408051808201909152600a8152691c995cdd1c9a58dd195960b21b6020820152919050565b6102588110156105615750506040805180820190915260088152671cdd185b99185c9960c21b6020820152919050565b610320811015610591575050604080518082019091526008815267195b195d985d195960c21b6020820152919050565b505060408051808201909152600a8152696175746f6e6f6d6f757360b01b6020820152919050565b6003546001600160a01b031633146105e35760405162461bcd60e51b81526004016102659061097c565b600380546001600160a01b031981169091556040516001600160a01b039091169060009082907f8be0079c531659141344cd1fd0a4f28419497f9722a3daafe3b4186f6b6457e0908390a350565b6001600160a01b03811660009081526001602052604090205460ff166106b6576001600160a01b0381166000818152600160208181526040808420805460ff19169093179092558281529181902060649081905590519081527f3f669bad8f962150ec44776b24d84ea7746740070e5b124889da3a3dc42135b9910160405180910390a25b50565b6001600160a01b03811660009081526001602052604081205460ff166106e157506000919050565b506001600160a01b031660009081526020819052604090205490565b3360009081526002602052604090205460ff1661072c5760405162461bcd60e51b8152600401610265906109b3565b6001600160a01b03811660009081526001602052604090205460ff1661077d576001600160a01b0381166000908152600160208181526040808420805460ff19169093179092558290529020606490555b6001600160a01b03811660009081526020819052604081205490601482106107af576107aa601483610a27565b6107b2565b60005b6001600160a01b0384166000818152602081905260409081902083905551919250907f7e2add12a328a86680ec5cfd32c70eaa4590ecb9df3e614e146da05d547a5e30906103f19085908590918252602082015260606040820181905260079082015266616e6f6d616c7960c81b608082015260a00190565b6003546001600160a01b031633146108555760405162461bcd60e51b81526004016102659061097c565b6001600160a01b0381166108ab5760405162461bcd60e51b815260206004820152601b60248201527f547275737452656769737472793a207a65726f206164647265737300000000006044820152606401610265565b600380546001600160a01b038381166001600160a01b0319831681179093556040519116919082907f8be0079c531659141344cd1fd0a4f28419497f9722a3daafe3b4186f6b6457e090600090a35050565b60006020828403121561090f57600080fd5b81356001600160a01b038116811461092657600080fd5b9392505050565b60006020808352835180602085015260005b8181101561095b5785810183015185820160400152820161093f565b506000604082860101526040601f19601f8301168501019250505092915050565b60208082526018908201527f547275737452656769737472793a206e6f74206f776e65720000000000000000604082015260600190565b60208082526025908201527f547275737452656769737472793a206e6f7420617574686f72697a65642075706040820152643230ba32b960d91b606082015260800190565b634e487b7160e01b600052601160045260246000fd5b80820180821115610a2157610a216109f8565b92915050565b81810381811115610a2157610a216109f856fea264697066735822122041e05a81abe15e570ee2270d6b82dc9ef73a22ec6141e99dd8b9a9c3b373242764736f6c63430008180033","opcodes":"PUSH1 0x80 PUSH1 0x40 MSTORE CALLVALUE DUP1 ISZERO PUSH2 0x10 JUMPI PUSH1 0x0 DUP1 REVERT JUMPDEST POP PUSH1 0x3 DUP1 SLOAD PUSH1 0x1 PUSH1 0x1 PUSH1 0xA0 SHL SUB NOT AND CALLER SWAP1 DUP2 OR SWAP1 SWAP2 SSTORE PUSH1 0x0 SWAP1 DUP2 MSTORE PUSH1 0x2 PUSH1 0x20 MSTORE PUSH1 0x40 SWAP1 KECCAK256 DUP1 SLOAD PUSH1 0xFF NOT AND PUSH1 0x1 OR SWAP1 SSTORE PUSH2 0xA70 DUP1 PUSH2 0x4E PUSH1 0x0 CODECOPY PUSH1 0x0 RETURN INVALID PUSH1 0x80 PUSH1 0x40 MSTORE CALLVALUE DUP1 ISZERO PUSH2 0x10 JUMPI PUSH1 0x0 DUP1 REVERT JUMPDEST POP PUSH1 0x4 CALLDATASIZE LT PUSH2 0xF5 JUMPI PUSH1 0x0 CALLDATALOAD PUSH1 0xE0 SHR DUP1 PUSH4 0x9DA8BE21 GT PUSH2 0x97 JUMPI DUP1 PUSH4 0xD47875D0 GT PUSH2 0x66 JUMPI DUP1 PUSH4 0xD47875D0 EQ PUSH2 0x1FA JUMPI DUP1 PUSH4 0xD8F6171D EQ PUSH2 0x20D JUMPI DUP1 PUSH4 0xDE330373 EQ PUSH2 0x220 JUMPI DUP1 PUSH4 0xF2FDE38B EQ PUSH2 0x228 JUMPI PUSH1 0x0 DUP1 REVERT JUMPDEST DUP1 PUSH4 0x9DA8BE21 EQ PUSH2 0x1A4 JUMPI DUP1 PUSH4 0xA2534C97 EQ PUSH2 0x1B7 JUMPI DUP1 PUSH4 0xB865BCCC EQ PUSH2 0x1BF JUMPI DUP1 PUSH4 0xCE7F0CC3 EQ PUSH2 0x1F2 JUMPI PUSH1 0x0 DUP1 REVERT JUMPDEST DUP1 PUSH4 0x43D24A5E GT PUSH2 0xD3 JUMPI DUP1 PUSH4 0x43D24A5E EQ PUSH2 0x13E JUMPI DUP1 PUSH4 0x6A4B783D EQ PUSH2 0x151 JUMPI DUP1 PUSH4 0x715018A6 EQ PUSH2 0x171 JUMPI DUP1 PUSH4 0x8DA5CB5B EQ PUSH2 0x179 JUMPI PUSH1 0x0 DUP1 REVERT JUMPDEST DUP1 PUSH4 0x4B07A5E EQ PUSH2 0xFA JUMPI DUP1 PUSH4 0x27FF6223 EQ PUSH2 0x10F JUMPI DUP1 PUSH4 0x42341287 EQ PUSH2 0x12B JUMPI JUMPDEST PUSH1 0x0 DUP1 REVERT JUMPDEST PUSH2 0x10D PUSH2 0x108 CALLDATASIZE PUSH1 0x4 PUSH2 0x8FD JUMP JUMPDEST PUSH2 0x23B JUMP JUMPDEST STOP JUMPDEST PUSH2 0x118 PUSH2 0x3E8 DUP2 JUMP JUMPDEST PUSH1 0x40 MLOAD SWAP1 DUP2 MSTORE PUSH1 0x20 ADD JUMPDEST PUSH1 0x40 MLOAD DUP1 SWAP2 SUB SWAP1 RETURN JUMPDEST PUSH2 0x10D PUSH2 0x139 CALLDATASIZE PUSH1 0x4 PUSH2 0x8FD JUMP JUMPDEST PUSH2 0x2B7 JUMP JUMPDEST PUSH2 0x10D PUSH2 0x14C CALLDATASIZE PUSH1 0x4 PUSH2 0x8FD JUMP JUMPDEST PUSH2 0x3FE JUMP JUMPDEST PUSH2 0x164 PUSH2 0x15F CALLDATASIZE PUSH1 0x4 PUSH2 0x8FD JUMP JUMPDEST PUSH2 0x474 JUMP JUMPDEST PUSH1 0x40 MLOAD PUSH2 0x122 SWAP2 SWAP1 PUSH2 0x92D JUMP JUMPDEST PUSH2 0x10D PUSH2 0x5B9 JUMP JUMPDEST PUSH1 0x3 SLOAD PUSH2 0x18C SWAP1 PUSH1 0x1 PUSH1 0x1 PUSH1 0xA0 SHL SUB AND DUP2 JUMP JUMPDEST PUSH1 0x40 MLOAD PUSH1 0x1 PUSH1 0x1 PUSH1 0xA0 SHL SUB SWAP1 SWAP2 AND DUP2 MSTORE PUSH1 0x20 ADD PUSH2 0x122 JUMP JUMPDEST PUSH2 0x10D PUSH2 0x1B2 CALLDATASIZE PUSH1 0x4 PUSH2 0x8FD JUMP JUMPDEST PUSH2 0x631 JUMP JUMPDEST PUSH2 0x118 PUSH1 0x14 DUP2 JUMP JUMPDEST PUSH2 0x1E2 PUSH2 0x1CD CALLDATASIZE PUSH1 0x4 PUSH2 0x8FD JUMP JUMPDEST PUSH1 0x2 PUSH1 0x20 MSTORE PUSH1 0x0 SWAP1 DUP2 MSTORE PUSH1 0x40 SWAP1 KECCAK256 SLOAD PUSH1 0xFF AND DUP2 JUMP JUMPDEST PUSH1 0x40 MLOAD SWAP1 ISZERO ISZERO DUP2 MSTORE PUSH1 0x20 ADD PUSH2 0x122 JUMP JUMPDEST PUSH2 0x118 PUSH1 0x5 DUP2 JUMP JUMPDEST PUSH2 0x118 PUSH2 0x208 CALLDATASIZE PUSH1 0x4 PUSH2 0x8FD JUMP JUMPDEST PUSH2 0x6B9 JUMP JUMPDEST PUSH2 0x10D PUSH2 0x21B CALLDATASIZE PUSH1 0x4 PUSH2 0x8FD JUMP JUMPDEST PUSH2 0x6FD JUMP JUMPDEST PUSH2 0x118 PUSH1 0x64 DUP2 JUMP JUMPDEST PUSH2 0x10D PUSH2 0x236 CALLDATASIZE PUSH1 0x4 PUSH2 0x8FD JUMP JUMPDEST PUSH2 0x82B JUMP JUMPDEST PUSH1 0x3 SLOAD PUSH1 0x1 PUSH1 0x1 PUSH1 0xA0 SHL SUB AND CALLER EQ PUSH2 0x26E JUMPI PUSH1 0x40 MLOAD PUSH3 0x461BCD PUSH1 0xE5 SHL DUP2 MSTORE PUSH1 0x4 ADD PUSH2 0x265 SWAP1 PUSH2 0x97C JUMP JUMPDEST PUSH1 0x40 MLOAD DUP1 SWAP2 SUB SWAP1 REVERT JUMPDEST PUSH1 0x1 PUSH1 0x1 PUSH1 0xA0 SHL SUB DUP2 AND PUSH1 0x0 DUP2 DUP2 MSTORE PUSH1 0x2 PUSH1 0x20 MSTORE PUSH1 0x40 DUP1 DUP3 KECCAK256 DUP1 SLOAD PUSH1 0xFF NOT AND SWAP1 SSTORE MLOAD PUSH32 0x209D819A9EC655E89F2B2B9D65C8A78879B45A8F20D1941D69C5FE6DC21BCB62 SWAP2 SWAP1 LOG2 POP JUMP JUMPDEST CALLER PUSH1 0x0 SWAP1 DUP2 MSTORE PUSH1 0x2 PUSH1 0x20 MSTORE PUSH1 0x40 SWAP1 KECCAK256 SLOAD PUSH1 0xFF AND PUSH2 0x2E6 JUMPI PUSH1 0x40 MLOAD PUSH3 0x461BCD PUSH1 0xE5 SHL DUP2 MSTORE PUSH1 0x4 ADD PUSH2 0x265 SWAP1 PUSH2 0x9B3 JUMP JUMPDEST PUSH1 0x1 PUSH1 0x1 PUSH1 0xA0 SHL SUB DUP2 AND PUSH1 0x0 SWAP1 DUP2 MSTORE PUSH1 0x1 PUSH1 0x20 MSTORE PUSH1 0x40 SWAP1 KECCAK256 SLOAD PUSH1 0xFF AND PUSH2 0x337 JUMPI PUSH1 0x1 PUSH1 0x1 PUSH1 0xA0 SHL SUB DUP2 AND PUSH1 0x0 SWAP1 DUP2 MSTORE PUSH1 0x1 PUSH1 0x20 DUP2 DUP2 MSTORE PUSH1 0x40 DUP1 DUP5 KECCAK256 DUP1 SLOAD PUSH1 0xFF NOT AND SWAP1 SWAP4 OR SWAP1 SWAP3 SSTORE DUP3 SWAP1 MSTORE SWAP1 KECCAK256 PUSH1 0x64 SWAP1 SSTORE JUMPDEST PUSH1 0x1 PUSH1 0x1 PUSH1 0xA0 SHL SUB DUP2 AND PUSH1 0x0 SWAP1 DUP2 MSTORE PUSH1 0x20 DUP2 SWAP1 MSTORE PUSH1 0x40 DUP2 KECCAK256 SLOAD SWAP1 PUSH2 0x3E8 PUSH2 0x35F PUSH1 0x5 DUP5 PUSH2 0xA0E JUMP JUMPDEST GT PUSH2 0x374 JUMPI PUSH2 0x36F PUSH1 0x5 DUP4 PUSH2 0xA0E JUMP JUMPDEST PUSH2 0x378 JUMP JUMPDEST PUSH2 0x3E8 JUMPDEST PUSH1 0x1 PUSH1 0x1 PUSH1 0xA0 SHL SUB DUP5 AND PUSH1 0x0 DUP2 DUP2 MSTORE PUSH1 0x20 DUP2 SWAP1 MSTORE PUSH1 0x40 SWAP1 DUP2 SWAP1 KECCAK256 DUP4 SWAP1 SSTORE MLOAD SWAP2 SWAP3 POP SWAP1 PUSH32 0x7E2ADD12A328A86680EC5CFD32C70EAA4590ECB9DF3E614E146DA05D547A5E30 SWAP1 PUSH2 0x3F1 SWAP1 DUP6 SWAP1 DUP6 SWAP1 SWAP2 DUP3 MSTORE PUSH1 0x20 DUP3 ADD MSTORE PUSH1 0x60 PUSH1 0x40 DUP3 ADD DUP2 SWAP1 MSTORE PUSH1 0x7 SWAP1 DUP3 ADD MSTORE PUSH7 0x73756363657373 PUSH1 0xC8 SHL PUSH1 0x80 DUP3 ADD MSTORE PUSH1 0xA0 ADD SWAP1 JUMP JUMPDEST PUSH1 0x40 MLOAD DUP1 SWAP2 SUB SWAP1 LOG2 POP POP POP JUMP JUMPDEST PUSH1 0x3 SLOAD PUSH1 0x1 PUSH1 0x1 PUSH1 0xA0 SHL SUB AND CALLER EQ PUSH2 0x428 JUMPI PUSH1 0x40 MLOAD PUSH3 0x461BCD PUSH1 0xE5 SHL DUP2 MSTORE PUSH1 0x4 ADD PUSH2 0x265 SWAP1 PUSH2 0x97C JUMP JUMPDEST PUSH1 0x1 PUSH1 0x1 PUSH1 0xA0 SHL SUB DUP2 AND PUSH1 0x0 DUP2 DUP2 MSTORE PUSH1 0x2 PUSH1 0x20 MSTORE PUSH1 0x40 DUP1 DUP3 KECCAK256 DUP1 SLOAD PUSH1 0xFF NOT AND PUSH1 0x1 OR SWAP1 SSTORE MLOAD PUSH32 0x23A38F89C31FF6329BF86F3863CFA2AD8FC1462C40DBF907DBBEBB8F9CB237EC SWAP2 SWAP1 LOG2 POP JUMP JUMPDEST PUSH1 0x1 PUSH1 0x1 PUSH1 0xA0 SHL SUB DUP2 AND PUSH1 0x0 SWAP1 DUP2 MSTORE PUSH1 0x20 DUP2 DUP2 MSTORE PUSH1 0x40 DUP1 DUP4 KECCAK256 SLOAD PUSH1 0x1 SWAP1 SWAP3 MSTORE SWAP1 SWAP2 KECCAK256 SLOAD PUSH1 0x60 SWAP2 SWAP1 PUSH1 0xFF AND PUSH2 0x4CC JUMPI POP POP PUSH1 0x40 DUP1 MLOAD DUP1 DUP3 ADD SWAP1 SWAP2 MSTORE PUSH1 0xC DUP2 MSTORE PUSH12 0x70726F626174696F6E617279 PUSH1 0xA0 SHL PUSH1 0x20 DUP3 ADD MSTORE SWAP2 SWAP1 POP JUMP JUMPDEST PUSH1 0x64 DUP2 LT ISZERO PUSH2 0x4FF JUMPI POP POP PUSH1 0x40 DUP1 MLOAD DUP1 DUP3 ADD SWAP1 SWAP2 MSTORE PUSH1 0xC DUP2 MSTORE PUSH12 0x70726F626174696F6E617279 PUSH1 0xA0 SHL PUSH1 0x20 DUP3 ADD MSTORE SWAP2 SWAP1 POP JUMP JUMPDEST PUSH2 0x12C DUP2 LT ISZERO PUSH2 0x531 JUMPI POP POP PUSH1 0x40 DUP1 MLOAD DUP1 DUP3 ADD SWAP1 SWAP2 MSTORE PUSH1 0xA DUP2 MSTORE PUSH10 0x1C995CDD1C9A58DD1959 PUSH1 0xB2 SHL PUSH1 0x20 DUP3 ADD MSTORE SWAP2 SWAP1 POP JUMP JUMPDEST PUSH2 0x258 DUP2 LT ISZERO PUSH2 0x561 JUMPI POP POP PUSH1 0x40 DUP1 MLOAD DUP1 DUP3 ADD SWAP1 SWAP2 MSTORE PUSH1 0x8 DUP2 MSTORE PUSH8 0x1CDD185B99185C99 PUSH1 0xC2 SHL PUSH1 0x20 DUP3 ADD MSTORE SWAP2 SWAP1 POP JUMP JUMPDEST PUSH2 0x320 DUP2 LT ISZERO PUSH2 0x591 JUMPI POP POP PUSH1 0x40 DUP1 MLOAD DUP1 DUP3 ADD SWAP1 SWAP2 MSTORE PUSH1 0x8 DUP2 MSTORE PUSH8 0x195B195D985D1959 PUSH1 0xC2 SHL PUSH1 0x20 DUP3 ADD MSTORE SWAP2 SWAP1 POP JUMP JUMPDEST POP POP PUSH1 0x40 DUP1 MLOAD DUP1 DUP3 ADD SWAP1 SWAP2 MSTORE PUSH1 0xA DUP2 MSTORE PUSH10 0x6175746F6E6F6D6F7573 PUSH1 0xB0 SHL PUSH1 0x20 DUP3 ADD MSTORE SWAP2 SWAP1 POP JUMP JUMPDEST PUSH1 0x3 SLOAD PUSH1 0x1 PUSH1 0x1 PUSH1 0xA0 SHL SUB AND CALLER EQ PUSH2 0x5E3 JUMPI PUSH1 0x40 MLOAD PUSH3 0x461BCD PUSH1 0xE5 SHL DUP2 MSTORE PUSH1 0x4 ADD PUSH2 0x265 SWAP1 PUSH2 0x97C JUMP JUMPDEST PUSH1 0x3 DUP1 SLOAD PUSH1 0x1 PUSH1 0x1 PUSH1 0xA0 SHL SUB NOT DUP2 AND SWAP1 SWAP2 SSTORE PUSH1 0x40 MLOAD PUSH1 0x1 PUSH1 0x1 PUSH1 0xA0 SHL SUB SWAP1 SWAP2 AND SWAP1 PUSH1 0x0 SWAP1 DUP3 SWAP1 PUSH32 0x8BE0079C531659141344CD1FD0A4F28419497F9722A3DAAFE3B4186F6B6457E0 SWAP1 DUP4 SWAP1 LOG3 POP JUMP JUMPDEST PUSH1 0x1 PUSH1 0x1 PUSH1 0xA0 SHL SUB DUP2 AND PUSH1 0x0 SWAP1 DUP2 MSTORE PUSH1 0x1 PUSH1 0x20 MSTORE PUSH1 0x40 SWAP1 KECCAK256 SLOAD PUSH1 0xFF AND PUSH2 0x6B6 JUMPI PUSH1 0x1 PUSH1 0x1 PUSH1 0xA0 SHL SUB DUP2 AND PUSH1 0x0 DUP2 DUP2 MSTORE PUSH1 0x1 PUSH1 0x20 DUP2 DUP2 MSTORE PUSH1 0x40 DUP1 DUP5 KECCAK256 DUP1 SLOAD PUSH1 0xFF NOT AND SWAP1 SWAP4 OR SWAP1 SWAP3 SSTORE DUP3 DUP2 MSTORE SWAP2 DUP2 SWAP1 KECCAK256 PUSH1 0x64 SWAP1 DUP2 SWAP1 SSTORE SWAP1 MLOAD SWAP1 DUP2 MSTORE PUSH32 0x3F669BAD8F962150EC44776B24D84EA7746740070E5B124889DA3A3DC42135B9 SWAP2 ADD PUSH1 0x40 MLOAD DUP1 SWAP2 SUB SWAP1 LOG2 JUMPDEST POP JUMP JUMPDEST PUSH1 0x1 PUSH1 0x1 PUSH1 0xA0 SHL SUB DUP2 AND PUSH1 0x0 SWAP1 DUP2 MSTORE PUSH1 0x1 PUSH1 0x20 MSTORE PUSH1 0x40 DUP2 KECCAK256 SLOAD PUSH1 0xFF AND PUSH2 0x6E1 JUMPI POP PUSH1 0x0 SWAP2 SWAP1 POP JUMP JUMPDEST POP PUSH1 0x1 PUSH1 0x1 PUSH1 0xA0 SHL SUB AND PUSH1 0x0 SWAP1 DUP2 MSTORE PUSH1 0x20 DUP2 SWAP1 MSTORE PUSH1 0x40 SWAP1 KECCAK256 SLOAD SWAP1 JUMP JUMPDEST CALLER PUSH1 0x0 SWAP1 DUP2 MSTORE PUSH1 0x2 PUSH1 0x20 MSTORE PUSH1 0x40 SWAP1 KECCAK256 SLOAD PUSH1 0xFF AND PUSH2 0x72C JUMPI PUSH1 0x40 MLOAD PUSH3 0x461BCD PUSH1 0xE5 SHL DUP2 MSTORE PUSH1 0x4 ADD PUSH2 0x265 SWAP1 PUSH2 0x9B3 JUMP JUMPDEST PUSH1 0x1 PUSH1 0x1 PUSH1 0xA0 SHL SUB DUP2 AND PUSH1 0x0 SWAP1 DUP2 MSTORE PUSH1 0x1 PUSH1 0x20 MSTORE PUSH1 0x40 SWAP1 KECCAK256 SLOAD PUSH1 0xFF AND PUSH2 0x77D JUMPI PUSH1 0x1 PUSH1 0x1 PUSH1 0xA0 SHL SUB DUP2 AND PUSH1 0x0 SWAP1 DUP2 MSTORE PUSH1 0x1 PUSH1 0x20 DUP2 DUP2 MSTORE PUSH1 0x40 DUP1 DUP5 KECCAK256 DUP1 SLOAD PUSH1 0xFF NOT AND SWAP1 SWAP4 OR SWAP1 SWAP3 SSTORE DUP3 SWAP1 MSTORE SWAP1 KECCAK256 PUSH1 0x64 SWAP1 SSTORE JUMPDEST PUSH1 0x1 PUSH1 0x1 PUSH1 0xA0 SHL SUB DUP2 AND PUSH1 0x0 SWAP1 DUP2 MSTORE PUSH1 0x20 DUP2 SWAP1 MSTORE PUSH1 0x40 DUP2 KECCAK256 SLOAD SWAP1 PUSH1 0x14 DUP3 LT PUSH2 0x7AF JUMPI PUSH2 0x7AA PUSH1 0x14 DUP4 PUSH2 0xA27 JUMP JUMPDEST PUSH2 0x7B2 JUMP JUMPDEST PUSH1 0x0 JUMPDEST PUSH1 0x1 PUSH1 0x1 PUSH1 0xA0 SHL SUB DUP5 AND PUSH1 0x0 DUP2 DUP2 MSTORE PUSH1 0x20 DUP2 SWAP1 MSTORE PUSH1 0x40 SWAP1 DUP2 SWAP1 KECCAK256 DUP4 SWAP1 SSTORE MLOAD SWAP2 SWAP3 POP SWAP1 PUSH32 0x7E2ADD12A328A86680EC5CFD32C70EAA4590ECB9DF3E614E146DA05D547A5E30 SWAP1 PUSH2 0x3F1 SWAP1 DUP6 SWAP1 DUP6 SWAP1 SWAP2 DUP3 MSTORE PUSH1 0x20 DUP3 ADD MSTORE PUSH1 0x60 PUSH1 0x40 DUP3 ADD DUP2 SWAP1 MSTORE PUSH1 0x7 SWAP1 DUP3 ADD MSTORE PUSH7 0x616E6F6D616C79 PUSH1 0xC8 SHL PUSH1 0x80 DUP3 ADD MSTORE PUSH1 0xA0 ADD SWAP1 JUMP JUMPDEST PUSH1 0x3 SLOAD PUSH1 0x1 PUSH1 0x1 PUSH1 0xA0 SHL SUB AND CALLER EQ PUSH2 0x855 JUMPI PUSH1 0x40 MLOAD PUSH3 0x461BCD PUSH1 0xE5 SHL DUP2 MSTORE PUSH1 0x4 ADD PUSH2 0x265 SWAP1 PUSH2 0x97C JUMP JUMPDEST PUSH1 0x1 PUSH1 0x1 PUSH1 0xA0 SHL SUB DUP2 AND PUSH2 0x8AB JUMPI PUSH1 0x40 MLOAD PUSH3 0x461BCD PUSH1 0xE5 SHL DUP2 MSTORE PUSH1 0x20 PUSH1 0x4 DUP3 ADD MSTORE PUSH1 0x1B PUSH1 0x24 DUP3 ADD MSTORE PUSH32 0x547275737452656769737472793A207A65726F20616464726573730000000000 PUSH1 0x44 DUP3 ADD MSTORE PUSH1 0x64 ADD PUSH2 0x265 JUMP JUMPDEST PUSH1 0x3 DUP1 SLOAD PUSH1 0x1 PUSH1 0x1 PUSH1 0xA0 SHL SUB DUP4 DUP2 AND PUSH1 0x1 PUSH1 0x1 PUSH1 0xA0 SHL SUB NOT DUP4 AND DUP2 OR SWAP1 SWAP4 SSTORE PUSH1 0x40 MLOAD SWAP2 AND SWAP2 SWAP1 DUP3 SWAP1 PUSH32 0x8BE0079C531659141344CD1FD0A4F28419497F9722A3DAAFE3B4186F6B6457E0 SWAP1 PUSH1 0x0 SWAP1 LOG3 POP POP JUMP JUMPDEST PUSH1 0x0 PUSH1 0x20 DUP3 DUP5 SUB SLT ISZERO PUSH2 0x90F JUMPI PUSH1 0x0 DUP1 REVERT JUMPDEST DUP2 CALLDATALOAD PUSH1 0x1 PUSH1 0x1 PUSH1 0xA0 SHL SUB DUP2 AND DUP2 EQ PUSH2 0x926 JUMPI PUSH1 0x0 DUP1 REVERT JUMPDEST SWAP4 SWAP3 POP POP POP JUMP JUMPDEST PUSH1 0x0 PUSH1 0x20 DUP1 DUP4 MSTORE DUP4 MLOAD DUP1 PUSH1 0x20 DUP6 ADD MSTORE PUSH1 0x0 JUMPDEST DUP2 DUP2 LT ISZERO PUSH2 0x95B JUMPI DUP6 DUP2 ADD DUP4 ADD MLOAD DUP6 DUP3 ADD PUSH1 0x40 ADD MSTORE DUP3 ADD PUSH2 0x93F JUMP JUMPDEST POP PUSH1 0x0 PUSH1 0x40 DUP3 DUP7 ADD ADD MSTORE PUSH1 0x40 PUSH1 0x1F NOT PUSH1 0x1F DUP4 ADD AND DUP6 ADD ADD SWAP3 POP POP POP SWAP3 SWAP2 POP POP JUMP JUMPDEST PUSH1 0x20 DUP1 DUP3 MSTORE PUSH1 0x18 SWAP1 DUP3 ADD MSTORE PUSH32 0x547275737452656769737472793A206E6F74206F776E65720000000000000000 PUSH1 0x40 DUP3 ADD MSTORE PUSH1 0x60 ADD SWAP1 JUMP JUMPDEST PUSH1 0x20 DUP1 DUP3 MSTORE PUSH1 0x25 SWAP1 DUP3 ADD MSTORE PUSH32 0x547275737452656769737472793A206E6F7420617574686F72697A6564207570 PUSH1 0x40 DUP3 ADD MSTORE PUSH5 0x3230BA32B9 PUSH1 0xD9 SHL PUSH1 0x60 DUP3 ADD MSTORE PUSH1 0x80 ADD SWAP1 JUMP JUMPDEST PUSH4 0x4E487B71 PUSH1 0xE0 SHL PUSH1 0x0 MSTORE PUSH1 0x11 PUSH1 0x4 MSTORE PUSH1 0x24 PUSH1 0x0 REVERT JUMPDEST DUP1 DUP3 ADD DUP1 DUP3 GT ISZERO PUSH2 0xA21 JUMPI PUSH2 0xA21 PUSH2 0x9F8 JUMP JUMPDEST SWAP3 SWAP2 POP POP JUMP JUMPDEST DUP2 DUP2 SUB DUP2 DUP2 GT ISZERO PUSH2 0xA21 JUMPI PUSH2 0xA21 PUSH2 0x9F8 JUMP INVALID LOG2 PUSH5 0x6970667358 0x22 SLT KECCAK256 COINBASE 0xE0 GAS DUP2 0xAB 0xE1 MCOPY JUMPI 0xE 0xE2 0x27 0xD PUSH12 0x82DC9EF73A22EC6141E99DD8 0xB9 0xA9 0xC3 0xB3 PUSH20 0x242764736F6C6343000818003300000000000000 "},"methodIdentifiers":{"DECREMENT()":"a2534c97","INCREMENT()":"ce7f0cc3","INITIAL_SCORE()":"de330373","MAX_SCORE()":"27ff6223","addUpdater(address)":"43d24a5e","getScore(address)":"d47875d0","getTrustLevel(address)":"6a4b783d","initWallet(address)":"9da8be21","isAuthorizedUpdater(address)":"b865bccc","owner()":"8da5cb5b","recordAnomaly(address)":"d8f6171d","recordSuccess(address)":"42341287","removeUpdater(address)":"04b07a5e","renounceOwnership()":"715018a6","transferOwnership(address)":"f2fde38b"}}}}}