{"contracts/ARC402WalletTest.sol":{"ARC402WalletTest":{"abi":[{"inputs":[{"internalType":"address","name":"_policyEngine","type":"address"},{"internalType":"address","name":"_trustRegistry","type":"address"},{"internalType":"address","name":"_intentAttestation","type":"address"}],"stateMutability":"nonpayable","type":"constructor"},{"anonymous":false,"inputs":[{"indexed":true,"internalType":"bytes32","name":"contextId","type":"bytes32"},{"indexed":false,"internalType":"uint256","name":"timestamp","type":"uint256"}],"name":"ContextClosed","type":"event"},{"anonymous":false,"inputs":[{"indexed":true,"internalType":"bytes32","name":"contextId","type":"bytes32"},{"indexed":false,"internalType":"string","name":"taskType","type":"string"},{"indexed":false,"internalType":"uint256","name":"timestamp","type":"uint256"}],"name":"ContextOpened","type":"event"},{"anonymous":false,"inputs":[{"indexed":true,"internalType":"address","name":"recipientWallet","type":"address"},{"indexed":false,"internalType":"uint256","name":"amount","type":"uint256"},{"indexed":false,"internalType":"bytes32","name":"attestationId","type":"bytes32"}],"name":"SettlementProposed","type":"event"},{"anonymous":false,"inputs":[{"indexed":true,"internalType":"address","name":"recipient","type":"address"},{"indexed":false,"internalType":"uint256","name":"amount","type":"uint256"},{"indexed":false,"internalType":"string","name":"category","type":"string"},{"indexed":false,"internalType":"bytes32","name":"attestationId","type":"bytes32"}],"name":"SpendExecuted","type":"event"},{"inputs":[],"name":"activeContextId","outputs":[{"internalType":"bytes32","name":"","type":"bytes32"}],"stateMutability":"view","type":"function"},{"inputs":[],"name":"activeTaskType","outputs":[{"internalType":"string","name":"","type":"string"}],"stateMutability":"view","type":"function"},{"inputs":[],"name":"closeContext","outputs":[],"stateMutability":"nonpayable","type":"function"},{"inputs":[],"name":"contextOpen","outputs":[{"internalType":"bool","name":"","type":"bool"}],"stateMutability":"view","type":"function"},{"inputs":[],"name":"contextOpenedAt","outputs":[{"internalType":"uint256","name":"","type":"uint256"}],"stateMutability":"view","type":"function"},{"inputs":[{"internalType":"address payable","name":"recipient","type":"address"},{"internalType":"uint256","name":"amount","type":"uint256"},{"internalType":"string","name":"category","type":"string"},{"internalType":"bytes32","name":"attestationId","type":"bytes32"}],"name":"executeSpend","outputs":[],"stateMutability":"nonpayable","type":"function"},{"inputs":[],"name":"getTrustScore","outputs":[{"internalType":"uint256","name":"","type":"uint256"}],"stateMutability":"view","type":"function"},{"inputs":[],"name":"intentAttestation","outputs":[{"internalType":"contract IIntentAttestation","name":"","type":"address"}],"stateMutability":"view","type":"function"},{"inputs":[{"internalType":"bytes32","name":"contextId","type":"bytes32"},{"internalType":"string","name":"taskType","type":"string"}],"name":"openContext","outputs":[],"stateMutability":"nonpayable","type":"function"},{"inputs":[],"name":"owner","outputs":[{"internalType":"address","name":"","type":"address"}],"stateMutability":"view","type":"function"},{"inputs":[],"name":"policyEngine","outputs":[{"internalType":"contract IPolicyEngine","name":"","type":"address"}],"stateMutability":"view","type":"function"},{"inputs":[{"internalType":"address","name":"recipientWallet","type":"address"},{"internalType":"uint256","name":"amount","type":"uint256"},{"internalType":"string","name":"category","type":"string"},{"internalType":"bytes32","name":"attestationId","type":"bytes32"}],"name":"proposeMASSettlement","outputs":[],"stateMutability":"nonpayable","type":"function"},{"inputs":[{"internalType":"bytes32","name":"id","type":"bytes32"},{"internalType":"string","name":"action","type":"string"},{"internalType":"string","name":"reason","type":"string"},{"internalType":"address","name":"recipient","type":"address"},{"internalType":"uint256","name":"amount","type":"uint256"}],"name":"relayAttest","outputs":[],"stateMutability":"nonpayable","type":"function"},{"inputs":[{"internalType":"string","name":"category","type":"string"},{"internalType":"uint256","name":"limitPerTx","type":"uint256"}],"name":"relayCategoryLimit","outputs":[],"stateMutability":"nonpayable","type":"function"},{"inputs":[],"name":"trustRegistry","outputs":[{"internalType":"contract ITrustRegistry","name":"","type":"address"}],"stateMutability":"view","type":"function"},{"stateMutability":"payable","type":"receive"}],"evm":{"bytecode":{"linkReferences":{},"object":"6101006040523480156200001257600080fd5b5060405162001770380380620017708339810160408190526200003591620000cb565b336080526001600160a01b0383811660a05282811660c081905290821660e052604051639da8be2160e01b8152306004820152639da8be2190602401600060405180830381600087803b1580156200008c57600080fd5b505af1158015620000a1573d6000803e3d6000fd5b5050505050505062000115565b80516001600160a01b0381168114620000c657600080fd5b919050565b600080600060608486031215620000e157600080fd5b620000ec84620000ae565b9250620000fc60208501620000ae565b91506200010c60408501620000ae565b90509250925092565b60805160a05160c05160e0516115bf620001b1600039600081816101b0015281816104170152818161071d0152610d85015260008181610264015281816109cd0152610e19015260008181610230015281816104fe015281816107f90152610c110152600081816101fc01528181610346015281816106a2015281816108f601528181610acd01528181610bd00152610d3101526115bf6000f3fe6080604052600436106100ec5760003560e01c8063927399a51161008a578063d97e602411610059578063d97e6024146102d0578063e7c7d0d4146102f0578063e932b0b714610306578063ee2638c41461032657600080fd5b8063927399a51461021e5780639b835427146102525780639b89fbe314610286578063b6290d7c146102a657600080fd5b806375c2b9bd116100c657806375c2b9bd1461014f578063793a2b021461017a57806381f252ab1461019e5780638da5cb5b146101ea57600080fd5b806314a94e85146100f85780632e75686a1461011a5780633477e1c51461013a57600080fd5b366100f357005b600080fd5b34801561010457600080fd5b50610118610113366004610ef2565b61033b565b005b34801561012657600080fd5b50610118610135366004610ef2565b610697565b34801561014657600080fd5b506101186108eb565b34801561015b57600080fd5b50610164610a34565b6040516101719190610f7a565b60405180910390f35b34801561018657600080fd5b5061019060005481565b604051908152602001610171565b3480156101aa57600080fd5b506101d27f000000000000000000000000000000000000000000000000000000000000000081565b6040516001600160a01b039091168152602001610171565b3480156101f657600080fd5b506101d27f000000000000000000000000000000000000000000000000000000000000000081565b34801561022a57600080fd5b506101d27f000000000000000000000000000000000000000000000000000000000000000081565b34801561025e57600080fd5b506101d27f000000000000000000000000000000000000000000000000000000000000000081565b34801561029257600080fd5b506101186102a1366004610fad565b610ac2565b3480156102b257600080fd5b506002546102c09060ff1681565b6040519015158152602001610171565b3480156102dc57600080fd5b506101186102eb366004610ff9565b610bc5565b3480156102fc57600080fd5b5061019060035481565b34801561031257600080fd5b50610118610321366004611045565b610d26565b34801561033257600080fd5b50610190610e01565b336001600160a01b037f0000000000000000000000000000000000000000000000000000000000000000161461038c5760405162461bcd60e51b8152600401610383906110dc565b60405180910390fd5b60025460ff166103ae5760405162461bcd60e51b815260040161038390611107565b6001600160a01b0385166103fb5760405162461bcd60e51b81526020600482015260146024820152734152433430323a207a65726f206164647265737360601b6044820152606401610383565b60405163b88fbd2d60e01b8152600481018290523060248201527f00000000000000000000000000000000000000000000000000000000000000006001600160a01b03169063b88fbd2d90604401602060405180830381865afa158015610466573d6000803e3d6000fd5b505050506040513d601f19601f8201168201806040525081019061048a9190611153565b6104e15760405162461bcd60e51b815260206004820152602260248201527f4152433430323a20696e76616c696420696e74656e742061747465737461746960448201526137b760f11b6064820152608401610383565b6000805460405163c9b3f8ad60e01b815282916001600160a01b037f0000000000000000000000000000000000000000000000000000000000000000169163c9b3f8ad916105399130918a918a918d9160040161119e565b600060405180830381865afa158015610556573d6000803e3d6000fd5b505050506040513d6000823e601f3d908101601f1916820160405261057e91908101906111ed565b915091508181906105a25760405162461bcd60e51b81526004016103839190610f7a565b50866001600160a01b03167f2b3c6604ff1b7c691d7811592b52251b1e3335a6bcd446f7c845c33c7c837655878787876040516105e294939291906112ad565b60405180910390a26000876001600160a01b03168760405160006040518083038185875af1925050503d8060008114610637576040519150601f19603f3d011682016040523d82523d6000602084013e61063c565b606091505b505090508061068d5760405162461bcd60e51b815260206004820152601760248201527f4152433430323a207472616e73666572206661696c65640000000000000000006044820152606401610383565b5050505050505050565b336001600160a01b037f000000000000000000000000000000000000000000000000000000000000000016146106df5760405162461bcd60e51b8152600401610383906110dc565b60025460ff166107015760405162461bcd60e51b815260040161038390611107565b60405163b88fbd2d60e01b8152600481018290523060248201527f00000000000000000000000000000000000000000000000000000000000000006001600160a01b03169063b88fbd2d90604401602060405180830381865afa15801561076c573d6000803e3d6000fd5b505050506040513d601f19601f820116820180604052508101906107909190611153565b6107dc5760405162461bcd60e51b815260206004820152601b60248201527f4152433430323a20696e76616c6964206174746573746174696f6e00000000006044820152606401610383565b6000805460405163c9b3f8ad60e01b815282916001600160a01b037f0000000000000000000000000000000000000000000000000000000000000000169163c9b3f8ad916108349130918a918a918d9160040161119e565b600060405180830381865afa158015610851573d6000803e3d6000fd5b505050506040513d6000823e601f3d908101601f1916820160405261087991908101906111ed565b9150915081819061089d5760405162461bcd60e51b81526004016103839190610f7a565b5060408051878152602081018590526001600160a01b038916917f056d47bffa7c2cbd89d97598edfaacedc5a898dcd47487959943f507c38bd4d0910160405180910390a250505050505050565b336001600160a01b037f000000000000000000000000000000000000000000000000000000000000000016146109335760405162461bcd60e51b8152600401610383906110dc565b60025460ff166109555760405162461bcd60e51b815260040161038390611107565b600080548180556040805160208101909152918252906001906109789082611363565b506002805460ff1916905560405142815281907fcc6590861f6ca0cdac2283eec9e3d822129a66efb8ddf2bf4b239af6c168295f9060200160405180910390a2604051634234128760e01b81523060048201527f00000000000000000000000000000000000000000000000000000000000000006001600160a01b031690634234128790602401600060405180830381600087803b158015610a1957600080fd5b505af1158015610a2d573d6000803e3d6000fd5b5050505050565b60018054610a41906112d8565b80601f0160208091040260200160405190810160405280929190818152602001828054610a6d906112d8565b8015610aba5780601f10610a8f57610100808354040283529160200191610aba565b820191906000526020600020905b815481529060010190602001808311610a9d57829003601f168201915b505050505081565b336001600160a01b037f00000000000000000000000000000000000000000000000000000000000000001614610b0a5760405162461bcd60e51b8152600401610383906110dc565b60025460ff1615610b5d5760405162461bcd60e51b815260206004820152601c60248201527f4152433430323a20636f6e7465787420616c7265616479206f70656e000000006044820152606401610383565b60008390556001610b6f828483611423565b506002805460ff1916600117905542600381905560405184917fdde1929d79fef15cb9b8ed0bae129bca92a432de095cce47d10096cdc0fc1ba491610bb89186918691906114e3565b60405180910390a2505050565b336001600160a01b037f00000000000000000000000000000000000000000000000000000000000000001614610c0d5760405162461bcd60e51b8152600401610383906110dc565b60007f00000000000000000000000000000000000000000000000000000000000000006001600160a01b0316848484604051602401610c4e939291906114e3565b60408051601f198184030181529181526020820180516001600160e01b0316634f9975a560e01b17905251610c839190611507565b6000604051808303816000865af19150503d8060008114610cc0576040519150601f19603f3d011682016040523d82523d6000602084013e610cc5565b606091505b5050905080610d205760405162461bcd60e51b815260206004820152602160248201527f4152433430323a2072656c617943617465676f72794c696d6974206661696c656044820152601960fa1b6064820152608401610383565b50505050565b336001600160a01b037f00000000000000000000000000000000000000000000000000000000000000001614610d6e5760405162461bcd60e51b8152600401610383906110dc565b604051631d13551560e01b81526001600160a01b037f00000000000000000000000000000000000000000000000000000000000000001690631d13551590610dc6908a908a908a908a908a908a908a90600401611523565b600060405180830381600087803b158015610de057600080fd5b505af1158015610df4573d6000803e3d6000fd5b5050505050505050505050565b604051630d47875d60e41b81523060048201526000907f00000000000000000000000000000000000000000000000000000000000000006001600160a01b03169063d47875d090602401602060405180830381865afa158015610e68573d6000803e3d6000fd5b505050506040513d601f19601f82011682018060405250810190610e8c9190611570565b905090565b6001600160a01b0381168114610ea657600080fd5b50565b60008083601f840112610ebb57600080fd5b50813567ffffffffffffffff811115610ed357600080fd5b602083019150836020828501011115610eeb57600080fd5b9250929050565b600080600080600060808688031215610f0a57600080fd5b8535610f1581610e91565b945060208601359350604086013567ffffffffffffffff811115610f3857600080fd5b610f4488828901610ea9565b96999598509660600135949350505050565b60005b83811015610f71578181015183820152602001610f59565b50506000910152565b6020815260008251806020840152610f99816040850160208701610f56565b601f01601f19169190910160400192915050565b600080600060408486031215610fc257600080fd5b83359250602084013567ffffffffffffffff811115610fe057600080fd5b610fec86828701610ea9565b9497909650939450505050565b60008060006040848603121561100e57600080fd5b833567ffffffffffffffff81111561102557600080fd5b61103186828701610ea9565b909790965060209590950135949350505050565b600080600080600080600060a0888a03121561106057600080fd5b87359650602088013567ffffffffffffffff8082111561107f57600080fd5b61108b8b838c01610ea9565b909850965060408a01359150808211156110a457600080fd5b506110b18a828b01610ea9565b90955093505060608801356110c581610e91565b809250506080880135905092959891949750929550565b60208082526011908201527020a9219a18191d103737ba1037bbb732b960791b604082015260600190565b60208082526019908201527f4152433430323a206e6f2061637469766520636f6e7465787400000000000000604082015260600190565b8051801515811461114e57600080fd5b919050565b60006020828403121561116557600080fd5b61116e8261113e565b9392505050565b81835281816020850137506000828201602090810191909152601f909101601f19169091010190565b6001600160a01b03861681526080602082018190526000906111c39083018688611175565b604083019490945250606001529392505050565b634e487b7160e01b600052604160045260246000fd5b6000806040838503121561120057600080fd5b6112098361113e565b9150602083015167ffffffffffffffff8082111561122657600080fd5b818501915085601f83011261123a57600080fd5b81518181111561124c5761124c6111d7565b604051601f8201601f19908116603f01168101908382118183101715611274576112746111d7565b8160405282815288602084870101111561128d57600080fd5b61129e836020830160208801610f56565b80955050505050509250929050565b8481526060602082015260006112c7606083018587611175565b905082604083015295945050505050565b600181811c908216806112ec57607f821691505b60208210810361130c57634e487b7160e01b600052602260045260246000fd5b50919050565b601f82111561135e576000816000526020600020601f850160051c8101602086101561133b5750805b601f850160051c820191505b8181101561135a57828155600101611347565b5050505b505050565b815167ffffffffffffffff81111561137d5761137d6111d7565b6113918161138b84546112d8565b84611312565b602080601f8311600181146113c657600084156113ae5750858301515b600019600386901b1c1916600185901b17855561135a565b600085815260208120601f198616915b828110156113f5578886015182559484019460019091019084016113d6565b50858210156114135787850151600019600388901b60f8161c191681555b5050505050600190811b01905550565b67ffffffffffffffff83111561143b5761143b6111d7565b61144f8361144983546112d8565b83611312565b6000601f841160018114611483576000851561146b5750838201355b600019600387901b1c1916600186901b178355610a2d565b600083815260209020601f19861690835b828110156114b45786850135825560209485019460019092019101611494565b50868210156114d15760001960f88860031b161c19848701351681555b505060018560011b0183555050505050565b6040815260006114f7604083018587611175565b9050826020830152949350505050565b60008251611519818460208701610f56565b9190910192915050565b87815260a06020820152600061153d60a08301888a611175565b8281036040840152611550818789611175565b6001600160a01b0395909516606084015250506080015295945050505050565b60006020828403121561158257600080fd5b505191905056fea26469706673582212208a24870942959135bd429409ff209023a4ec62fb42181f468c9732740ce1d7db64736f6c63430008180033","opcodes":"PUSH2 0x100 PUSH1 0x40 MSTORE CALLVALUE DUP1 ISZERO PUSH3 0x12 JUMPI PUSH1 0x0 DUP1 REVERT JUMPDEST POP PUSH1 0x40 MLOAD PUSH3 0x1770 CODESIZE SUB DUP1 PUSH3 0x1770 DUP4 CODECOPY DUP2 ADD PUSH1 0x40 DUP2 SWAP1 MSTORE PUSH3 0x35 SWAP2 PUSH3 0xCB JUMP JUMPDEST CALLER PUSH1 0x80 MSTORE PUSH1 0x1 PUSH1 0x1 PUSH1 0xA0 SHL SUB DUP4 DUP2 AND PUSH1 0xA0 MSTORE DUP3 DUP2 AND PUSH1 0xC0 DUP2 SWAP1 MSTORE SWAP1 DUP3 AND PUSH1 0xE0 MSTORE PUSH1 0x40 MLOAD PUSH4 0x9DA8BE21 PUSH1 0xE0 SHL DUP2 MSTORE ADDRESS PUSH1 0x4 DUP3 ADD MSTORE PUSH4 0x9DA8BE21 SWAP1 PUSH1 0x24 ADD PUSH1 0x0 PUSH1 0x40 MLOAD DUP1 DUP4 SUB DUP2 PUSH1 0x0 DUP8 DUP1 EXTCODESIZE ISZERO DUP1 ISZERO PUSH3 0x8C JUMPI PUSH1 0x0 DUP1 REVERT JUMPDEST POP GAS CALL ISZERO DUP1 ISZERO PUSH3 0xA1 JUMPI RETURNDATASIZE PUSH1 0x0 DUP1 RETURNDATACOPY RETURNDATASIZE PUSH1 0x0 REVERT JUMPDEST POP POP POP POP POP POP POP PUSH3 0x115 JUMP JUMPDEST DUP1 MLOAD PUSH1 0x1 PUSH1 0x1 PUSH1 0xA0 SHL SUB DUP2 AND DUP2 EQ PUSH3 0xC6 JUMPI PUSH1 0x0 DUP1 REVERT JUMPDEST SWAP2 SWAP1 POP JUMP JUMPDEST PUSH1 0x0 DUP1 PUSH1 0x0 PUSH1 0x60 DUP5 DUP7 SUB SLT ISZERO PUSH3 0xE1 JUMPI PUSH1 0x0 DUP1 REVERT JUMPDEST PUSH3 0xEC DUP5 PUSH3 0xAE JUMP JUMPDEST SWAP3 POP PUSH3 0xFC PUSH1 0x20 DUP6 ADD PUSH3 0xAE JUMP JUMPDEST SWAP2 POP PUSH3 0x10C PUSH1 0x40 DUP6 ADD PUSH3 0xAE JUMP JUMPDEST SWAP1 POP SWAP3 POP SWAP3 POP SWAP3 JUMP JUMPDEST PUSH1 0x80 MLOAD PUSH1 0xA0 MLOAD PUSH1 0xC0 MLOAD PUSH1 0xE0 MLOAD PUSH2 0x15BF PUSH3 0x1B1 PUSH1 0x0 CODECOPY PUSH1 0x0 DUP2 DUP2 PUSH2 0x1B0 ADD MSTORE DUP2 DUP2 PUSH2 0x417 ADD MSTORE DUP2 DUP2 PUSH2 0x71D ADD MSTORE PUSH2 0xD85 ADD MSTORE PUSH1 0x0 DUP2 DUP2 PUSH2 0x264 ADD MSTORE DUP2 DUP2 PUSH2 0x9CD ADD MSTORE PUSH2 0xE19 ADD MSTORE PUSH1 0x0 DUP2 DUP2 PUSH2 0x230 ADD MSTORE DUP2 DUP2 PUSH2 0x4FE ADD MSTORE DUP2 DUP2 PUSH2 0x7F9 ADD MSTORE PUSH2 0xC11 ADD MSTORE PUSH1 0x0 DUP2 DUP2 PUSH2 0x1FC ADD MSTORE DUP2 DUP2 PUSH2 0x346 ADD MSTORE DUP2 DUP2 PUSH2 0x6A2 ADD MSTORE DUP2 DUP2 PUSH2 0x8F6 ADD MSTORE DUP2 DUP2 PUSH2 0xACD ADD MSTORE DUP2 DUP2 PUSH2 0xBD0 ADD MSTORE PUSH2 0xD31 ADD MSTORE PUSH2 0x15BF PUSH1 0x0 RETURN INVALID PUSH1 0x80 PUSH1 0x40 MSTORE PUSH1 0x4 CALLDATASIZE LT PUSH2 0xEC JUMPI PUSH1 0x0 CALLDATALOAD PUSH1 0xE0 SHR DUP1 PUSH4 0x927399A5 GT PUSH2 0x8A JUMPI DUP1 PUSH4 0xD97E6024 GT PUSH2 0x59 JUMPI DUP1 PUSH4 0xD97E6024 EQ PUSH2 0x2D0 JUMPI DUP1 PUSH4 0xE7C7D0D4 EQ PUSH2 0x2F0 JUMPI DUP1 PUSH4 0xE932B0B7 EQ PUSH2 0x306 JUMPI DUP1 PUSH4 0xEE2638C4 EQ PUSH2 0x326 JUMPI PUSH1 0x0 DUP1 REVERT JUMPDEST DUP1 PUSH4 0x927399A5 EQ PUSH2 0x21E JUMPI DUP1 PUSH4 0x9B835427 EQ PUSH2 0x252 JUMPI DUP1 PUSH4 0x9B89FBE3 EQ PUSH2 0x286 JUMPI DUP1 PUSH4 0xB6290D7C EQ PUSH2 0x2A6 JUMPI PUSH1 0x0 DUP1 REVERT JUMPDEST DUP1 PUSH4 0x75C2B9BD GT PUSH2 0xC6 JUMPI DUP1 PUSH4 0x75C2B9BD EQ PUSH2 0x14F JUMPI DUP1 PUSH4 0x793A2B02 EQ PUSH2 0x17A JUMPI DUP1 PUSH4 0x81F252AB EQ PUSH2 0x19E JUMPI DUP1 PUSH4 0x8DA5CB5B EQ PUSH2 0x1EA JUMPI PUSH1 0x0 DUP1 REVERT JUMPDEST DUP1 PUSH4 0x14A94E85 EQ PUSH2 0xF8 JUMPI DUP1 PUSH4 0x2E75686A EQ PUSH2 0x11A JUMPI DUP1 PUSH4 0x3477E1C5 EQ PUSH2 0x13A JUMPI PUSH1 0x0 DUP1 REVERT JUMPDEST CALLDATASIZE PUSH2 0xF3 JUMPI STOP JUMPDEST PUSH1 0x0 DUP1 REVERT JUMPDEST CALLVALUE DUP1 ISZERO PUSH2 0x104 JUMPI PUSH1 0x0 DUP1 REVERT JUMPDEST POP PUSH2 0x118 PUSH2 0x113 CALLDATASIZE PUSH1 0x4 PUSH2 0xEF2 JUMP JUMPDEST PUSH2 0x33B JUMP JUMPDEST STOP JUMPDEST CALLVALUE DUP1 ISZERO PUSH2 0x126 JUMPI PUSH1 0x0 DUP1 REVERT JUMPDEST POP PUSH2 0x118 PUSH2 0x135 CALLDATASIZE PUSH1 0x4 PUSH2 0xEF2 JUMP JUMPDEST PUSH2 0x697 JUMP JUMPDEST CALLVALUE DUP1 ISZERO PUSH2 0x146 JUMPI PUSH1 0x0 DUP1 REVERT JUMPDEST POP PUSH2 0x118 PUSH2 0x8EB JUMP JUMPDEST CALLVALUE DUP1 ISZERO PUSH2 0x15B JUMPI PUSH1 0x0 DUP1 REVERT JUMPDEST POP PUSH2 0x164 PUSH2 0xA34 JUMP JUMPDEST PUSH1 0x40 MLOAD PUSH2 0x171 SWAP2 SWAP1 PUSH2 0xF7A JUMP JUMPDEST PUSH1 0x40 MLOAD DUP1 SWAP2 SUB SWAP1 RETURN JUMPDEST CALLVALUE DUP1 ISZERO PUSH2 0x186 JUMPI PUSH1 0x0 DUP1 REVERT JUMPDEST POP PUSH2 0x190 PUSH1 0x0 SLOAD DUP2 JUMP JUMPDEST PUSH1 0x40 MLOAD SWAP1 DUP2 MSTORE PUSH1 0x20 ADD PUSH2 0x171 JUMP JUMPDEST CALLVALUE DUP1 ISZERO PUSH2 0x1AA JUMPI PUSH1 0x0 DUP1 REVERT JUMPDEST POP PUSH2 0x1D2 PUSH32 0x0 DUP2 JUMP JUMPDEST PUSH1 0x40 MLOAD PUSH1 0x1 PUSH1 0x1 PUSH1 0xA0 SHL SUB SWAP1 SWAP2 AND DUP2 MSTORE PUSH1 0x20 ADD PUSH2 0x171 JUMP JUMPDEST CALLVALUE DUP1 ISZERO PUSH2 0x1F6 JUMPI PUSH1 0x0 DUP1 REVERT JUMPDEST POP PUSH2 0x1D2 PUSH32 0x0 DUP2 JUMP JUMPDEST CALLVALUE DUP1 ISZERO PUSH2 0x22A JUMPI PUSH1 0x0 DUP1 REVERT JUMPDEST POP PUSH2 0x1D2 PUSH32 0x0 DUP2 JUMP JUMPDEST CALLVALUE DUP1 ISZERO PUSH2 0x25E JUMPI PUSH1 0x0 DUP1 REVERT JUMPDEST POP PUSH2 0x1D2 PUSH32 0x0 DUP2 JUMP JUMPDEST CALLVALUE DUP1 ISZERO PUSH2 0x292 JUMPI PUSH1 0x0 DUP1 REVERT JUMPDEST POP PUSH2 0x118 PUSH2 0x2A1 CALLDATASIZE PUSH1 0x4 PUSH2 0xFAD JUMP JUMPDEST PUSH2 0xAC2 JUMP JUMPDEST CALLVALUE DUP1 ISZERO PUSH2 0x2B2 JUMPI PUSH1 0x0 DUP1 REVERT JUMPDEST POP PUSH1 0x2 SLOAD PUSH2 0x2C0 SWAP1 PUSH1 0xFF AND DUP2 JUMP JUMPDEST PUSH1 0x40 MLOAD SWAP1 ISZERO ISZERO DUP2 MSTORE PUSH1 0x20 ADD PUSH2 0x171 JUMP JUMPDEST CALLVALUE DUP1 ISZERO PUSH2 0x2DC JUMPI PUSH1 0x0 DUP1 REVERT JUMPDEST POP PUSH2 0x118 PUSH2 0x2EB CALLDATASIZE PUSH1 0x4 PUSH2 0xFF9 JUMP JUMPDEST PUSH2 0xBC5 JUMP JUMPDEST CALLVALUE DUP1 ISZERO PUSH2 0x2FC JUMPI PUSH1 0x0 DUP1 REVERT JUMPDEST POP PUSH2 0x190 PUSH1 0x3 SLOAD DUP2 JUMP JUMPDEST CALLVALUE DUP1 ISZERO PUSH2 0x312 JUMPI PUSH1 0x0 DUP1 REVERT JUMPDEST POP PUSH2 0x118 PUSH2 0x321 CALLDATASIZE PUSH1 0x4 PUSH2 0x1045 JUMP JUMPDEST PUSH2 0xD26 JUMP JUMPDEST CALLVALUE DUP1 ISZERO PUSH2 0x332 JUMPI PUSH1 0x0 DUP1 REVERT JUMPDEST POP PUSH2 0x190 PUSH2 0xE01 JUMP JUMPDEST CALLER PUSH1 0x1 PUSH1 0x1 PUSH1 0xA0 SHL SUB PUSH32 0x0 AND EQ PUSH2 0x38C JUMPI PUSH1 0x40 MLOAD PUSH3 0x461BCD PUSH1 0xE5 SHL DUP2 MSTORE PUSH1 0x4 ADD PUSH2 0x383 SWAP1 PUSH2 0x10DC JUMP JUMPDEST PUSH1 0x40 MLOAD DUP1 SWAP2 SUB SWAP1 REVERT JUMPDEST PUSH1 0x2 SLOAD PUSH1 0xFF AND PUSH2 0x3AE JUMPI PUSH1 0x40 MLOAD PUSH3 0x461BCD PUSH1 0xE5 SHL DUP2 MSTORE PUSH1 0x4 ADD PUSH2 0x383 SWAP1 PUSH2 0x1107 JUMP JUMPDEST PUSH1 0x1 PUSH1 0x1 PUSH1 0xA0 SHL SUB DUP6 AND PUSH2 0x3FB JUMPI PUSH1 0x40 MLOAD PUSH3 0x461BCD PUSH1 0xE5 SHL DUP2 MSTORE PUSH1 0x20 PUSH1 0x4 DUP3 ADD MSTORE PUSH1 0x14 PUSH1 0x24 DUP3 ADD MSTORE PUSH20 0x4152433430323A207A65726F2061646472657373 PUSH1 0x60 SHL PUSH1 0x44 DUP3 ADD MSTORE PUSH1 0x64 ADD PUSH2 0x383 JUMP JUMPDEST PUSH1 0x40 MLOAD PUSH4 0xB88FBD2D PUSH1 0xE0 SHL DUP2 MSTORE PUSH1 0x4 DUP2 ADD DUP3 SWAP1 MSTORE ADDRESS PUSH1 0x24 DUP3 ADD MSTORE PUSH32 0x0 PUSH1 0x1 PUSH1 0x1 PUSH1 0xA0 SHL SUB AND SWAP1 PUSH4 0xB88FBD2D SWAP1 PUSH1 0x44 ADD PUSH1 0x20 PUSH1 0x40 MLOAD DUP1 DUP4 SUB DUP2 DUP7 GAS STATICCALL ISZERO DUP1 ISZERO PUSH2 0x466 JUMPI RETURNDATASIZE PUSH1 0x0 DUP1 RETURNDATACOPY RETURNDATASIZE PUSH1 0x0 REVERT JUMPDEST POP POP POP POP PUSH1 0x40 MLOAD RETURNDATASIZE PUSH1 0x1F NOT PUSH1 0x1F DUP3 ADD AND DUP3 ADD DUP1 PUSH1 0x40 MSTORE POP DUP2 ADD SWAP1 PUSH2 0x48A SWAP2 SWAP1 PUSH2 0x1153 JUMP JUMPDEST PUSH2 0x4E1 JUMPI PUSH1 0x40 MLOAD PUSH3 0x461BCD PUSH1 0xE5 SHL DUP2 MSTORE PUSH1 0x20 PUSH1 0x4 DUP3 ADD MSTORE PUSH1 0x22 PUSH1 0x24 DUP3 ADD MSTORE PUSH32 0x4152433430323A20696E76616C696420696E74656E7420617474657374617469 PUSH1 0x44 DUP3 ADD MSTORE PUSH2 0x37B7 PUSH1 0xF1 SHL PUSH1 0x64 DUP3 ADD MSTORE PUSH1 0x84 ADD PUSH2 0x383 JUMP JUMPDEST PUSH1 0x0 DUP1 SLOAD PUSH1 0x40 MLOAD PUSH4 0xC9B3F8AD PUSH1 0xE0 SHL DUP2 MSTORE DUP3 SWAP2 PUSH1 0x1 PUSH1 0x1 PUSH1 0xA0 SHL SUB PUSH32 0x0 AND SWAP2 PUSH4 0xC9B3F8AD SWAP2 PUSH2 0x539 SWAP2 ADDRESS SWAP2 DUP11 SWAP2 DUP11 SWAP2 DUP14 SWAP2 PUSH1 0x4 ADD PUSH2 0x119E JUMP JUMPDEST PUSH1 0x0 PUSH1 0x40 MLOAD DUP1 DUP4 SUB DUP2 DUP7 GAS STATICCALL ISZERO DUP1 ISZERO PUSH2 0x556 JUMPI RETURNDATASIZE PUSH1 0x0 DUP1 RETURNDATACOPY RETURNDATASIZE PUSH1 0x0 REVERT JUMPDEST POP POP POP POP PUSH1 0x40 MLOAD RETURNDATASIZE PUSH1 0x0 DUP3 RETURNDATACOPY PUSH1 0x1F RETURNDATASIZE SWAP1 DUP2 ADD PUSH1 0x1F NOT AND DUP3 ADD PUSH1 0x40 MSTORE PUSH2 0x57E SWAP2 SWAP1 DUP2 ADD SWAP1 PUSH2 0x11ED JUMP JUMPDEST SWAP2 POP SWAP2 POP DUP2 DUP2 SWAP1 PUSH2 0x5A2 JUMPI PUSH1 0x40 MLOAD PUSH3 0x461BCD PUSH1 0xE5 SHL DUP2 MSTORE PUSH1 0x4 ADD PUSH2 0x383 SWAP2 SWAP1 PUSH2 0xF7A JUMP JUMPDEST POP DUP7 PUSH1 0x1 PUSH1 0x1 PUSH1 0xA0 SHL SUB AND PUSH32 0x2B3C6604FF1B7C691D7811592B52251B1E3335A6BCD446F7C845C33C7C837655 DUP8 DUP8 DUP8 DUP8 PUSH1 0x40 MLOAD PUSH2 0x5E2 SWAP5 SWAP4 SWAP3 SWAP2 SWAP1 PUSH2 0x12AD JUMP JUMPDEST PUSH1 0x40 MLOAD DUP1 SWAP2 SUB SWAP1 LOG2 PUSH1 0x0 DUP8 PUSH1 0x1 PUSH1 0x1 PUSH1 0xA0 SHL SUB AND DUP8 PUSH1 0x40 MLOAD PUSH1 0x0 PUSH1 0x40 MLOAD DUP1 DUP4 SUB DUP2 DUP6 DUP8 GAS CALL SWAP3 POP POP POP RETURNDATASIZE DUP1 PUSH1 0x0 DUP2 EQ PUSH2 0x637 JUMPI PUSH1 0x40 MLOAD SWAP2 POP PUSH1 0x1F NOT PUSH1 0x3F RETURNDATASIZE ADD AND DUP3 ADD PUSH1 0x40 MSTORE RETURNDATASIZE DUP3 MSTORE RETURNDATASIZE PUSH1 0x0 PUSH1 0x20 DUP5 ADD RETURNDATACOPY PUSH2 0x63C JUMP JUMPDEST PUSH1 0x60 SWAP2 POP JUMPDEST POP POP SWAP1 POP DUP1 PUSH2 0x68D JUMPI PUSH1 0x40 MLOAD PUSH3 0x461BCD PUSH1 0xE5 SHL DUP2 MSTORE PUSH1 0x20 PUSH1 0x4 DUP3 ADD MSTORE PUSH1 0x17 PUSH1 0x24 DUP3 ADD MSTORE PUSH32 0x4152433430323A207472616E73666572206661696C6564000000000000000000 PUSH1 0x44 DUP3 ADD MSTORE PUSH1 0x64 ADD PUSH2 0x383 JUMP JUMPDEST POP POP POP POP POP POP POP POP JUMP JUMPDEST CALLER PUSH1 0x1 PUSH1 0x1 PUSH1 0xA0 SHL SUB PUSH32 0x0 AND EQ PUSH2 0x6DF JUMPI PUSH1 0x40 MLOAD PUSH3 0x461BCD PUSH1 0xE5 SHL DUP2 MSTORE PUSH1 0x4 ADD PUSH2 0x383 SWAP1 PUSH2 0x10DC JUMP JUMPDEST PUSH1 0x2 SLOAD PUSH1 0xFF AND PUSH2 0x701 JUMPI PUSH1 0x40 MLOAD PUSH3 0x461BCD PUSH1 0xE5 SHL DUP2 MSTORE PUSH1 0x4 ADD PUSH2 0x383 SWAP1 PUSH2 0x1107 JUMP JUMPDEST PUSH1 0x40 MLOAD PUSH4 0xB88FBD2D PUSH1 0xE0 SHL DUP2 MSTORE PUSH1 0x4 DUP2 ADD DUP3 SWAP1 MSTORE ADDRESS PUSH1 0x24 DUP3 ADD MSTORE PUSH32 0x0 PUSH1 0x1 PUSH1 0x1 PUSH1 0xA0 SHL SUB AND SWAP1 PUSH4 0xB88FBD2D SWAP1 PUSH1 0x44 ADD PUSH1 0x20 PUSH1 0x40 MLOAD DUP1 DUP4 SUB DUP2 DUP7 GAS STATICCALL ISZERO DUP1 ISZERO PUSH2 0x76C JUMPI RETURNDATASIZE PUSH1 0x0 DUP1 RETURNDATACOPY RETURNDATASIZE PUSH1 0x0 REVERT JUMPDEST POP POP POP POP PUSH1 0x40 MLOAD RETURNDATASIZE PUSH1 0x1F NOT PUSH1 0x1F DUP3 ADD AND DUP3 ADD DUP1 PUSH1 0x40 MSTORE POP DUP2 ADD SWAP1 PUSH2 0x790 SWAP2 SWAP1 PUSH2 0x1153 JUMP JUMPDEST PUSH2 0x7DC JUMPI PUSH1 0x40 MLOAD PUSH3 0x461BCD PUSH1 0xE5 SHL DUP2 MSTORE PUSH1 0x20 PUSH1 0x4 DUP3 ADD MSTORE PUSH1 0x1B PUSH1 0x24 DUP3 ADD MSTORE PUSH32 0x4152433430323A20696E76616C6964206174746573746174696F6E0000000000 PUSH1 0x44 DUP3 ADD MSTORE PUSH1 0x64 ADD PUSH2 0x383 JUMP JUMPDEST PUSH1 0x0 DUP1 SLOAD PUSH1 0x40 MLOAD PUSH4 0xC9B3F8AD PUSH1 0xE0 SHL DUP2 MSTORE DUP3 SWAP2 PUSH1 0x1 PUSH1 0x1 PUSH1 0xA0 SHL SUB PUSH32 0x0 AND SWAP2 PUSH4 0xC9B3F8AD SWAP2 PUSH2 0x834 SWAP2 ADDRESS SWAP2 DUP11 SWAP2 DUP11 SWAP2 DUP14 SWAP2 PUSH1 0x4 ADD PUSH2 0x119E JUMP JUMPDEST PUSH1 0x0 PUSH1 0x40 MLOAD DUP1 DUP4 SUB DUP2 DUP7 GAS STATICCALL ISZERO DUP1 ISZERO PUSH2 0x851 JUMPI RETURNDATASIZE PUSH1 0x0 DUP1 RETURNDATACOPY RETURNDATASIZE PUSH1 0x0 REVERT JUMPDEST POP POP POP POP PUSH1 0x40 MLOAD RETURNDATASIZE PUSH1 0x0 DUP3 RETURNDATACOPY PUSH1 0x1F RETURNDATASIZE SWAP1 DUP2 ADD PUSH1 0x1F NOT AND DUP3 ADD PUSH1 0x40 MSTORE PUSH2 0x879 SWAP2 SWAP1 DUP2 ADD SWAP1 PUSH2 0x11ED JUMP JUMPDEST SWAP2 POP SWAP2 POP DUP2 DUP2 SWAP1 PUSH2 0x89D JUMPI PUSH1 0x40 MLOAD PUSH3 0x461BCD PUSH1 0xE5 SHL DUP2 MSTORE PUSH1 0x4 ADD PUSH2 0x383 SWAP2 SWAP1 PUSH2 0xF7A JUMP JUMPDEST POP PUSH1 0x40 DUP1 MLOAD DUP8 DUP2 MSTORE PUSH1 0x20 DUP2 ADD DUP6 SWAP1 MSTORE PUSH1 0x1 PUSH1 0x1 PUSH1 0xA0 SHL SUB DUP10 AND SWAP2 PUSH32 0x56D47BFFA7C2CBD89D97598EDFAACEDC5A898DCD47487959943F507C38BD4D0 SWAP2 ADD PUSH1 0x40 MLOAD DUP1 SWAP2 SUB SWAP1 LOG2 POP POP POP POP POP POP POP JUMP JUMPDEST CALLER PUSH1 0x1 PUSH1 0x1 PUSH1 0xA0 SHL SUB PUSH32 0x0 AND EQ PUSH2 0x933 JUMPI PUSH1 0x40 MLOAD PUSH3 0x461BCD PUSH1 0xE5 SHL DUP2 MSTORE PUSH1 0x4 ADD PUSH2 0x383 SWAP1 PUSH2 0x10DC JUMP JUMPDEST PUSH1 0x2 SLOAD PUSH1 0xFF AND PUSH2 0x955 JUMPI PUSH1 0x40 MLOAD PUSH3 0x461BCD PUSH1 0xE5 SHL DUP2 MSTORE PUSH1 0x4 ADD PUSH2 0x383 SWAP1 PUSH2 0x1107 JUMP JUMPDEST PUSH1 0x0 DUP1 SLOAD DUP2 DUP1 SSTORE PUSH1 0x40 DUP1 MLOAD PUSH1 0x20 DUP2 ADD SWAP1 SWAP2 MSTORE SWAP2 DUP3 MSTORE SWAP1 PUSH1 0x1 SWAP1 PUSH2 0x978 SWAP1 DUP3 PUSH2 0x1363 JUMP JUMPDEST POP PUSH1 0x2 DUP1 SLOAD PUSH1 0xFF NOT AND SWAP1 SSTORE PUSH1 0x40 MLOAD TIMESTAMP DUP2 MSTORE DUP2 SWAP1 PUSH32 0xCC6590861F6CA0CDAC2283EEC9E3D822129A66EFB8DDF2BF4B239AF6C168295F SWAP1 PUSH1 0x20 ADD PUSH1 0x40 MLOAD DUP1 SWAP2 SUB SWAP1 LOG2 PUSH1 0x40 MLOAD PUSH4 0x42341287 PUSH1 0xE0 SHL DUP2 MSTORE ADDRESS PUSH1 0x4 DUP3 ADD MSTORE PUSH32 0x0 PUSH1 0x1 PUSH1 0x1 PUSH1 0xA0 SHL SUB AND SWAP1 PUSH4 0x42341287 SWAP1 PUSH1 0x24 ADD PUSH1 0x0 PUSH1 0x40 MLOAD DUP1 DUP4 SUB DUP2 PUSH1 0x0 DUP8 DUP1 EXTCODESIZE ISZERO DUP1 ISZERO PUSH2 0xA19 JUMPI PUSH1 0x0 DUP1 REVERT JUMPDEST POP GAS CALL ISZERO DUP1 ISZERO PUSH2 0xA2D JUMPI RETURNDATASIZE PUSH1 0x0 DUP1 RETURNDATACOPY RETURNDATASIZE PUSH1 0x0 REVERT JUMPDEST POP POP POP POP POP JUMP JUMPDEST PUSH1 0x1 DUP1 SLOAD PUSH2 0xA41 SWAP1 PUSH2 0x12D8 JUMP JUMPDEST DUP1 PUSH1 0x1F ADD PUSH1 0x20 DUP1 SWAP2 DIV MUL PUSH1 0x20 ADD PUSH1 0x40 MLOAD SWAP1 DUP2 ADD PUSH1 0x40 MSTORE DUP1 SWAP3 SWAP2 SWAP1 DUP2 DUP2 MSTORE PUSH1 0x20 ADD DUP3 DUP1 SLOAD PUSH2 0xA6D SWAP1 PUSH2 0x12D8 JUMP JUMPDEST DUP1 ISZERO PUSH2 0xABA JUMPI DUP1 PUSH1 0x1F LT PUSH2 0xA8F JUMPI PUSH2 0x100 DUP1 DUP4 SLOAD DIV MUL DUP4 MSTORE SWAP2 PUSH1 0x20 ADD SWAP2 PUSH2 0xABA JUMP JUMPDEST DUP3 ADD SWAP2 SWAP1 PUSH1 0x0 MSTORE PUSH1 0x20 PUSH1 0x0 KECCAK256 SWAP1 JUMPDEST DUP2 SLOAD DUP2 MSTORE SWAP1 PUSH1 0x1 ADD SWAP1 PUSH1 0x20 ADD DUP1 DUP4 GT PUSH2 0xA9D JUMPI DUP3 SWAP1 SUB PUSH1 0x1F AND DUP3 ADD SWAP2 JUMPDEST POP POP POP POP POP DUP2 JUMP JUMPDEST CALLER PUSH1 0x1 PUSH1 0x1 PUSH1 0xA0 SHL SUB PUSH32 0x0 AND EQ PUSH2 0xB0A JUMPI PUSH1 0x40 MLOAD PUSH3 0x461BCD PUSH1 0xE5 SHL DUP2 MSTORE PUSH1 0x4 ADD PUSH2 0x383 SWAP1 PUSH2 0x10DC JUMP JUMPDEST PUSH1 0x2 SLOAD PUSH1 0xFF AND ISZERO PUSH2 0xB5D JUMPI PUSH1 0x40 MLOAD PUSH3 0x461BCD PUSH1 0xE5 SHL DUP2 MSTORE PUSH1 0x20 PUSH1 0x4 DUP3 ADD MSTORE PUSH1 0x1C PUSH1 0x24 DUP3 ADD MSTORE PUSH32 0x4152433430323A20636F6E7465787420616C7265616479206F70656E00000000 PUSH1 0x44 DUP3 ADD MSTORE PUSH1 0x64 ADD PUSH2 0x383 JUMP JUMPDEST PUSH1 0x0 DUP4 SWAP1 SSTORE PUSH1 0x1 PUSH2 0xB6F DUP3 DUP5 DUP4 PUSH2 0x1423 JUMP JUMPDEST POP PUSH1 0x2 DUP1 SLOAD PUSH1 0xFF NOT AND PUSH1 0x1 OR SWAP1 SSTORE TIMESTAMP PUSH1 0x3 DUP2 SWAP1 SSTORE PUSH1 0x40 MLOAD DUP5 SWAP2 PUSH32 0xDDE1929D79FEF15CB9B8ED0BAE129BCA92A432DE095CCE47D10096CDC0FC1BA4 SWAP2 PUSH2 0xBB8 SWAP2 DUP7 SWAP2 DUP7 SWAP2 SWAP1 PUSH2 0x14E3 JUMP JUMPDEST PUSH1 0x40 MLOAD DUP1 SWAP2 SUB SWAP1 LOG2 POP POP POP JUMP JUMPDEST CALLER PUSH1 0x1 PUSH1 0x1 PUSH1 0xA0 SHL SUB PUSH32 0x0 AND EQ PUSH2 0xC0D JUMPI PUSH1 0x40 MLOAD PUSH3 0x461BCD PUSH1 0xE5 SHL DUP2 MSTORE PUSH1 0x4 ADD PUSH2 0x383 SWAP1 PUSH2 0x10DC JUMP JUMPDEST PUSH1 0x0 PUSH32 0x0 PUSH1 0x1 PUSH1 0x1 PUSH1 0xA0 SHL SUB AND DUP5 DUP5 DUP5 PUSH1 0x40 MLOAD PUSH1 0x24 ADD PUSH2 0xC4E SWAP4 SWAP3 SWAP2 SWAP1 PUSH2 0x14E3 JUMP JUMPDEST PUSH1 0x40 DUP1 MLOAD PUSH1 0x1F NOT DUP2 DUP5 SUB ADD DUP2 MSTORE SWAP2 DUP2 MSTORE PUSH1 0x20 DUP3 ADD DUP1 MLOAD PUSH1 0x1 PUSH1 0x1 PUSH1 0xE0 SHL SUB AND PUSH4 0x4F9975A5 PUSH1 0xE0 SHL OR SWAP1 MSTORE MLOAD PUSH2 0xC83 SWAP2 SWAP1 PUSH2 0x1507 JUMP JUMPDEST PUSH1 0x0 PUSH1 0x40 MLOAD DUP1 DUP4 SUB DUP2 PUSH1 0x0 DUP7 GAS CALL SWAP2 POP POP RETURNDATASIZE DUP1 PUSH1 0x0 DUP2 EQ PUSH2 0xCC0 JUMPI PUSH1 0x40 MLOAD SWAP2 POP PUSH1 0x1F NOT PUSH1 0x3F RETURNDATASIZE ADD AND DUP3 ADD PUSH1 0x40 MSTORE RETURNDATASIZE DUP3 MSTORE RETURNDATASIZE PUSH1 0x0 PUSH1 0x20 DUP5 ADD RETURNDATACOPY PUSH2 0xCC5 JUMP JUMPDEST PUSH1 0x60 SWAP2 POP JUMPDEST POP POP SWAP1 POP DUP1 PUSH2 0xD20 JUMPI PUSH1 0x40 MLOAD PUSH3 0x461BCD PUSH1 0xE5 SHL DUP2 MSTORE PUSH1 0x20 PUSH1 0x4 DUP3 ADD MSTORE PUSH1 0x21 PUSH1 0x24 DUP3 ADD MSTORE PUSH32 0x4152433430323A2072656C617943617465676F72794C696D6974206661696C65 PUSH1 0x44 DUP3 ADD MSTORE PUSH1 0x19 PUSH1 0xFA SHL PUSH1 0x64 DUP3 ADD MSTORE PUSH1 0x84 ADD PUSH2 0x383 JUMP JUMPDEST POP POP POP POP JUMP JUMPDEST CALLER PUSH1 0x1 PUSH1 0x1 PUSH1 0xA0 SHL SUB PUSH32 0x0 AND EQ PUSH2 0xD6E JUMPI PUSH1 0x40 MLOAD PUSH3 0x461BCD PUSH1 0xE5 SHL DUP2 MSTORE PUSH1 0x4 ADD PUSH2 0x383 SWAP1 PUSH2 0x10DC JUMP JUMPDEST PUSH1 0x40 MLOAD PUSH4 0x1D135515 PUSH1 0xE0 SHL DUP2 MSTORE PUSH1 0x1 PUSH1 0x1 PUSH1 0xA0 SHL SUB PUSH32 0x0 AND SWAP1 PUSH4 0x1D135515 SWAP1 PUSH2 0xDC6 SWAP1 DUP11 SWAP1 DUP11 SWAP1 DUP11 SWAP1 DUP11 SWAP1 DUP11 SWAP1 DUP11 SWAP1 DUP11 SWAP1 PUSH1 0x4 ADD PUSH2 0x1523 JUMP JUMPDEST PUSH1 0x0 PUSH1 0x40 MLOAD DUP1 DUP4 SUB DUP2 PUSH1 0x0 DUP8 DUP1 EXTCODESIZE ISZERO DUP1 ISZERO PUSH2 0xDE0 JUMPI PUSH1 0x0 DUP1 REVERT JUMPDEST POP GAS CALL ISZERO DUP1 ISZERO PUSH2 0xDF4 JUMPI RETURNDATASIZE PUSH1 0x0 DUP1 RETURNDATACOPY RETURNDATASIZE PUSH1 0x0 REVERT JUMPDEST POP POP POP POP POP POP POP POP POP POP POP JUMP JUMPDEST PUSH1 0x40 MLOAD PUSH4 0xD47875D PUSH1 0xE4 SHL DUP2 MSTORE ADDRESS PUSH1 0x4 DUP3 ADD MSTORE PUSH1 0x0 SWAP1 PUSH32 0x0 PUSH1 0x1 PUSH1 0x1 PUSH1 0xA0 SHL SUB AND SWAP1 PUSH4 0xD47875D0 SWAP1 PUSH1 0x24 ADD PUSH1 0x20 PUSH1 0x40 MLOAD DUP1 DUP4 SUB DUP2 DUP7 GAS STATICCALL ISZERO DUP1 ISZERO PUSH2 0xE68 JUMPI RETURNDATASIZE PUSH1 0x0 DUP1 RETURNDATACOPY RETURNDATASIZE PUSH1 0x0 REVERT JUMPDEST POP POP POP POP PUSH1 0x40 MLOAD RETURNDATASIZE PUSH1 0x1F NOT PUSH1 0x1F DUP3 ADD AND DUP3 ADD DUP1 PUSH1 0x40 MSTORE POP DUP2 ADD SWAP1 PUSH2 0xE8C SWAP2 SWAP1 PUSH2 0x1570 JUMP JUMPDEST SWAP1 POP SWAP1 JUMP JUMPDEST PUSH1 0x1 PUSH1 0x1 PUSH1 0xA0 SHL SUB DUP2 AND DUP2 EQ PUSH2 0xEA6 JUMPI PUSH1 0x0 DUP1 REVERT JUMPDEST POP JUMP JUMPDEST PUSH1 0x0 DUP1 DUP4 PUSH1 0x1F DUP5 ADD SLT PUSH2 0xEBB JUMPI PUSH1 0x0 DUP1 REVERT JUMPDEST POP DUP2 CALLDATALOAD PUSH8 0xFFFFFFFFFFFFFFFF DUP2 GT ISZERO PUSH2 0xED3 JUMPI PUSH1 0x0 DUP1 REVERT JUMPDEST PUSH1 0x20 DUP4 ADD SWAP2 POP DUP4 PUSH1 0x20 DUP3 DUP6 ADD ADD GT ISZERO PUSH2 0xEEB JUMPI PUSH1 0x0 DUP1 REVERT JUMPDEST SWAP3 POP SWAP3 SWAP1 POP JUMP JUMPDEST PUSH1 0x0 DUP1 PUSH1 0x0 DUP1 PUSH1 0x0 PUSH1 0x80 DUP7 DUP9 SUB SLT ISZERO PUSH2 0xF0A JUMPI PUSH1 0x0 DUP1 REVERT JUMPDEST DUP6 CALLDATALOAD PUSH2 0xF15 DUP2 PUSH2 0xE91 JUMP JUMPDEST SWAP5 POP PUSH1 0x20 DUP7 ADD CALLDATALOAD SWAP4 POP PUSH1 0x40 DUP7 ADD CALLDATALOAD PUSH8 0xFFFFFFFFFFFFFFFF DUP2 GT ISZERO PUSH2 0xF38 JUMPI PUSH1 0x0 DUP1 REVERT JUMPDEST PUSH2 0xF44 DUP9 DUP3 DUP10 ADD PUSH2 0xEA9 JUMP JUMPDEST SWAP7 SWAP10 SWAP6 SWAP9 POP SWAP7 PUSH1 0x60 ADD CALLDATALOAD SWAP5 SWAP4 POP POP POP POP JUMP JUMPDEST PUSH1 0x0 JUMPDEST DUP4 DUP2 LT ISZERO PUSH2 0xF71 JUMPI DUP2 DUP2 ADD MLOAD DUP4 DUP3 ADD MSTORE PUSH1 0x20 ADD PUSH2 0xF59 JUMP JUMPDEST POP POP PUSH1 0x0 SWAP2 ADD MSTORE JUMP JUMPDEST PUSH1 0x20 DUP2 MSTORE PUSH1 0x0 DUP3 MLOAD DUP1 PUSH1 0x20 DUP5 ADD MSTORE PUSH2 0xF99 DUP2 PUSH1 0x40 DUP6 ADD PUSH1 0x20 DUP8 ADD PUSH2 0xF56 JUMP JUMPDEST PUSH1 0x1F ADD PUSH1 0x1F NOT AND SWAP2 SWAP1 SWAP2 ADD PUSH1 0x40 ADD SWAP3 SWAP2 POP POP JUMP JUMPDEST PUSH1 0x0 DUP1 PUSH1 0x0 PUSH1 0x40 DUP5 DUP7 SUB SLT ISZERO PUSH2 0xFC2 JUMPI PUSH1 0x0 DUP1 REVERT JUMPDEST DUP4 CALLDATALOAD SWAP3 POP PUSH1 0x20 DUP5 ADD CALLDATALOAD PUSH8 0xFFFFFFFFFFFFFFFF DUP2 GT ISZERO PUSH2 0xFE0 JUMPI PUSH1 0x0 DUP1 REVERT JUMPDEST PUSH2 0xFEC DUP7 DUP3 DUP8 ADD PUSH2 0xEA9 JUMP JUMPDEST SWAP5 SWAP8 SWAP1 SWAP7 POP SWAP4 SWAP5 POP POP POP POP JUMP JUMPDEST PUSH1 0x0 DUP1 PUSH1 0x0 PUSH1 0x40 DUP5 DUP7 SUB SLT ISZERO PUSH2 0x100E JUMPI PUSH1 0x0 DUP1 REVERT JUMPDEST DUP4 CALLDATALOAD PUSH8 0xFFFFFFFFFFFFFFFF DUP2 GT ISZERO PUSH2 0x1025 JUMPI PUSH1 0x0 DUP1 REVERT JUMPDEST PUSH2 0x1031 DUP7 DUP3 DUP8 ADD PUSH2 0xEA9 JUMP JUMPDEST SWAP1 SWAP8 SWAP1 SWAP7 POP PUSH1 0x20 SWAP6 SWAP1 SWAP6 ADD CALLDATALOAD SWAP5 SWAP4 POP POP POP POP JUMP JUMPDEST PUSH1 0x0 DUP1 PUSH1 0x0 DUP1 PUSH1 0x0 DUP1 PUSH1 0x0 PUSH1 0xA0 DUP9 DUP11 SUB SLT ISZERO PUSH2 0x1060 JUMPI PUSH1 0x0 DUP1 REVERT JUMPDEST DUP8 CALLDATALOAD SWAP7 POP PUSH1 0x20 DUP9 ADD CALLDATALOAD PUSH8 0xFFFFFFFFFFFFFFFF DUP1 DUP3 GT ISZERO PUSH2 0x107F JUMPI PUSH1 0x0 DUP1 REVERT JUMPDEST PUSH2 0x108B DUP12 DUP4 DUP13 ADD PUSH2 0xEA9 JUMP JUMPDEST SWAP1 SWAP9 POP SWAP7 POP PUSH1 0x40 DUP11 ADD CALLDATALOAD SWAP2 POP DUP1 DUP3 GT ISZERO PUSH2 0x10A4 JUMPI PUSH1 0x0 DUP1 REVERT JUMPDEST POP PUSH2 0x10B1 DUP11 DUP3 DUP12 ADD PUSH2 0xEA9 JUMP JUMPDEST SWAP1 SWAP6 POP SWAP4 POP POP PUSH1 0x60 DUP9 ADD CALLDATALOAD PUSH2 0x10C5 DUP2 PUSH2 0xE91 JUMP JUMPDEST DUP1 SWAP3 POP POP PUSH1 0x80 DUP9 ADD CALLDATALOAD SWAP1 POP SWAP3 SWAP6 SWAP9 SWAP2 SWAP5 SWAP8 POP SWAP3 SWAP6 POP JUMP JUMPDEST PUSH1 0x20 DUP1 DUP3 MSTORE PUSH1 0x11 SWAP1 DUP3 ADD MSTORE PUSH17 0x20A9219A18191D103737BA1037BBB732B9 PUSH1 0x79 SHL PUSH1 0x40 DUP3 ADD MSTORE PUSH1 0x60 ADD SWAP1 JUMP JUMPDEST PUSH1 0x20 DUP1 DUP3 MSTORE PUSH1 0x19 SWAP1 DUP3 ADD MSTORE PUSH32 0x4152433430323A206E6F2061637469766520636F6E7465787400000000000000 PUSH1 0x40 DUP3 ADD MSTORE PUSH1 0x60 ADD SWAP1 JUMP JUMPDEST DUP1 MLOAD DUP1 ISZERO ISZERO DUP2 EQ PUSH2 0x114E JUMPI PUSH1 0x0 DUP1 REVERT JUMPDEST SWAP2 SWAP1 POP JUMP JUMPDEST PUSH1 0x0 PUSH1 0x20 DUP3 DUP5 SUB SLT ISZERO PUSH2 0x1165 JUMPI PUSH1 0x0 DUP1 REVERT JUMPDEST PUSH2 0x116E DUP3 PUSH2 0x113E JUMP JUMPDEST SWAP4 SWAP3 POP POP POP JUMP JUMPDEST DUP2 DUP4 MSTORE DUP2 DUP2 PUSH1 0x20 DUP6 ADD CALLDATACOPY POP PUSH1 0x0 DUP3 DUP3 ADD PUSH1 0x20 SWAP1 DUP2 ADD SWAP2 SWAP1 SWAP2 MSTORE PUSH1 0x1F SWAP1 SWAP2 ADD PUSH1 0x1F NOT AND SWAP1 SWAP2 ADD ADD SWAP1 JUMP JUMPDEST PUSH1 0x1 PUSH1 0x1 PUSH1 0xA0 SHL SUB DUP7 AND DUP2 MSTORE PUSH1 0x80 PUSH1 0x20 DUP3 ADD DUP2 SWAP1 MSTORE PUSH1 0x0 SWAP1 PUSH2 0x11C3 SWAP1 DUP4 ADD DUP7 DUP9 PUSH2 0x1175 JUMP JUMPDEST PUSH1 0x40 DUP4 ADD SWAP5 SWAP1 SWAP5 MSTORE POP PUSH1 0x60 ADD MSTORE SWAP4 SWAP3 POP POP POP JUMP JUMPDEST PUSH4 0x4E487B71 PUSH1 0xE0 SHL PUSH1 0x0 MSTORE PUSH1 0x41 PUSH1 0x4 MSTORE PUSH1 0x24 PUSH1 0x0 REVERT JUMPDEST PUSH1 0x0 DUP1 PUSH1 0x40 DUP4 DUP6 SUB SLT ISZERO PUSH2 0x1200 JUMPI PUSH1 0x0 DUP1 REVERT JUMPDEST PUSH2 0x1209 DUP4 PUSH2 0x113E JUMP JUMPDEST SWAP2 POP PUSH1 0x20 DUP4 ADD MLOAD PUSH8 0xFFFFFFFFFFFFFFFF DUP1 DUP3 GT ISZERO PUSH2 0x1226 JUMPI PUSH1 0x0 DUP1 REVERT JUMPDEST DUP2 DUP6 ADD SWAP2 POP DUP6 PUSH1 0x1F DUP4 ADD SLT PUSH2 0x123A JUMPI PUSH1 0x0 DUP1 REVERT JUMPDEST DUP2 MLOAD DUP2 DUP2 GT ISZERO PUSH2 0x124C JUMPI PUSH2 0x124C PUSH2 0x11D7 JUMP JUMPDEST PUSH1 0x40 MLOAD PUSH1 0x1F DUP3 ADD PUSH1 0x1F NOT SWAP1 DUP2 AND PUSH1 0x3F ADD AND DUP2 ADD SWAP1 DUP4 DUP3 GT DUP2 DUP4 LT OR ISZERO PUSH2 0x1274 JUMPI PUSH2 0x1274 PUSH2 0x11D7 JUMP JUMPDEST DUP2 PUSH1 0x40 MSTORE DUP3 DUP2 MSTORE DUP9 PUSH1 0x20 DUP5 DUP8 ADD ADD GT ISZERO PUSH2 0x128D JUMPI PUSH1 0x0 DUP1 REVERT JUMPDEST PUSH2 0x129E DUP4 PUSH1 0x20 DUP4 ADD PUSH1 0x20 DUP9 ADD PUSH2 0xF56 JUMP JUMPDEST DUP1 SWAP6 POP POP POP POP POP POP SWAP3 POP SWAP3 SWAP1 POP JUMP JUMPDEST DUP5 DUP2 MSTORE PUSH1 0x60 PUSH1 0x20 DUP3 ADD MSTORE PUSH1 0x0 PUSH2 0x12C7 PUSH1 0x60 DUP4 ADD DUP6 DUP8 PUSH2 0x1175 JUMP JUMPDEST SWAP1 POP DUP3 PUSH1 0x40 DUP4 ADD MSTORE SWAP6 SWAP5 POP POP POP POP POP JUMP JUMPDEST PUSH1 0x1 DUP2 DUP2 SHR SWAP1 DUP3 AND DUP1 PUSH2 0x12EC JUMPI PUSH1 0x7F DUP3 AND SWAP2 POP JUMPDEST PUSH1 0x20 DUP3 LT DUP2 SUB PUSH2 0x130C JUMPI PUSH4 0x4E487B71 PUSH1 0xE0 SHL PUSH1 0x0 MSTORE PUSH1 0x22 PUSH1 0x4 MSTORE PUSH1 0x24 PUSH1 0x0 REVERT JUMPDEST POP SWAP2 SWAP1 POP JUMP JUMPDEST PUSH1 0x1F DUP3 GT ISZERO PUSH2 0x135E JUMPI PUSH1 0x0 DUP2 PUSH1 0x0 MSTORE PUSH1 0x20 PUSH1 0x0 KECCAK256 PUSH1 0x1F DUP6 ADD PUSH1 0x5 SHR DUP2 ADD PUSH1 0x20 DUP7 LT ISZERO PUSH2 0x133B JUMPI POP DUP1 JUMPDEST PUSH1 0x1F DUP6 ADD PUSH1 0x5 SHR DUP3 ADD SWAP2 POP JUMPDEST DUP2 DUP2 LT ISZERO PUSH2 0x135A JUMPI DUP3 DUP2 SSTORE PUSH1 0x1 ADD PUSH2 0x1347 JUMP JUMPDEST POP POP POP JUMPDEST POP POP POP JUMP JUMPDEST DUP2 MLOAD PUSH8 0xFFFFFFFFFFFFFFFF DUP2 GT ISZERO PUSH2 0x137D JUMPI PUSH2 0x137D PUSH2 0x11D7 JUMP JUMPDEST PUSH2 0x1391 DUP2 PUSH2 0x138B DUP5 SLOAD PUSH2 0x12D8 JUMP JUMPDEST DUP5 PUSH2 0x1312 JUMP JUMPDEST PUSH1 0x20 DUP1 PUSH1 0x1F DUP4 GT PUSH1 0x1 DUP2 EQ PUSH2 0x13C6 JUMPI PUSH1 0x0 DUP5 ISZERO PUSH2 0x13AE JUMPI POP DUP6 DUP4 ADD MLOAD JUMPDEST PUSH1 0x0 NOT PUSH1 0x3 DUP7 SWAP1 SHL SHR NOT AND PUSH1 0x1 DUP6 SWAP1 SHL OR DUP6 SSTORE PUSH2 0x135A JUMP JUMPDEST PUSH1 0x0 DUP6 DUP2 MSTORE PUSH1 0x20 DUP2 KECCAK256 PUSH1 0x1F NOT DUP7 AND SWAP2 JUMPDEST DUP3 DUP2 LT ISZERO PUSH2 0x13F5 JUMPI DUP9 DUP7 ADD MLOAD DUP3 SSTORE SWAP5 DUP5 ADD SWAP5 PUSH1 0x1 SWAP1 SWAP2 ADD SWAP1 DUP5 ADD PUSH2 0x13D6 JUMP JUMPDEST POP DUP6 DUP3 LT ISZERO PUSH2 0x1413 JUMPI DUP8 DUP6 ADD MLOAD PUSH1 0x0 NOT PUSH1 0x3 DUP9 SWAP1 SHL PUSH1 0xF8 AND SHR NOT AND DUP2 SSTORE JUMPDEST POP POP POP POP POP PUSH1 0x1 SWAP1 DUP2 SHL ADD SWAP1 SSTORE POP JUMP JUMPDEST PUSH8 0xFFFFFFFFFFFFFFFF DUP4 GT ISZERO PUSH2 0x143B JUMPI PUSH2 0x143B PUSH2 0x11D7 JUMP JUMPDEST PUSH2 0x144F DUP4 PUSH2 0x1449 DUP4 SLOAD PUSH2 0x12D8 JUMP JUMPDEST DUP4 PUSH2 0x1312 JUMP JUMPDEST PUSH1 0x0 PUSH1 0x1F DUP5 GT PUSH1 0x1 DUP2 EQ PUSH2 0x1483 JUMPI PUSH1 0x0 DUP6 ISZERO PUSH2 0x146B JUMPI POP DUP4 DUP3 ADD CALLDATALOAD JUMPDEST PUSH1 0x0 NOT PUSH1 0x3 DUP8 SWAP1 SHL SHR NOT AND PUSH1 0x1 DUP7 SWAP1 SHL OR DUP4 SSTORE PUSH2 0xA2D JUMP JUMPDEST PUSH1 0x0 DUP4 DUP2 MSTORE PUSH1 0x20 SWAP1 KECCAK256 PUSH1 0x1F NOT DUP7 AND SWAP1 DUP4 JUMPDEST DUP3 DUP2 LT ISZERO PUSH2 0x14B4 JUMPI DUP7 DUP6 ADD CALLDATALOAD DUP3 SSTORE PUSH1 0x20 SWAP5 DUP6 ADD SWAP5 PUSH1 0x1 SWAP1 SWAP3 ADD SWAP2 ADD PUSH2 0x1494 JUMP JUMPDEST POP DUP7 DUP3 LT ISZERO PUSH2 0x14D1 JUMPI PUSH1 0x0 NOT PUSH1 0xF8 DUP9 PUSH1 0x3 SHL AND SHR NOT DUP5 DUP8 ADD CALLDATALOAD AND DUP2 SSTORE JUMPDEST POP POP PUSH1 0x1 DUP6 PUSH1 0x1 SHL ADD DUP4 SSTORE POP POP POP POP POP JUMP JUMPDEST PUSH1 0x40 DUP2 MSTORE PUSH1 0x0 PUSH2 0x14F7 PUSH1 0x40 DUP4 ADD DUP6 DUP8 PUSH2 0x1175 JUMP JUMPDEST SWAP1 POP DUP3 PUSH1 0x20 DUP4 ADD MSTORE SWAP5 SWAP4 POP POP POP POP JUMP JUMPDEST PUSH1 0x0 DUP3 MLOAD PUSH2 0x1519 DUP2 DUP5 PUSH1 0x20 DUP8 ADD PUSH2 0xF56 JUMP JUMPDEST SWAP2 SWAP1 SWAP2 ADD SWAP3 SWAP2 POP POP JUMP JUMPDEST DUP8 DUP2 MSTORE PUSH1 0xA0 PUSH1 0x20 DUP3 ADD MSTORE PUSH1 0x0 PUSH2 0x153D PUSH1 0xA0 DUP4 ADD DUP9 DUP11 PUSH2 0x1175 JUMP JUMPDEST DUP3 DUP2 SUB PUSH1 0x40 DUP5 ADD MSTORE PUSH2 0x1550 DUP2 DUP8 DUP10 PUSH2 0x1175 JUMP JUMPDEST PUSH1 0x1 PUSH1 0x1 PUSH1 0xA0 SHL SUB SWAP6 SWAP1 SWAP6 AND PUSH1 0x60 DUP5 ADD MSTORE POP POP PUSH1 0x80 ADD MSTORE SWAP6 SWAP5 POP POP POP POP POP JUMP JUMPDEST PUSH1 0x0 PUSH1 0x20 DUP3 DUP5 SUB SLT ISZERO PUSH2 0x1582 JUMPI PUSH1 0x0 DUP1 REVERT JUMPDEST POP MLOAD SWAP2 SWAP1 POP JUMP INVALID LOG2 PUSH5 0x6970667358 0x22 SLT KECCAK256 DUP11 0x24 DUP8 MULMOD TIMESTAMP SWAP6 SWAP2 CALLDATALOAD 0xBD TIMESTAMP SWAP5 MULMOD SELFDESTRUCT KECCAK256 SWAP1 0x23 LOG4 0xEC PUSH3 0xFB4218 0x1F CHAINID DUP13 SWAP8 ORIGIN PUSH21 0xCE1D7DB64736F6C63430008180033000000000000 "},"methodIdentifiers":{"activeContextId()":"793a2b02","activeTaskType()":"75c2b9bd","closeContext()":"3477e1c5","contextOpen()":"b6290d7c","contextOpenedAt()":"e7c7d0d4","executeSpend(address,uint256,string,bytes32)":"14a94e85","getTrustScore()":"ee2638c4","intentAttestation()":"81f252ab","openContext(bytes32,string)":"9b89fbe3","owner()":"8da5cb5b","policyEngine()":"927399a5","proposeMASSettlement(address,uint256,string,bytes32)":"2e75686a","relayAttest(bytes32,string,string,address,uint256)":"e932b0b7","relayCategoryLimit(string,uint256)":"d97e6024","trustRegistry()":"9b835427"}}}}}