{"contracts/PolicyEngine.sol":{"PolicyEngine":{"abi":[{"anonymous":false,"inputs":[{"indexed":true,"internalType":"address","name":"wallet","type":"address"},{"indexed":false,"internalType":"string","name":"category","type":"string"},{"indexed":false,"internalType":"uint256","name":"limitPerTx","type":"uint256"}],"name":"CategoryLimitSet","type":"event"},{"anonymous":false,"inputs":[{"indexed":true,"internalType":"address","name":"wallet","type":"address"},{"indexed":false,"internalType":"bytes32","name":"policyHash","type":"bytes32"}],"name":"PolicySet","type":"event"},{"inputs":[{"internalType":"address","name":"","type":"address"},{"internalType":"string","name":"","type":"string"}],"name":"categoryLimits","outputs":[{"internalType":"uint256","name":"","type":"uint256"}],"stateMutability":"view","type":"function"},{"inputs":[{"internalType":"address","name":"wallet","type":"address"}],"name":"getPolicy","outputs":[{"internalType":"bytes32","name":"","type":"bytes32"},{"internalType":"bytes","name":"","type":"bytes"}],"stateMutability":"view","type":"function"},{"inputs":[{"internalType":"address","name":"wallet","type":"address"},{"internalType":"address","name":"owner","type":"address"}],"name":"registerWallet","outputs":[],"stateMutability":"nonpayable","type":"function"},{"inputs":[{"internalType":"string","name":"category","type":"string"},{"internalType":"uint256","name":"limitPerTx","type":"uint256"}],"name":"setCategoryLimit","outputs":[],"stateMutability":"nonpayable","type":"function"},{"inputs":[{"internalType":"address","name":"wallet","type":"address"},{"internalType":"string","name":"category","type":"string"},{"internalType":"uint256","name":"limitPerTx","type":"uint256"}],"name":"setCategoryLimitFor","outputs":[],"stateMutability":"nonpayable","type":"function"},{"inputs":[{"internalType":"bytes32","name":"policyHash","type":"bytes32"},{"internalType":"bytes","name":"policyData","type":"bytes"}],"name":"setPolicy","outputs":[],"stateMutability":"nonpayable","type":"function"},{"inputs":[{"internalType":"address","name":"wallet","type":"address"},{"internalType":"string","name":"category","type":"string"},{"internalType":"uint256","name":"amount","type":"uint256"},{"internalType":"bytes32","name":"","type":"bytes32"}],"name":"validateSpend","outputs":[{"internalType":"bool","name":"valid","type":"bool"},{"internalType":"string","name":"reason","type":"string"}],"stateMutability":"view","type":"function"},{"inputs":[{"internalType":"address","name":"","type":"address"}],"name":"walletOwners","outputs":[{"internalType":"address","name":"","type":"address"}],"stateMutability":"view","type":"function"}],"evm":{"bytecode":{"linkReferences":{},"object":"608060405234801561001057600080fd5b50610afc806100206000396000f3fe608060405234801561001057600080fd5b50600436106100885760003560e01c8063a8e9379a1161005b578063a8e9379a1461014e578063b15c743a1461018f578063c9b3f8ad146101a2578063d15d5e08146101c357600080fd5b8063098fbe9b1461008d5780633791dc6a146100dc5780634f9975a5146100fd5780639679372514610112575b600080fd5b6100c961009b3660046105a9565b6001602090815260009283526040909220815180830184018051928152908401929093019190912091525481565b6040519081526020015b60405180910390f35b6100ef6100ea36600461066b565b6101d6565b6040516100d39291906106d3565b61011061010b36600461073d565b610291565b005b610110610120366004610789565b6001600160a01b03918216600090815260026020526040902080546001600160a01b03191691909216179055565b61017761015c36600461066b565b6002602052600090815260409020546001600160a01b031681565b6040516001600160a01b0390911681526020016100d3565b61011061019d3660046107bc565b610307565b6101b56101b0366004610808565b6103b6565b6040516100d392919061086d565b6101106101d1366004610888565b61046e565b6001600160a01b038116600090815260208190526040812080546001820180546060939291908190610207906108e2565b80601f0160208091040260200160405190810160405280929190818152602001828054610233906108e2565b80156102805780601f1061025557610100808354040283529160200191610280565b820191906000526020600020905b81548152906001019060200180831161026357829003601f168201915b505050505090509250925050915091565b336000908152600160205260409081902090518291906102b4908690869061091c565b9081526040519081900360200181209190915533907f844891fdaecb602b3a217b24d12ce10a0b56d973e6c938e4ebd8035757ab1418906102fa9086908690869061092c565b60405180910390a2505050565b604051806060016040528084815260200183838080601f016020809104026020016040519081016040528093929190818152602001838380828437600092018290525093855250504260209384015250338152808252604090208251815590820151600182019061037890826109b6565b50604091820151600291909101555183815233907f053c16c21cccdb49bf267bb56fcf981eee54706d8c3de260e601cc5421efffbb906020016102fa565b6001600160a01b038516600090815260016020526040808220905160609183916103e3908990899061091c565b908152602001604051809103902054905080600003610421576000604051806060016040528060258152602001610aa2602591399250925050610464565b8085111561044e5760006040518060600160405280602b8152602001610a77602b91399250925050610464565b5050604080516020810190915260008152600191505b9550959350505050565b6001600160a01b038481166000908152600260205260409020541633148061049e57506001600160a01b03841633145b6104ee5760405162461bcd60e51b815260206004820152601c60248201527f506f6c696379456e67696e653a206e6f7420617574686f72697a656400000000604482015260640160405180910390fd5b6001600160a01b03841660009081526001602052604090819020905182919061051a908690869061091c565b908152602001604051809103902081905550836001600160a01b03167f844891fdaecb602b3a217b24d12ce10a0b56d973e6c938e4ebd8035757ab14188484846040516105699392919061092c565b60405180910390a250505050565b80356001600160a01b038116811461058e57600080fd5b919050565b634e487b7160e01b600052604160045260246000fd5b600080604083850312156105bc57600080fd5b6105c583610577565b9150602083013567ffffffffffffffff808211156105e257600080fd5b818501915085601f8301126105f657600080fd5b81358181111561060857610608610593565b604051601f8201601f19908116603f0116810190838211818310171561063057610630610593565b8160405282815288602084870101111561064957600080fd5b8260208601602083013760006020848301015280955050505050509250929050565b60006020828403121561067d57600080fd5b61068682610577565b9392505050565b6000815180845260005b818110156106b357602081850181015186830182015201610697565b506000602082860101526020601f19601f83011685010191505092915050565b8281526040602082015260006106ec604083018461068d565b949350505050565b60008083601f84011261070657600080fd5b50813567ffffffffffffffff81111561071e57600080fd5b60208301915083602082850101111561073657600080fd5b9250929050565b60008060006040848603121561075257600080fd5b833567ffffffffffffffff81111561076957600080fd5b610775868287016106f4565b909790965060209590950135949350505050565b6000806040838503121561079c57600080fd5b6107a583610577565b91506107b360208401610577565b90509250929050565b6000806000604084860312156107d157600080fd5b83359250602084013567ffffffffffffffff8111156107ef57600080fd5b6107fb868287016106f4565b9497909650939450505050565b60008060008060006080868803121561082057600080fd5b61082986610577565b9450602086013567ffffffffffffffff81111561084557600080fd5b610851888289016106f4565b9699909850959660408101359660609091013595509350505050565b82151581526040602082015260006106ec604083018461068d565b6000806000806060858703121561089e57600080fd5b6108a785610577565b9350602085013567ffffffffffffffff8111156108c357600080fd5b6108cf878288016106f4565b9598909750949560400135949350505050565b600181811c908216806108f657607f821691505b60208210810361091657634e487b7160e01b600052602260045260246000fd5b50919050565b8183823760009101908152919050565b604081528260408201528284606083013760006060848301015260006060601f19601f8601168301019050826020830152949350505050565b601f8211156109b1576000816000526020600020601f850160051c8101602086101561098e5750805b601f850160051c820191505b818110156109ad5782815560010161099a565b5050505b505050565b815167ffffffffffffffff8111156109d0576109d0610593565b6109e4816109de84546108e2565b84610965565b602080601f831160018114610a195760008415610a015750858301515b600019600386901b1c1916600185901b1785556109ad565b600085815260208120601f198616915b82811015610a4857888601518255948401946001909101908401610a29565b5085821015610a665787850151600019600388901b60f8161c191681555b5050505050600190811b0190555056fe506f6c696379456e67696e653a20616d6f756e7420657863656564732063617465676f7279206c696d6974506f6c696379456e67696e653a2063617465676f7279206e6f7420636f6e66696775726564a26469706673582212200636715809cdbb734eb93c7e5e8aab6f15c93e5c4ccda5e8023c4966fb91719e64736f6c63430008180033","opcodes":"PUSH1 0x80 PUSH1 0x40 MSTORE CALLVALUE DUP1 ISZERO PUSH2 0x10 JUMPI PUSH1 0x0 DUP1 REVERT JUMPDEST POP PUSH2 0xAFC DUP1 PUSH2 0x20 PUSH1 0x0 CODECOPY PUSH1 0x0 RETURN INVALID PUSH1 0x80 PUSH1 0x40 MSTORE CALLVALUE DUP1 ISZERO PUSH2 0x10 JUMPI PUSH1 0x0 DUP1 REVERT JUMPDEST POP PUSH1 0x4 CALLDATASIZE LT PUSH2 0x88 JUMPI PUSH1 0x0 CALLDATALOAD PUSH1 0xE0 SHR DUP1 PUSH4 0xA8E9379A GT PUSH2 0x5B JUMPI DUP1 PUSH4 0xA8E9379A EQ PUSH2 0x14E JUMPI DUP1 PUSH4 0xB15C743A EQ PUSH2 0x18F JUMPI DUP1 PUSH4 0xC9B3F8AD EQ PUSH2 0x1A2 JUMPI DUP1 PUSH4 0xD15D5E08 EQ PUSH2 0x1C3 JUMPI PUSH1 0x0 DUP1 REVERT JUMPDEST DUP1 PUSH4 0x98FBE9B EQ PUSH2 0x8D JUMPI DUP1 PUSH4 0x3791DC6A EQ PUSH2 0xDC JUMPI DUP1 PUSH4 0x4F9975A5 EQ PUSH2 0xFD JUMPI DUP1 PUSH4 0x96793725 EQ PUSH2 0x112 JUMPI JUMPDEST PUSH1 0x0 DUP1 REVERT JUMPDEST PUSH2 0xC9 PUSH2 0x9B CALLDATASIZE PUSH1 0x4 PUSH2 0x5A9 JUMP JUMPDEST PUSH1 0x1 PUSH1 0x20 SWAP1 DUP2 MSTORE PUSH1 0x0 SWAP3 DUP4 MSTORE PUSH1 0x40 SWAP1 SWAP3 KECCAK256 DUP2 MLOAD DUP1 DUP4 ADD DUP5 ADD DUP1 MLOAD SWAP3 DUP2 MSTORE SWAP1 DUP5 ADD SWAP3 SWAP1 SWAP4 ADD SWAP2 SWAP1 SWAP2 KECCAK256 SWAP2 MSTORE SLOAD DUP2 JUMP JUMPDEST PUSH1 0x40 MLOAD SWAP1 DUP2 MSTORE PUSH1 0x20 ADD JUMPDEST PUSH1 0x40 MLOAD DUP1 SWAP2 SUB SWAP1 RETURN JUMPDEST PUSH2 0xEF PUSH2 0xEA CALLDATASIZE PUSH1 0x4 PUSH2 0x66B JUMP JUMPDEST PUSH2 0x1D6 JUMP JUMPDEST PUSH1 0x40 MLOAD PUSH2 0xD3 SWAP3 SWAP2 SWAP1 PUSH2 0x6D3 JUMP JUMPDEST PUSH2 0x110 PUSH2 0x10B CALLDATASIZE PUSH1 0x4 PUSH2 0x73D JUMP JUMPDEST PUSH2 0x291 JUMP JUMPDEST STOP JUMPDEST PUSH2 0x110 PUSH2 0x120 CALLDATASIZE PUSH1 0x4 PUSH2 0x789 JUMP JUMPDEST PUSH1 0x1 PUSH1 0x1 PUSH1 0xA0 SHL SUB SWAP2 DUP3 AND PUSH1 0x0 SWAP1 DUP2 MSTORE PUSH1 0x2 PUSH1 0x20 MSTORE PUSH1 0x40 SWAP1 KECCAK256 DUP1 SLOAD PUSH1 0x1 PUSH1 0x1 PUSH1 0xA0 SHL SUB NOT AND SWAP2 SWAP1 SWAP3 AND OR SWAP1 SSTORE JUMP JUMPDEST PUSH2 0x177 PUSH2 0x15C CALLDATASIZE PUSH1 0x4 PUSH2 0x66B JUMP JUMPDEST PUSH1 0x2 PUSH1 0x20 MSTORE PUSH1 0x0 SWAP1 DUP2 MSTORE PUSH1 0x40 SWAP1 KECCAK256 SLOAD PUSH1 0x1 PUSH1 0x1 PUSH1 0xA0 SHL SUB AND DUP2 JUMP JUMPDEST PUSH1 0x40 MLOAD PUSH1 0x1 PUSH1 0x1 PUSH1 0xA0 SHL SUB SWAP1 SWAP2 AND DUP2 MSTORE PUSH1 0x20 ADD PUSH2 0xD3 JUMP JUMPDEST PUSH2 0x110 PUSH2 0x19D CALLDATASIZE PUSH1 0x4 PUSH2 0x7BC JUMP JUMPDEST PUSH2 0x307 JUMP JUMPDEST PUSH2 0x1B5 PUSH2 0x1B0 CALLDATASIZE PUSH1 0x4 PUSH2 0x808 JUMP JUMPDEST PUSH2 0x3B6 JUMP JUMPDEST PUSH1 0x40 MLOAD PUSH2 0xD3 SWAP3 SWAP2 SWAP1 PUSH2 0x86D JUMP JUMPDEST PUSH2 0x110 PUSH2 0x1D1 CALLDATASIZE PUSH1 0x4 PUSH2 0x888 JUMP JUMPDEST PUSH2 0x46E JUMP JUMPDEST PUSH1 0x1 PUSH1 0x1 PUSH1 0xA0 SHL SUB DUP2 AND PUSH1 0x0 SWAP1 DUP2 MSTORE PUSH1 0x20 DUP2 SWAP1 MSTORE PUSH1 0x40 DUP2 KECCAK256 DUP1 SLOAD PUSH1 0x1 DUP3 ADD DUP1 SLOAD PUSH1 0x60 SWAP4 SWAP3 SWAP2 SWAP1 DUP2 SWAP1 PUSH2 0x207 SWAP1 PUSH2 0x8E2 JUMP JUMPDEST DUP1 PUSH1 0x1F ADD PUSH1 0x20 DUP1 SWAP2 DIV MUL PUSH1 0x20 ADD PUSH1 0x40 MLOAD SWAP1 DUP2 ADD PUSH1 0x40 MSTORE DUP1 SWAP3 SWAP2 SWAP1 DUP2 DUP2 MSTORE PUSH1 0x20 ADD DUP3 DUP1 SLOAD PUSH2 0x233 SWAP1 PUSH2 0x8E2 JUMP JUMPDEST DUP1 ISZERO PUSH2 0x280 JUMPI DUP1 PUSH1 0x1F LT PUSH2 0x255 JUMPI PUSH2 0x100 DUP1 DUP4 SLOAD DIV MUL DUP4 MSTORE SWAP2 PUSH1 0x20 ADD SWAP2 PUSH2 0x280 JUMP JUMPDEST DUP3 ADD SWAP2 SWAP1 PUSH1 0x0 MSTORE PUSH1 0x20 PUSH1 0x0 KECCAK256 SWAP1 JUMPDEST DUP2 SLOAD DUP2 MSTORE SWAP1 PUSH1 0x1 ADD SWAP1 PUSH1 0x20 ADD DUP1 DUP4 GT PUSH2 0x263 JUMPI DUP3 SWAP1 SUB PUSH1 0x1F AND DUP3 ADD SWAP2 JUMPDEST POP POP POP POP POP SWAP1 POP SWAP3 POP SWAP3 POP POP SWAP2 POP SWAP2 JUMP JUMPDEST CALLER PUSH1 0x0 SWAP1 DUP2 MSTORE PUSH1 0x1 PUSH1 0x20 MSTORE PUSH1 0x40 SWAP1 DUP2 SWAP1 KECCAK256 SWAP1 MLOAD DUP3 SWAP2 SWAP1 PUSH2 0x2B4 SWAP1 DUP7 SWAP1 DUP7 SWAP1 PUSH2 0x91C JUMP JUMPDEST SWAP1 DUP2 MSTORE PUSH1 0x40 MLOAD SWAP1 DUP2 SWAP1 SUB PUSH1 0x20 ADD DUP2 KECCAK256 SWAP2 SWAP1 SWAP2 SSTORE CALLER SWAP1 PUSH32 0x844891FDAECB602B3A217B24D12CE10A0B56D973E6C938E4EBD8035757AB1418 SWAP1 PUSH2 0x2FA SWAP1 DUP7 SWAP1 DUP7 SWAP1 DUP7 SWAP1 PUSH2 0x92C JUMP JUMPDEST PUSH1 0x40 MLOAD DUP1 SWAP2 SUB SWAP1 LOG2 POP POP POP JUMP JUMPDEST PUSH1 0x40 MLOAD DUP1 PUSH1 0x60 ADD PUSH1 0x40 MSTORE DUP1 DUP5 DUP2 MSTORE PUSH1 0x20 ADD DUP4 DUP4 DUP1 DUP1 PUSH1 0x1F ADD PUSH1 0x20 DUP1 SWAP2 DIV MUL PUSH1 0x20 ADD PUSH1 0x40 MLOAD SWAP1 DUP2 ADD PUSH1 0x40 MSTORE DUP1 SWAP4 SWAP3 SWAP2 SWAP1 DUP2 DUP2 MSTORE PUSH1 0x20 ADD DUP4 DUP4 DUP1 DUP3 DUP5 CALLDATACOPY PUSH1 0x0 SWAP3 ADD DUP3 SWAP1 MSTORE POP SWAP4 DUP6 MSTORE POP POP TIMESTAMP PUSH1 0x20 SWAP4 DUP5 ADD MSTORE POP CALLER DUP2 MSTORE DUP1 DUP3 MSTORE PUSH1 0x40 SWAP1 KECCAK256 DUP3 MLOAD DUP2 SSTORE SWAP1 DUP3 ADD MLOAD PUSH1 0x1 DUP3 ADD SWAP1 PUSH2 0x378 SWAP1 DUP3 PUSH2 0x9B6 JUMP JUMPDEST POP PUSH1 0x40 SWAP2 DUP3 ADD MLOAD PUSH1 0x2 SWAP2 SWAP1 SWAP2 ADD SSTORE MLOAD DUP4 DUP2 MSTORE CALLER SWAP1 PUSH32 0x53C16C21CCCDB49BF267BB56FCF981EEE54706D8C3DE260E601CC5421EFFFBB SWAP1 PUSH1 0x20 ADD PUSH2 0x2FA JUMP JUMPDEST PUSH1 0x1 PUSH1 0x1 PUSH1 0xA0 SHL SUB DUP6 AND PUSH1 0x0 SWAP1 DUP2 MSTORE PUSH1 0x1 PUSH1 0x20 MSTORE PUSH1 0x40 DUP1 DUP3 KECCAK256 SWAP1 MLOAD PUSH1 0x60 SWAP2 DUP4 SWAP2 PUSH2 0x3E3 SWAP1 DUP10 SWAP1 DUP10 SWAP1 PUSH2 0x91C JUMP JUMPDEST SWAP1 DUP2 MSTORE PUSH1 0x20 ADD PUSH1 0x40 MLOAD DUP1 SWAP2 SUB SWAP1 KECCAK256 SLOAD SWAP1 POP DUP1 PUSH1 0x0 SUB PUSH2 0x421 JUMPI PUSH1 0x0 PUSH1 0x40 MLOAD DUP1 PUSH1 0x60 ADD PUSH1 0x40 MSTORE DUP1 PUSH1 0x25 DUP2 MSTORE PUSH1 0x20 ADD PUSH2 0xAA2 PUSH1 0x25 SWAP2 CODECOPY SWAP3 POP SWAP3 POP POP PUSH2 0x464 JUMP JUMPDEST DUP1 DUP6 GT ISZERO PUSH2 0x44E JUMPI PUSH1 0x0 PUSH1 0x40 MLOAD DUP1 PUSH1 0x60 ADD PUSH1 0x40 MSTORE DUP1 PUSH1 0x2B DUP2 MSTORE PUSH1 0x20 ADD PUSH2 0xA77 PUSH1 0x2B SWAP2 CODECOPY SWAP3 POP SWAP3 POP POP PUSH2 0x464 JUMP JUMPDEST POP POP PUSH1 0x40 DUP1 MLOAD PUSH1 0x20 DUP2 ADD SWAP1 SWAP2 MSTORE PUSH1 0x0 DUP2 MSTORE PUSH1 0x1 SWAP2 POP JUMPDEST SWAP6 POP SWAP6 SWAP4 POP POP POP POP JUMP JUMPDEST PUSH1 0x1 PUSH1 0x1 PUSH1 0xA0 SHL SUB DUP5 DUP2 AND PUSH1 0x0 SWAP1 DUP2 MSTORE PUSH1 0x2 PUSH1 0x20 MSTORE PUSH1 0x40 SWAP1 KECCAK256 SLOAD AND CALLER EQ DUP1 PUSH2 0x49E JUMPI POP PUSH1 0x1 PUSH1 0x1 PUSH1 0xA0 SHL SUB DUP5 AND CALLER EQ JUMPDEST PUSH2 0x4EE JUMPI PUSH1 0x40 MLOAD PUSH3 0x461BCD PUSH1 0xE5 SHL DUP2 MSTORE PUSH1 0x20 PUSH1 0x4 DUP3 ADD MSTORE PUSH1 0x1C PUSH1 0x24 DUP3 ADD MSTORE PUSH32 0x506F6C696379456E67696E653A206E6F7420617574686F72697A656400000000 PUSH1 0x44 DUP3 ADD MSTORE PUSH1 0x64 ADD PUSH1 0x40 MLOAD DUP1 SWAP2 SUB SWAP1 REVERT JUMPDEST PUSH1 0x1 PUSH1 0x1 PUSH1 0xA0 SHL SUB DUP5 AND PUSH1 0x0 SWAP1 DUP2 MSTORE PUSH1 0x1 PUSH1 0x20 MSTORE PUSH1 0x40 SWAP1 DUP2 SWAP1 KECCAK256 SWAP1 MLOAD DUP3 SWAP2 SWAP1 PUSH2 0x51A SWAP1 DUP7 SWAP1 DUP7 SWAP1 PUSH2 0x91C JUMP JUMPDEST SWAP1 DUP2 MSTORE PUSH1 0x20 ADD PUSH1 0x40 MLOAD DUP1 SWAP2 SUB SWAP1 KECCAK256 DUP2 SWAP1 SSTORE POP DUP4 PUSH1 0x1 PUSH1 0x1 PUSH1 0xA0 SHL SUB AND PUSH32 0x844891FDAECB602B3A217B24D12CE10A0B56D973E6C938E4EBD8035757AB1418 DUP5 DUP5 DUP5 PUSH1 0x40 MLOAD PUSH2 0x569 SWAP4 SWAP3 SWAP2 SWAP1 PUSH2 0x92C JUMP JUMPDEST PUSH1 0x40 MLOAD DUP1 SWAP2 SUB SWAP1 LOG2 POP POP POP POP JUMP JUMPDEST DUP1 CALLDATALOAD PUSH1 0x1 PUSH1 0x1 PUSH1 0xA0 SHL SUB DUP2 AND DUP2 EQ PUSH2 0x58E JUMPI PUSH1 0x0 DUP1 REVERT JUMPDEST SWAP2 SWAP1 POP JUMP JUMPDEST PUSH4 0x4E487B71 PUSH1 0xE0 SHL PUSH1 0x0 MSTORE PUSH1 0x41 PUSH1 0x4 MSTORE PUSH1 0x24 PUSH1 0x0 REVERT JUMPDEST PUSH1 0x0 DUP1 PUSH1 0x40 DUP4 DUP6 SUB SLT ISZERO PUSH2 0x5BC JUMPI PUSH1 0x0 DUP1 REVERT JUMPDEST PUSH2 0x5C5 DUP4 PUSH2 0x577 JUMP JUMPDEST SWAP2 POP PUSH1 0x20 DUP4 ADD CALLDATALOAD PUSH8 0xFFFFFFFFFFFFFFFF DUP1 DUP3 GT ISZERO PUSH2 0x5E2 JUMPI PUSH1 0x0 DUP1 REVERT JUMPDEST DUP2 DUP6 ADD SWAP2 POP DUP6 PUSH1 0x1F DUP4 ADD SLT PUSH2 0x5F6 JUMPI PUSH1 0x0 DUP1 REVERT JUMPDEST DUP2 CALLDATALOAD DUP2 DUP2 GT ISZERO PUSH2 0x608 JUMPI PUSH2 0x608 PUSH2 0x593 JUMP JUMPDEST PUSH1 0x40 MLOAD PUSH1 0x1F DUP3 ADD PUSH1 0x1F NOT SWAP1 DUP2 AND PUSH1 0x3F ADD AND DUP2 ADD SWAP1 DUP4 DUP3 GT DUP2 DUP4 LT OR ISZERO PUSH2 0x630 JUMPI PUSH2 0x630 PUSH2 0x593 JUMP JUMPDEST DUP2 PUSH1 0x40 MSTORE DUP3 DUP2 MSTORE DUP9 PUSH1 0x20 DUP5 DUP8 ADD ADD GT ISZERO PUSH2 0x649 JUMPI PUSH1 0x0 DUP1 REVERT JUMPDEST DUP3 PUSH1 0x20 DUP7 ADD PUSH1 0x20 DUP4 ADD CALLDATACOPY PUSH1 0x0 PUSH1 0x20 DUP5 DUP4 ADD ADD MSTORE DUP1 SWAP6 POP POP POP POP POP POP SWAP3 POP SWAP3 SWAP1 POP JUMP JUMPDEST PUSH1 0x0 PUSH1 0x20 DUP3 DUP5 SUB SLT ISZERO PUSH2 0x67D JUMPI PUSH1 0x0 DUP1 REVERT JUMPDEST PUSH2 0x686 DUP3 PUSH2 0x577 JUMP JUMPDEST SWAP4 SWAP3 POP POP POP JUMP JUMPDEST PUSH1 0x0 DUP2 MLOAD DUP1 DUP5 MSTORE PUSH1 0x0 JUMPDEST DUP2 DUP2 LT ISZERO PUSH2 0x6B3 JUMPI PUSH1 0x20 DUP2 DUP6 ADD DUP2 ADD MLOAD DUP7 DUP4 ADD DUP3 ADD MSTORE ADD PUSH2 0x697 JUMP JUMPDEST POP PUSH1 0x0 PUSH1 0x20 DUP3 DUP7 ADD ADD MSTORE PUSH1 0x20 PUSH1 0x1F NOT PUSH1 0x1F DUP4 ADD AND DUP6 ADD ADD SWAP2 POP POP SWAP3 SWAP2 POP POP JUMP JUMPDEST DUP3 DUP2 MSTORE PUSH1 0x40 PUSH1 0x20 DUP3 ADD MSTORE PUSH1 0x0 PUSH2 0x6EC PUSH1 0x40 DUP4 ADD DUP5 PUSH2 0x68D JUMP JUMPDEST SWAP5 SWAP4 POP POP POP POP JUMP JUMPDEST PUSH1 0x0 DUP1 DUP4 PUSH1 0x1F DUP5 ADD SLT PUSH2 0x706 JUMPI PUSH1 0x0 DUP1 REVERT JUMPDEST POP DUP2 CALLDATALOAD PUSH8 0xFFFFFFFFFFFFFFFF DUP2 GT ISZERO PUSH2 0x71E JUMPI PUSH1 0x0 DUP1 REVERT JUMPDEST PUSH1 0x20 DUP4 ADD SWAP2 POP DUP4 PUSH1 0x20 DUP3 DUP6 ADD ADD GT ISZERO PUSH2 0x736 JUMPI PUSH1 0x0 DUP1 REVERT JUMPDEST SWAP3 POP SWAP3 SWAP1 POP JUMP JUMPDEST PUSH1 0x0 DUP1 PUSH1 0x0 PUSH1 0x40 DUP5 DUP7 SUB SLT ISZERO PUSH2 0x752 JUMPI PUSH1 0x0 DUP1 REVERT JUMPDEST DUP4 CALLDATALOAD PUSH8 0xFFFFFFFFFFFFFFFF DUP2 GT ISZERO PUSH2 0x769 JUMPI PUSH1 0x0 DUP1 REVERT JUMPDEST PUSH2 0x775 DUP7 DUP3 DUP8 ADD PUSH2 0x6F4 JUMP JUMPDEST SWAP1 SWAP8 SWAP1 SWAP7 POP PUSH1 0x20 SWAP6 SWAP1 SWAP6 ADD CALLDATALOAD SWAP5 SWAP4 POP POP POP POP JUMP JUMPDEST PUSH1 0x0 DUP1 PUSH1 0x40 DUP4 DUP6 SUB SLT ISZERO PUSH2 0x79C JUMPI PUSH1 0x0 DUP1 REVERT JUMPDEST PUSH2 0x7A5 DUP4 PUSH2 0x577 JUMP JUMPDEST SWAP2 POP PUSH2 0x7B3 PUSH1 0x20 DUP5 ADD PUSH2 0x577 JUMP JUMPDEST SWAP1 POP SWAP3 POP SWAP3 SWAP1 POP JUMP JUMPDEST PUSH1 0x0 DUP1 PUSH1 0x0 PUSH1 0x40 DUP5 DUP7 SUB SLT ISZERO PUSH2 0x7D1 JUMPI PUSH1 0x0 DUP1 REVERT JUMPDEST DUP4 CALLDATALOAD SWAP3 POP PUSH1 0x20 DUP5 ADD CALLDATALOAD PUSH8 0xFFFFFFFFFFFFFFFF DUP2 GT ISZERO PUSH2 0x7EF JUMPI PUSH1 0x0 DUP1 REVERT JUMPDEST PUSH2 0x7FB DUP7 DUP3 DUP8 ADD PUSH2 0x6F4 JUMP JUMPDEST SWAP5 SWAP8 SWAP1 SWAP7 POP SWAP4 SWAP5 POP POP POP POP JUMP JUMPDEST PUSH1 0x0 DUP1 PUSH1 0x0 DUP1 PUSH1 0x0 PUSH1 0x80 DUP7 DUP9 SUB SLT ISZERO PUSH2 0x820 JUMPI PUSH1 0x0 DUP1 REVERT JUMPDEST PUSH2 0x829 DUP7 PUSH2 0x577 JUMP JUMPDEST SWAP5 POP PUSH1 0x20 DUP7 ADD CALLDATALOAD PUSH8 0xFFFFFFFFFFFFFFFF DUP2 GT ISZERO PUSH2 0x845 JUMPI PUSH1 0x0 DUP1 REVERT JUMPDEST PUSH2 0x851 DUP9 DUP3 DUP10 ADD PUSH2 0x6F4 JUMP JUMPDEST SWAP7 SWAP10 SWAP1 SWAP9 POP SWAP6 SWAP7 PUSH1 0x40 DUP2 ADD CALLDATALOAD SWAP7 PUSH1 0x60 SWAP1 SWAP2 ADD CALLDATALOAD SWAP6 POP SWAP4 POP POP POP POP JUMP JUMPDEST DUP3 ISZERO ISZERO DUP2 MSTORE PUSH1 0x40 PUSH1 0x20 DUP3 ADD MSTORE PUSH1 0x0 PUSH2 0x6EC PUSH1 0x40 DUP4 ADD DUP5 PUSH2 0x68D JUMP JUMPDEST PUSH1 0x0 DUP1 PUSH1 0x0 DUP1 PUSH1 0x60 DUP6 DUP8 SUB SLT ISZERO PUSH2 0x89E JUMPI PUSH1 0x0 DUP1 REVERT JUMPDEST PUSH2 0x8A7 DUP6 PUSH2 0x577 JUMP JUMPDEST SWAP4 POP PUSH1 0x20 DUP6 ADD CALLDATALOAD PUSH8 0xFFFFFFFFFFFFFFFF DUP2 GT ISZERO PUSH2 0x8C3 JUMPI PUSH1 0x0 DUP1 REVERT JUMPDEST PUSH2 0x8CF DUP8 DUP3 DUP9 ADD PUSH2 0x6F4 JUMP JUMPDEST SWAP6 SWAP9 SWAP1 SWAP8 POP SWAP5 SWAP6 PUSH1 0x40 ADD CALLDATALOAD SWAP5 SWAP4 POP POP POP POP JUMP JUMPDEST PUSH1 0x1 DUP2 DUP2 SHR SWAP1 DUP3 AND DUP1 PUSH2 0x8F6 JUMPI PUSH1 0x7F DUP3 AND SWAP2 POP JUMPDEST PUSH1 0x20 DUP3 LT DUP2 SUB PUSH2 0x916 JUMPI PUSH4 0x4E487B71 PUSH1 0xE0 SHL PUSH1 0x0 MSTORE PUSH1 0x22 PUSH1 0x4 MSTORE PUSH1 0x24 PUSH1 0x0 REVERT JUMPDEST POP SWAP2 SWAP1 POP JUMP JUMPDEST DUP2 DUP4 DUP3 CALLDATACOPY PUSH1 0x0 SWAP2 ADD SWAP1 DUP2 MSTORE SWAP2 SWAP1 POP JUMP JUMPDEST PUSH1 0x40 DUP2 MSTORE DUP3 PUSH1 0x40 DUP3 ADD MSTORE DUP3 DUP5 PUSH1 0x60 DUP4 ADD CALLDATACOPY PUSH1 0x0 PUSH1 0x60 DUP5 DUP4 ADD ADD MSTORE PUSH1 0x0 PUSH1 0x60 PUSH1 0x1F NOT PUSH1 0x1F DUP7 ADD AND DUP4 ADD ADD SWAP1 POP DUP3 PUSH1 0x20 DUP4 ADD MSTORE SWAP5 SWAP4 POP POP POP POP JUMP JUMPDEST PUSH1 0x1F DUP3 GT ISZERO PUSH2 0x9B1 JUMPI PUSH1 0x0 DUP2 PUSH1 0x0 MSTORE PUSH1 0x20 PUSH1 0x0 KECCAK256 PUSH1 0x1F DUP6 ADD PUSH1 0x5 SHR DUP2 ADD PUSH1 0x20 DUP7 LT ISZERO PUSH2 0x98E JUMPI POP DUP1 JUMPDEST PUSH1 0x1F DUP6 ADD PUSH1 0x5 SHR DUP3 ADD SWAP2 POP JUMPDEST DUP2 DUP2 LT ISZERO PUSH2 0x9AD JUMPI DUP3 DUP2 SSTORE PUSH1 0x1 ADD PUSH2 0x99A JUMP JUMPDEST POP POP POP JUMPDEST POP POP POP JUMP JUMPDEST DUP2 MLOAD PUSH8 0xFFFFFFFFFFFFFFFF DUP2 GT ISZERO PUSH2 0x9D0 JUMPI PUSH2 0x9D0 PUSH2 0x593 JUMP JUMPDEST PUSH2 0x9E4 DUP2 PUSH2 0x9DE DUP5 SLOAD PUSH2 0x8E2 JUMP JUMPDEST DUP5 PUSH2 0x965 JUMP JUMPDEST PUSH1 0x20 DUP1 PUSH1 0x1F DUP4 GT PUSH1 0x1 DUP2 EQ PUSH2 0xA19 JUMPI PUSH1 0x0 DUP5 ISZERO PUSH2 0xA01 JUMPI POP DUP6 DUP4 ADD MLOAD JUMPDEST PUSH1 0x0 NOT PUSH1 0x3 DUP7 SWAP1 SHL SHR NOT AND PUSH1 0x1 DUP6 SWAP1 SHL OR DUP6 SSTORE PUSH2 0x9AD JUMP JUMPDEST PUSH1 0x0 DUP6 DUP2 MSTORE PUSH1 0x20 DUP2 KECCAK256 PUSH1 0x1F NOT DUP7 AND SWAP2 JUMPDEST DUP3 DUP2 LT ISZERO PUSH2 0xA48 JUMPI DUP9 DUP7 ADD MLOAD DUP3 SSTORE SWAP5 DUP5 ADD SWAP5 PUSH1 0x1 SWAP1 SWAP2 ADD SWAP1 DUP5 ADD PUSH2 0xA29 JUMP JUMPDEST POP DUP6 DUP3 LT ISZERO PUSH2 0xA66 JUMPI DUP8 DUP6 ADD MLOAD PUSH1 0x0 NOT PUSH1 0x3 DUP9 SWAP1 SHL PUSH1 0xF8 AND SHR NOT AND DUP2 SSTORE JUMPDEST POP POP POP POP POP PUSH1 0x1 SWAP1 DUP2 SHL ADD SWAP1 SSTORE POP JUMP INVALID POP PUSH16 0x6C696379456E67696E653A20616D6F75 PUSH15 0x742065786365656473206361746567 PUSH16 0x7279206C696D6974506F6C696379456E PUSH8 0x696E653A20636174 PUSH6 0x676F7279206E PUSH16 0x7420636F6E66696775726564A2646970 PUSH7 0x73582212200636 PUSH18 0x5809CDBB734EB93C7E5E8AAB6F15C93E5C4C 0xCD 0xA5 0xE8 MUL EXTCODECOPY BLOBHASH PUSH7 0xFB91719E64736F PUSH13 0x63430008180033000000000000 "},"methodIdentifiers":{"categoryLimits(address,string)":"098fbe9b","getPolicy(address)":"3791dc6a","registerWallet(address,address)":"96793725","setCategoryLimit(string,uint256)":"4f9975a5","setCategoryLimitFor(address,string,uint256)":"d15d5e08","setPolicy(bytes32,bytes)":"b15c743a","validateSpend(address,string,uint256,bytes32)":"c9b3f8ad","walletOwners(address)":"a8e9379a"}}}}}