{
  "_format": "hh-sol-artifact-1",
  "contractName": "ARC402WalletTest",
  "sourceName": "contracts/ARC402WalletTest.sol",
  "abi": [
    {
      "inputs": [
        {
          "internalType": "address",
          "name": "_policyEngine",
          "type": "address"
        },
        {
          "internalType": "address",
          "name": "_trustRegistry",
          "type": "address"
        },
        {
          "internalType": "address",
          "name": "_intentAttestation",
          "type": "address"
        }
      ],
      "stateMutability": "nonpayable",
      "type": "constructor"
    },
    {
      "anonymous": false,
      "inputs": [
        {
          "indexed": true,
          "internalType": "bytes32",
          "name": "contextId",
          "type": "bytes32"
        },
        {
          "indexed": false,
          "internalType": "uint256",
          "name": "timestamp",
          "type": "uint256"
        }
      ],
      "name": "ContextClosed",
      "type": "event"
    },
    {
      "anonymous": false,
      "inputs": [
        {
          "indexed": true,
          "internalType": "bytes32",
          "name": "contextId",
          "type": "bytes32"
        },
        {
          "indexed": false,
          "internalType": "string",
          "name": "taskType",
          "type": "string"
        },
        {
          "indexed": false,
          "internalType": "uint256",
          "name": "timestamp",
          "type": "uint256"
        }
      ],
      "name": "ContextOpened",
      "type": "event"
    },
    {
      "anonymous": false,
      "inputs": [
        {
          "indexed": true,
          "internalType": "address",
          "name": "recipientWallet",
          "type": "address"
        },
        {
          "indexed": false,
          "internalType": "uint256",
          "name": "amount",
          "type": "uint256"
        },
        {
          "indexed": false,
          "internalType": "bytes32",
          "name": "attestationId",
          "type": "bytes32"
        }
      ],
      "name": "SettlementProposed",
      "type": "event"
    },
    {
      "anonymous": false,
      "inputs": [
        {
          "indexed": true,
          "internalType": "address",
          "name": "recipient",
          "type": "address"
        },
        {
          "indexed": false,
          "internalType": "uint256",
          "name": "amount",
          "type": "uint256"
        },
        {
          "indexed": false,
          "internalType": "string",
          "name": "category",
          "type": "string"
        },
        {
          "indexed": false,
          "internalType": "bytes32",
          "name": "attestationId",
          "type": "bytes32"
        }
      ],
      "name": "SpendExecuted",
      "type": "event"
    },
    {
      "inputs": [],
      "name": "activeContextId",
      "outputs": [
        {
          "internalType": "bytes32",
          "name": "",
          "type": "bytes32"
        }
      ],
      "stateMutability": "view",
      "type": "function"
    },
    {
      "inputs": [],
      "name": "activeTaskType",
      "outputs": [
        {
          "internalType": "string",
          "name": "",
          "type": "string"
        }
      ],
      "stateMutability": "view",
      "type": "function"
    },
    {
      "inputs": [],
      "name": "closeContext",
      "outputs": [],
      "stateMutability": "nonpayable",
      "type": "function"
    },
    {
      "inputs": [],
      "name": "contextOpen",
      "outputs": [
        {
          "internalType": "bool",
          "name": "",
          "type": "bool"
        }
      ],
      "stateMutability": "view",
      "type": "function"
    },
    {
      "inputs": [],
      "name": "contextOpenedAt",
      "outputs": [
        {
          "internalType": "uint256",
          "name": "",
          "type": "uint256"
        }
      ],
      "stateMutability": "view",
      "type": "function"
    },
    {
      "inputs": [
        {
          "internalType": "address payable",
          "name": "recipient",
          "type": "address"
        },
        {
          "internalType": "uint256",
          "name": "amount",
          "type": "uint256"
        },
        {
          "internalType": "string",
          "name": "category",
          "type": "string"
        },
        {
          "internalType": "bytes32",
          "name": "attestationId",
          "type": "bytes32"
        }
      ],
      "name": "executeSpend",
      "outputs": [],
      "stateMutability": "nonpayable",
      "type": "function"
    },
    {
      "inputs": [],
      "name": "getTrustScore",
      "outputs": [
        {
          "internalType": "uint256",
          "name": "",
          "type": "uint256"
        }
      ],
      "stateMutability": "view",
      "type": "function"
    },
    {
      "inputs": [],
      "name": "intentAttestation",
      "outputs": [
        {
          "internalType": "contract IIntentAttestation",
          "name": "",
          "type": "address"
        }
      ],
      "stateMutability": "view",
      "type": "function"
    },
    {
      "inputs": [
        {
          "internalType": "bytes32",
          "name": "contextId",
          "type": "bytes32"
        },
        {
          "internalType": "string",
          "name": "taskType",
          "type": "string"
        }
      ],
      "name": "openContext",
      "outputs": [],
      "stateMutability": "nonpayable",
      "type": "function"
    },
    {
      "inputs": [],
      "name": "owner",
      "outputs": [
        {
          "internalType": "address",
          "name": "",
          "type": "address"
        }
      ],
      "stateMutability": "view",
      "type": "function"
    },
    {
      "inputs": [],
      "name": "policyEngine",
      "outputs": [
        {
          "internalType": "contract IPolicyEngine",
          "name": "",
          "type": "address"
        }
      ],
      "stateMutability": "view",
      "type": "function"
    },
    {
      "inputs": [
        {
          "internalType": "address",
          "name": "recipientWallet",
          "type": "address"
        },
        {
          "internalType": "uint256",
          "name": "amount",
          "type": "uint256"
        },
        {
          "internalType": "string",
          "name": "category",
          "type": "string"
        },
        {
          "internalType": "bytes32",
          "name": "attestationId",
          "type": "bytes32"
        }
      ],
      "name": "proposeMASSettlement",
      "outputs": [],
      "stateMutability": "nonpayable",
      "type": "function"
    },
    {
      "inputs": [
        {
          "internalType": "bytes32",
          "name": "id",
          "type": "bytes32"
        },
        {
          "internalType": "string",
          "name": "action",
          "type": "string"
        },
        {
          "internalType": "string",
          "name": "reason",
          "type": "string"
        },
        {
          "internalType": "address",
          "name": "recipient",
          "type": "address"
        },
        {
          "internalType": "uint256",
          "name": "amount",
          "type": "uint256"
        }
      ],
      "name": "relayAttest",
      "outputs": [],
      "stateMutability": "nonpayable",
      "type": "function"
    },
    {
      "inputs": [
        {
          "internalType": "string",
          "name": "category",
          "type": "string"
        },
        {
          "internalType": "uint256",
          "name": "limitPerTx",
          "type": "uint256"
        }
      ],
      "name": "relayCategoryLimit",
      "outputs": [],
      "stateMutability": "nonpayable",
      "type": "function"
    },
    {
      "inputs": [],
      "name": "trustRegistry",
      "outputs": [
        {
          "internalType": "contract ITrustRegistry",
          "name": "",
          "type": "address"
        }
      ],
      "stateMutability": "view",
      "type": "function"
    },
    {
      "stateMutability": "payable",
      "type": "receive"
    }
  ],
  "bytecode": "0x6101006040523480156200001257600080fd5b5060405162001770380380620017708339810160408190526200003591620000cb565b336080526001600160a01b0383811660a05282811660c081905290821660e052604051639da8be2160e01b8152306004820152639da8be2190602401600060405180830381600087803b1580156200008c57600080fd5b505af1158015620000a1573d6000803e3d6000fd5b5050505050505062000115565b80516001600160a01b0381168114620000c657600080fd5b919050565b600080600060608486031215620000e157600080fd5b620000ec84620000ae565b9250620000fc60208501620000ae565b91506200010c60408501620000ae565b90509250925092565b60805160a05160c05160e0516115bf620001b1600039600081816101b0015281816104170152818161071d0152610d85015260008181610264015281816109cd0152610e19015260008181610230015281816104fe015281816107f90152610c110152600081816101fc01528181610346015281816106a2015281816108f601528181610acd01528181610bd00152610d3101526115bf6000f3fe6080604052600436106100ec5760003560e01c8063927399a51161008a578063d97e602411610059578063d97e6024146102d0578063e7c7d0d4146102f0578063e932b0b714610306578063ee2638c41461032657600080fd5b8063927399a51461021e5780639b835427146102525780639b89fbe314610286578063b6290d7c146102a657600080fd5b806375c2b9bd116100c657806375c2b9bd1461014f578063793a2b021461017a57806381f252ab1461019e5780638da5cb5b146101ea57600080fd5b806314a94e85146100f85780632e75686a1461011a5780633477e1c51461013a57600080fd5b366100f357005b600080fd5b34801561010457600080fd5b50610118610113366004610ef2565b61033b565b005b34801561012657600080fd5b50610118610135366004610ef2565b610697565b34801561014657600080fd5b506101186108eb565b34801561015b57600080fd5b50610164610a34565b6040516101719190610f7a565b60405180910390f35b34801561018657600080fd5b5061019060005481565b604051908152602001610171565b3480156101aa57600080fd5b506101d27f000000000000000000000000000000000000000000000000000000000000000081565b6040516001600160a01b039091168152602001610171565b3480156101f657600080fd5b506101d27f000000000000000000000000000000000000000000000000000000000000000081565b34801561022a57600080fd5b506101d27f000000000000000000000000000000000000000000000000000000000000000081565b34801561025e57600080fd5b506101d27f000000000000000000000000000000000000000000000000000000000000000081565b34801561029257600080fd5b506101186102a1366004610fad565b610ac2565b3480156102b257600080fd5b506002546102c09060ff1681565b6040519015158152602001610171565b3480156102dc57600080fd5b506101186102eb366004610ff9565b610bc5565b3480156102fc57600080fd5b5061019060035481565b34801561031257600080fd5b50610118610321366004611045565b610d26565b34801561033257600080fd5b50610190610e01565b336001600160a01b037f0000000000000000000000000000000000000000000000000000000000000000161461038c5760405162461bcd60e51b8152600401610383906110dc565b60405180910390fd5b60025460ff166103ae5760405162461bcd60e51b815260040161038390611107565b6001600160a01b0385166103fb5760405162461bcd60e51b81526020600482015260146024820152734152433430323a207a65726f206164647265737360601b6044820152606401610383565b60405163b88fbd2d60e01b8152600481018290523060248201527f00000000000000000000000000000000000000000000000000000000000000006001600160a01b03169063b88fbd2d90604401602060405180830381865afa158015610466573d6000803e3d6000fd5b505050506040513d601f19601f8201168201806040525081019061048a9190611153565b6104e15760405162461bcd60e51b815260206004820152602260248201527f4152433430323a20696e76616c696420696e74656e742061747465737461746960448201526137b760f11b6064820152608401610383565b6000805460405163c9b3f8ad60e01b815282916001600160a01b037f0000000000000000000000000000000000000000000000000000000000000000169163c9b3f8ad916105399130918a918a918d9160040161119e565b600060405180830381865afa158015610556573d6000803e3d6000fd5b505050506040513d6000823e601f3d908101601f1916820160405261057e91908101906111ed565b915091508181906105a25760405162461bcd60e51b81526004016103839190610f7a565b50866001600160a01b03167f2b3c6604ff1b7c691d7811592b52251b1e3335a6bcd446f7c845c33c7c837655878787876040516105e294939291906112ad565b60405180910390a26000876001600160a01b03168760405160006040518083038185875af1925050503d8060008114610637576040519150601f19603f3d011682016040523d82523d6000602084013e61063c565b606091505b505090508061068d5760405162461bcd60e51b815260206004820152601760248201527f4152433430323a207472616e73666572206661696c65640000000000000000006044820152606401610383565b5050505050505050565b336001600160a01b037f000000000000000000000000000000000000000000000000000000000000000016146106df5760405162461bcd60e51b8152600401610383906110dc565b60025460ff166107015760405162461bcd60e51b815260040161038390611107565b60405163b88fbd2d60e01b8152600481018290523060248201527f00000000000000000000000000000000000000000000000000000000000000006001600160a01b03169063b88fbd2d90604401602060405180830381865afa15801561076c573d6000803e3d6000fd5b505050506040513d601f19601f820116820180604052508101906107909190611153565b6107dc5760405162461bcd60e51b815260206004820152601b60248201527f4152433430323a20696e76616c6964206174746573746174696f6e00000000006044820152606401610383565b6000805460405163c9b3f8ad60e01b815282916001600160a01b037f0000000000000000000000000000000000000000000000000000000000000000169163c9b3f8ad916108349130918a918a918d9160040161119e565b600060405180830381865afa158015610851573d6000803e3d6000fd5b505050506040513d6000823e601f3d908101601f1916820160405261087991908101906111ed565b9150915081819061089d5760405162461bcd60e51b81526004016103839190610f7a565b5060408051878152602081018590526001600160a01b038916917f056d47bffa7c2cbd89d97598edfaacedc5a898dcd47487959943f507c38bd4d0910160405180910390a250505050505050565b336001600160a01b037f000000000000000000000000000000000000000000000000000000000000000016146109335760405162461bcd60e51b8152600401610383906110dc565b60025460ff166109555760405162461bcd60e51b815260040161038390611107565b600080548180556040805160208101909152918252906001906109789082611363565b506002805460ff1916905560405142815281907fcc6590861f6ca0cdac2283eec9e3d822129a66efb8ddf2bf4b239af6c168295f9060200160405180910390a2604051634234128760e01b81523060048201527f00000000000000000000000000000000000000000000000000000000000000006001600160a01b031690634234128790602401600060405180830381600087803b158015610a1957600080fd5b505af1158015610a2d573d6000803e3d6000fd5b5050505050565b60018054610a41906112d8565b80601f0160208091040260200160405190810160405280929190818152602001828054610a6d906112d8565b8015610aba5780601f10610a8f57610100808354040283529160200191610aba565b820191906000526020600020905b815481529060010190602001808311610a9d57829003601f168201915b505050505081565b336001600160a01b037f00000000000000000000000000000000000000000000000000000000000000001614610b0a5760405162461bcd60e51b8152600401610383906110dc565b60025460ff1615610b5d5760405162461bcd60e51b815260206004820152601c60248201527f4152433430323a20636f6e7465787420616c7265616479206f70656e000000006044820152606401610383565b60008390556001610b6f828483611423565b506002805460ff1916600117905542600381905560405184917fdde1929d79fef15cb9b8ed0bae129bca92a432de095cce47d10096cdc0fc1ba491610bb89186918691906114e3565b60405180910390a2505050565b336001600160a01b037f00000000000000000000000000000000000000000000000000000000000000001614610c0d5760405162461bcd60e51b8152600401610383906110dc565b60007f00000000000000000000000000000000000000000000000000000000000000006001600160a01b0316848484604051602401610c4e939291906114e3565b60408051601f198184030181529181526020820180516001600160e01b0316634f9975a560e01b17905251610c839190611507565b6000604051808303816000865af19150503d8060008114610cc0576040519150601f19603f3d011682016040523d82523d6000602084013e610cc5565b606091505b5050905080610d205760405162461bcd60e51b815260206004820152602160248201527f4152433430323a2072656c617943617465676f72794c696d6974206661696c656044820152601960fa1b6064820152608401610383565b50505050565b336001600160a01b037f00000000000000000000000000000000000000000000000000000000000000001614610d6e5760405162461bcd60e51b8152600401610383906110dc565b604051631d13551560e01b81526001600160a01b037f00000000000000000000000000000000000000000000000000000000000000001690631d13551590610dc6908a908a908a908a908a908a908a90600401611523565b600060405180830381600087803b158015610de057600080fd5b505af1158015610df4573d6000803e3d6000fd5b5050505050505050505050565b604051630d47875d60e41b81523060048201526000907f00000000000000000000000000000000000000000000000000000000000000006001600160a01b03169063d47875d090602401602060405180830381865afa158015610e68573d6000803e3d6000fd5b505050506040513d601f19601f82011682018060405250810190610e8c9190611570565b905090565b6001600160a01b0381168114610ea657600080fd5b50565b60008083601f840112610ebb57600080fd5b50813567ffffffffffffffff811115610ed357600080fd5b602083019150836020828501011115610eeb57600080fd5b9250929050565b600080600080600060808688031215610f0a57600080fd5b8535610f1581610e91565b945060208601359350604086013567ffffffffffffffff811115610f3857600080fd5b610f4488828901610ea9565b96999598509660600135949350505050565b60005b83811015610f71578181015183820152602001610f59565b50506000910152565b6020815260008251806020840152610f99816040850160208701610f56565b601f01601f19169190910160400192915050565b600080600060408486031215610fc257600080fd5b83359250602084013567ffffffffffffffff811115610fe057600080fd5b610fec86828701610ea9565b9497909650939450505050565b60008060006040848603121561100e57600080fd5b833567ffffffffffffffff81111561102557600080fd5b61103186828701610ea9565b909790965060209590950135949350505050565b600080600080600080600060a0888a03121561106057600080fd5b87359650602088013567ffffffffffffffff8082111561107f57600080fd5b61108b8b838c01610ea9565b909850965060408a01359150808211156110a457600080fd5b506110b18a828b01610ea9565b90955093505060608801356110c581610e91565b809250506080880135905092959891949750929550565b60208082526011908201527020a9219a18191d103737ba1037bbb732b960791b604082015260600190565b60208082526019908201527f4152433430323a206e6f2061637469766520636f6e7465787400000000000000604082015260600190565b8051801515811461114e57600080fd5b919050565b60006020828403121561116557600080fd5b61116e8261113e565b9392505050565b81835281816020850137506000828201602090810191909152601f909101601f19169091010190565b6001600160a01b03861681526080602082018190526000906111c39083018688611175565b604083019490945250606001529392505050565b634e487b7160e01b600052604160045260246000fd5b6000806040838503121561120057600080fd5b6112098361113e565b9150602083015167ffffffffffffffff8082111561122657600080fd5b818501915085601f83011261123a57600080fd5b81518181111561124c5761124c6111d7565b604051601f8201601f19908116603f01168101908382118183101715611274576112746111d7565b8160405282815288602084870101111561128d57600080fd5b61129e836020830160208801610f56565b80955050505050509250929050565b8481526060602082015260006112c7606083018587611175565b905082604083015295945050505050565b600181811c908216806112ec57607f821691505b60208210810361130c57634e487b7160e01b600052602260045260246000fd5b50919050565b601f82111561135e576000816000526020600020601f850160051c8101602086101561133b5750805b601f850160051c820191505b8181101561135a57828155600101611347565b5050505b505050565b815167ffffffffffffffff81111561137d5761137d6111d7565b6113918161138b84546112d8565b84611312565b602080601f8311600181146113c657600084156113ae5750858301515b600019600386901b1c1916600185901b17855561135a565b600085815260208120601f198616915b828110156113f5578886015182559484019460019091019084016113d6565b50858210156114135787850151600019600388901b60f8161c191681555b5050505050600190811b01905550565b67ffffffffffffffff83111561143b5761143b6111d7565b61144f8361144983546112d8565b83611312565b6000601f841160018114611483576000851561146b5750838201355b600019600387901b1c1916600186901b178355610a2d565b600083815260209020601f19861690835b828110156114b45786850135825560209485019460019092019101611494565b50868210156114d15760001960f88860031b161c19848701351681555b505060018560011b0183555050505050565b6040815260006114f7604083018587611175565b9050826020830152949350505050565b60008251611519818460208701610f56565b9190910192915050565b87815260a06020820152600061153d60a08301888a611175565b8281036040840152611550818789611175565b6001600160a01b0395909516606084015250506080015295945050505050565b60006020828403121561158257600080fd5b505191905056fea26469706673582212208a24870942959135bd429409ff209023a4ec62fb42181f468c9732740ce1d7db64736f6c63430008180033",
  "linkReferences": {},
  "deployedLinkReferences": {}
}